{"abi":[{"type":"constructor","inputs":[{"name":"_core","type":"address","internalType":"address"},{"name":"_ticketToken","type":"address","internalType":"address"},{"name":"ticetCost","type":"uint256","internalType":"uint256"}],"stateMutability":"nonpayable"},{"type":"function","name":"acceptWinnerlist","inputs":[],"outputs":[{"name":"","type":"bool","internalType":"bool"}],"stateMutability":"view"},{"type":"function","name":"addManager","inputs":[{"name":"addr","type":"address","internalType":"address"},{"name":"state","type":"bool","internalType":"bool"}],"outputs":[],"stateMutability":"nonpayable"},{"type":"function","name":"baseRp","inputs":[],"outputs":[{"name":"","type":"uint256","internalType":"uint256"}],"stateMutability":"view"},{"type":"function","name":"buyTicket","inputs":[],"outputs":[{"name":"","type":"bytes12","internalType":"bytes12"}],"stateMutability":"nonpayable"},{"type":"function","name":"buyTicketWithBalances","inputs":[],"outputs":[{"name":"","type":"bytes12","internalType":"bytes12"}],"stateMutability":"nonpayable"},{"type":"function","name":"currentRound","inputs":[],"outputs":[{"name":"","type":"uint256","internalType":"uint256"}],"stateMutability":"view"},{"type":"function","name":"deposit","inputs":[{"name":"amount","type":"uint256","internalType":"uint256"}],"outputs":[{"name":"","type":"bool","internalType":"bool"}],"stateMutability":"nonpayable"},{"type":"function","name":"distributeAndStartNextRound","inputs":[{"name":"winList","type":"tuple[]","internalType":"struct LotteryLib.Tickets[]","components":[{"name":"ticketId","type":"bytes12","internalType":"bytes12"},{"name":"owner","type":"address","internalType":"address"},{"name":"isWinner","type":"bool","internalType":"bool"}]}],"outputs":[{"name":"","type":"bool","internalType":"bool"}],"stateMutability":"nonpayable"},{"type":"function","name":"feePool","inputs":[],"outputs":[{"name":"","type":"uint256","internalType":"uint256"}],"stateMutability":"view"},{"type":"function","name":"getRoundParticipants","inputs":[{"name":"round","type":"uint256","internalType":"uint256"},{"name":"participantIndex","type":"uint256","internalType":"uint256"}],"outputs":[{"name":"","type":"tuple","internalType":"struct LotteryLib.Tickets","components":[{"name":"ticketId","type":"bytes12","internalType":"bytes12"},{"name":"owner","type":"address","internalType":"address"},{"name":"isWinner","type":"bool","internalType":"bool"}]}],"stateMutability":"view"},{"type":"function","name":"getRoundWinnerList","inputs":[{"name":"round","type":"uint256","internalType":"uint256"}],"outputs":[{"name":"","type":"bytes12[]","internalType":"bytes12[]"}],"stateMutability":"view"},{"type":"function","name":"getTicketInfo","inputs":[{"name":"round","type":"uint256","internalType":"uint256"},{"name":"ticketId","type":"bytes12","internalType":"bytes12"}],"outputs":[{"name":"","type":"tuple","internalType":"struct LotteryLib.Tickets","components":[{"name":"ticketId","type":"bytes12","internalType":"bytes12"},{"name":"owner","type":"address","internalType":"address"},{"name":"isWinner","type":"bool","internalType":"bool"}]}],"stateMutability":"view"},{"type":"function","name":"getUserBalances","inputs":[{"name":"user","type":"address","internalType":"address"}],"outputs":[{"name":"","type":"uint256","internalType":"uint256"}],"stateMutability":"view"},{"type":"function","name":"houseFee","inputs":[],"outputs":[{"name":"","type":"uint256","internalType":"uint256"}],"stateMutability":"view"},{"type":"function","name":"isParticipant","inputs":[{"name":"user","type":"address","internalType":"address"},{"name":"round","type":"uint256","internalType":"uint256"}],"outputs":[{"name":"","type":"bool","internalType":"bool"}],"stateMutability":"view"},{"type":"function","name":"live","inputs":[],"outputs":[{"name":"","type":"bool","internalType":"bool"}],"stateMutability":"view"},{"type":"function","name":"manager","inputs":[{"name":"","type":"address","internalType":"address"}],"outputs":[{"name":"","type":"bool","internalType":"bool"}],"stateMutability":"view"},{"type":"function","name":"maxTicketsPerRound","inputs":[],"outputs":[{"name":"","type":"uint256","internalType":"uint256"}],"stateMutability":"view"},{"type":"function","name":"maxTicketsPerUser","inputs":[],"outputs":[{"name":"","type":"uint256","internalType":"uint256"}],"stateMutability":"view"},{"type":"function","name":"maxWinners","inputs":[],"outputs":[{"name":"","type":"uint256","internalType":"uint256"}],"stateMutability":"view"},{"type":"function","name":"mineRp","inputs":[],"outputs":[{"name":"","type":"bool","internalType":"bool"}],"stateMutability":"view"},{"type":"function","name":"owner","inputs":[],"outputs":[{"name":"","type":"address","internalType":"address"}],"stateMutability":"view"},{"type":"function","name":"renounceOwnership","inputs":[],"outputs":[],"stateMutability":"nonpayable"},{"type":"function","name":"roundData","inputs":[{"name":"","type":"uint256","internalType":"uint256"}],"outputs":[{"name":"totalTickets","type":"uint256","internalType":"uint256"},{"name":"totalPool","type":"uint256","internalType":"uint256"},{"name":"distributed","type":"bool","internalType":"bool"}],"stateMutability":"view"},{"type":"function","name":"roundDistributed","inputs":[{"name":"round","type":"uint256","internalType":"uint256"}],"outputs":[{"name":"","type":"bool","internalType":"bool"}],"stateMutability":"view"},{"type":"function","name":"roundPoolData","inputs":[{"name":"round","type":"uint256","internalType":"uint256"}],"outputs":[{"name":"","type":"uint256","internalType":"uint256"}],"stateMutability":"view"},{"type":"function","name":"roundTicketsLeft","inputs":[{"name":"round","type":"uint256","internalType":"uint256"}],"outputs":[{"name":"","type":"uint256","internalType":"uint256"}],"stateMutability":"view"},{"type":"function","name":"setHouseFee","inputs":[{"name":"amount","type":"uint256","internalType":"uint256"}],"outputs":[],"stateMutability":"nonpayable"},{"type":"function","name":"setMaxTicketPerRound","inputs":[{"name":"amount","type":"uint256","internalType":"uint256"}],"outputs":[],"stateMutability":"nonpayable"},{"type":"function","name":"setMaxTicketPerUser","inputs":[{"name":"amount","type":"uint256","internalType":"uint256"}],"outputs":[],"stateMutability":"nonpayable"},{"type":"function","name":"setMaxWinners","inputs":[{"name":"amount","type":"uint256","internalType":"uint256"}],"outputs":[],"stateMutability":"nonpayable"},{"type":"function","name":"setRpConfig","inputs":[{"name":"_bRp","type":"uint256","internalType":"uint256"},{"name":"_wRp","type":"uint256","internalType":"uint256"},{"name":"state","type":"bool","internalType":"bool"}],"outputs":[],"stateMutability":"nonpayable"},{"type":"function","name":"setStat","inputs":[{"name":"stat","type":"bool","internalType":"bool"}],"outputs":[],"stateMutability":"nonpayable"},{"type":"function","name":"setTicketCost","inputs":[{"name":"amount","type":"uint256","internalType":"uint256"}],"outputs":[],"stateMutability":"nonpayable"},{"type":"function","name":"ticketCost","inputs":[],"outputs":[{"name":"","type":"uint256","internalType":"uint256"}],"stateMutability":"view"},{"type":"function","name":"ticketToken","inputs":[],"outputs":[{"name":"","type":"address","internalType":"address"}],"stateMutability":"view"},{"type":"function","name":"transferOwnership","inputs":[{"name":"newOwner","type":"address","internalType":"address"}],"outputs":[],"stateMutability":"nonpayable"},{"type":"function","name":"userOwnedTickets","inputs":[{"name":"user","type":"address","internalType":"address"},{"name":"round","type":"uint256","internalType":"uint256"}],"outputs":[{"name":"","type":"tuple[]","internalType":"struct LotteryLib.Tickets[]","components":[{"name":"ticketId","type":"bytes12","internalType":"bytes12"},{"name":"owner","type":"address","internalType":"address"},{"name":"isWinner","type":"bool","internalType":"bool"}]}],"stateMutability":"view"},{"type":"function","name":"userTicketCount","inputs":[{"name":"user","type":"address","internalType":"address"},{"name":"round","type":"uint256","internalType":"uint256"}],"outputs":[{"name":"","type":"uint256","internalType":"uint256"}],"stateMutability":"view"},{"type":"function","name":"userWinTickets","inputs":[{"name":"user","type":"address","internalType":"address"},{"name":"round","type":"uint256","internalType":"uint256"}],"outputs":[{"name":"","type":"bytes12[]","internalType":"bytes12[]"}],"stateMutability":"view"},{"type":"function","name":"users","inputs":[{"name":"","type":"address","internalType":"address"}],"outputs":[{"name":"totalWins","type":"uint256","internalType":"uint256"},{"name":"totalWinAmount","type":"uint256","internalType":"uint256"},{"name":"balances","type":"uint256","internalType":"uint256"}],"stateMutability":"view"},{"type":"function","name":"winRp","inputs":[],"outputs":[{"name":"","type":"uint256","internalType":"uint256"}],"stateMutability":"view"},{"type":"function","name":"withdraw","inputs":[{"name":"to","type":"address","internalType":"address"},{"name":"amount","type":"uint256","internalType":"uint256"}],"outputs":[{"name":"","type":"bool","internalType":"bool"}],"stateMutability":"nonpayable"},{"type":"function","name":"withdrawFee","inputs":[{"name":"amount","type":"uint256","internalType":"uint256"}],"outputs":[{"name":"","type":"bool","internalType":"bool"}],"stateMutability":"nonpayable"},{"type":"event","name":"OwnershipTransferred","inputs":[{"name":"previousOwner","type":"address","indexed":true,"internalType":"address"},{"name":"newOwner","type":"address","indexed":true,"internalType":"address"}],"anonymous":false},{"type":"error","name":"OwnableInvalidOwner","inputs":[{"name":"owner","type":"address","internalType":"address"}]},{"type":"error","name":"OwnableUnauthorizedAccount","inputs":[{"name":"account","type":"address","internalType":"address"}]}],"bytecode":{"object":"0x60a0604052600180805560056002818155600355600060045580556008805460ff19908116831790915560646009556103e8600a55600b805490911690911790553480156200004d57600080fd5b506040516200235d3803806200235d833981016040819052620000709162000144565b33806200009757604051631e4fbdf760e01b81526000600482015260240160405180910390fd5b620000a281620000d7565b506001600160a01b0391821660805260065560088054610100600160a81b031916610100939092169290920217905562000185565b600080546001600160a01b038381166001600160a01b0319831681178455604051919092169283917f8be0079c531659141344cd1fd0a4f28419497f9722a3daafe3b4186f6b6457e09190a35050565b80516001600160a01b03811681146200013f57600080fd5b919050565b6000806000606084860312156200015a57600080fd5b620001658462000127565b9250620001756020850162000127565b9150604084015190509250925092565b608051612192620001cb6000396000818161072801528181610ec801528181610f94015281816110aa015281816114b9015281816116840152611b5f01526121926000f3fe608060405234801561001057600080fd5b50600436106102745760003560e01c80639e6ca58f11610151578063c6bc2864116100c3578063d5ed4d5a11610087578063d5ed4d5a14610723578063d81e515a1461074a578063edca914c1461075d578063f29d2c5f14610765578063f2fde38b1461076e578063f3fef3a31461078157600080fd5b8063c6bc2864146106c8578063cde8e5d3146106d1578063cec26e51146106da578063d17b18c4146106ed578063d4d2e7f21461070057600080fd5b8063acc07e6f11610115578063acc07e6f1461062a578063ae2e933b14610637578063aea61b2b14610640578063b6b55f2514610653578063b955e60d14610666578063be357616146106b557600080fd5b80639e6ca58f146105585780639fb1b1c71461057e578063a4687f9f14610591578063a87430ba146105b4578063abd3f612146105fe57600080fd5b806365e22ab4116101ea5780638a19c8bc116101ae5780638a19c8bc146104be5780638da5cb5b146104c757806391e694ed146104ec578063923d9b95146104ff578063957aa58c146105395780639ba57f8a1461054657600080fd5b806365e22ab41461044c5780636f527aed1461046d578063715018a61461049057806382dd5a151461049857806389a02b41146104ab57600080fd5b8063445db8c81161023c578063445db8c8146102e65780634728bcc7146102ef5780634c9f17f3146103835780634f023d581461041057806355b50a47146104195780635a09f2f41461043957600080fd5b80630ed469b8146102795780631eecd9341461029557806331f0b2721461029e57806338240840146102b3578063398909ff146102c6575b600080fd5b61028260045481565b6040519081526020015b60405180910390f35b61028260065481565b6102b16102ac366004611cc0565b610794565b005b6102826102c1366004611cc0565b6107a1565b6102d96102d4366004611cf0565b6107c5565b60405161028c9190611d48565b61028260025481565b6103766102fd366004611dae565b604080516060808201835260008083526020808401829052928401819052948552600d82528285206001600160a01b0319948516865260040182529382902082519485018352805460a081901b9094168552600160601b9093046001600160a01b03169084015260019091015460ff1615159082015290565b60405161028c9190611dda565b610376610391366004611de8565b6040805160608101825260008082526020820181905291810191909152506000918252600d602090815260408084209284526003909201815291819020815160608101835281546001600160a01b031960a082901b168252600160601b90046001600160a01b0316938101939093526001015460ff1615159082015290565b61028260055481565b61042c610427366004611cf0565b61087f565b60405161028c9190611e0a565b6102b1610447366004611cc0565b610924565b61045461093f565b6040516001600160a01b0319909116815260200161028c565b61048061047b366004611cf0565b610d6b565b604051901515815260200161028c565b6102b1610da7565b6102b16104a6366004611cc0565b610dbb565b6102b16104b9366004611e5a565b610dc8565b61028260015481565b6000546001600160a01b03165b6040516001600160a01b03909116815260200161028c565b6102b16104fa366004611e93565b610dec565b61028261050d366004611cf0565b6001600160a01b03919091166000908152600c6020908152604080832093835260039093019052205490565b6008546104809060ff1681565b600b5461048090610100900460ff1681565b610480610566366004611cc0565b6000908152600d602052604090206006015460ff1690565b61042c61058c366004611cc0565b610e07565b61028261059f366004611cc0565b6000908152600d602052604090206001015490565b6105e36105c2366004611eb0565b600c6020526000908152604090208054600182015460029092015490919083565b6040805193845260208401929092529082015260600161028c565b61028261060c366004611eb0565b6001600160a01b03166000908152600c602052604090206002015490565b600b546104809060ff1681565b61028260075481565b6102b161064e366004611cc0565b610e99565b610480610661366004611cc0565b610ea6565b610698610674366004611cc0565b600d6020526000908152604090208054600182015460069092015490919060ff1683565b60408051938452602084019290925215159082015260600161028c565b6104806106c3366004611cc0565b61103e565b610282600a5481565b61028260035481565b6102b16106e8366004611ecb565b61113e565b6102b16106fb366004611cc0565b611171565b61048061070e366004611eb0565b600e6020526000908152604090205460ff1681565b6104d47f000000000000000000000000000000000000000000000000000000000000000081565b610480610758366004611f72565b61117e565b610454611495565b61028260095481565b6102b161077c366004611eb0565b611aa0565b61048061078f366004611cf0565b611ade565b61079c611c04565b600255565b6000818152600d60205260408120546002546107be908290612073565b9392505050565b6001600160a01b0382166000908152600c602090815260408083208484526005018252808320805482518185028101850190935280835260609492939192909184015b82821015610872576000848152602090819020604080516060810182526002860290920180546001600160a01b031960a082901b168452600160601b90046001600160a01b03168385015260019081015460ff161515918301919091529083529092019101610808565b5050505090505b92915050565b6001600160a01b0382166000908152600c6020908152604080832084845260040182529182902080548351818402810184019094528084526060939283018282801561091757602002820191906000526020600020906000905b82829054906101000a900460a01b6001600160a01b031916815260200190600c0190602082600b010492830192600103820291508084116108d95790505b5050505050905092915050565b61092c611c04565b606381111561093a57600080fd5b600455565b600654336000908152600c6020526040812060020154909111156109975760405162461bcd60e51b815260206004820152600a6024820152696e6f2062616c616e636560b01b60448201526064015b60405180910390fd5b600554336000908152600c602090815260408083206001548452600301909152902054106109d75760405162461bcd60e51b815260040161098e90612086565b6002546001546000908152600d602052604090205410610a095760405162461bcd60e51b815260040161098e90612086565b60085460ff16610a495760405162461bcd60e51b815260206004820152600b60248201526a139bdd081cdd185c9d195960aa1b604482015260640161098e565b6001546000818152600d602090815260408083205481519283018190529082019390935233606082015260800160408051601f198184030181529181528151602092830120600654336000908152600c9094529183206002018054919450919290610ab5908490612073565b909155505060045460009015610ae4576064600454600654610ad791906120ab565b610ae191906120c2565b90505b600081600654610af49190612073565b604080516060810182526001600160a01b031986168082523360208084018281526000858701818152600180548352600d8086528984208f8552600390810187528a85208a5187516001600160a01b03908116600160601b90810260a093841c1784558751938701805494151560ff1995861617905586548952948a528d88209b88526004909b0189528c87208c519851909b169093029690921c9590951788559151968101805497151597909216969096179055928352600c82528583208454845201905292832080549495509193909290610bd29084906120e4565b9091555050600180546000908152600d602052604081208054909190610bf99084906120e4565b9091555050336000908152600c6020908152604080832060018054855260059091018352818420805480830182559085528385208651878601516001600160a01b0316600160601b0260a09190911c1760029092020190815585830151908201805491151560ff1990921691909117905580548452600d9092528220018054849290610c869084906120e4565b925050819055508260076000828254610c9f91906120e4565b9091555050600b5460ff1615610d2e5760085460095460405163507cd30f60e01b815233600482015260248101919091526101009091046001600160a01b03169063507cd30f906044016020604051808303816000875af1158015610d08573d6000803e3d6000fd5b505050506040513d601f19601f82011682018060405250810190610d2c91906120f7565b505b600254336000908152600c60209081526040808320600154845260030190915290205403610d61576008805460ff191690555b5091949350505050565b6001600160a01b0382166000908152600c6020908152604080832084845260030190915281205415610d9f57506001610879565b506000610879565b610daf611c04565b610db96000611c31565b565b610dc3611c04565b600555565b610dd0611c04565b600992909255600a55600b805460ff1916911515919091179055565b610df4611c04565b6008805460ff1916911515919091179055565b6000818152600d6020908152604091829020600201805483518184028101840190945280845260609392830182828015610e8d57602002820191906000526020600020906000905b82829054906101000a900460a01b6001600160a01b031916815260200190600c0190602082600b01049283019260010382029150808411610e4f5790505b50505050509050919050565b610ea1611c04565b600655565b6040516370a0823160e01b815233600482015260009082906001600160a01b037f000000000000000000000000000000000000000000000000000000000000000016906370a0823190602401602060405180830381865afa158015610f0f573d6000803e3d6000fd5b505050506040513d601f19601f82011682018060405250810190610f339190612114565b1015610f6f5760405162461bcd60e51b815260206004820152600b60248201526a6e6f2062616c616e63657360a81b604482015260640161098e565b6040516323b872dd60e01b8152336004820152306024820152604481018390526000907f00000000000000000000000000000000000000000000000000000000000000006001600160a01b0316906323b872dd906064016020604051808303816000875af1158015610fe5573d6000803e3d6000fd5b505050506040513d601f19601f8201168201806040525081019061100991906120f7565b9050801561087957336000908152600c6020526040812060020180548592906110339084906120e4565b909155505092915050565b6000611048611c04565b81600754101561108b5760405162461bcd60e51b815260206004820152600e60248201526d6e6f7420656e6f7567682066656560901b604482015260640161098e565b60405163a9059cbb60e01b8152336004820152602481018390526000907f00000000000000000000000000000000000000000000000000000000000000006001600160a01b03169063a9059cbb906044016020604051808303816000875af11580156110fb573d6000803e3d6000fd5b505050506040513d601f19601f8201168201806040525081019061111f91906120f7565b905080156108795782600760008282546110339190612073565b919050565b611146611c04565b6001600160a01b03919091166000908152600e60205260409020805460ff1916911515919091179055565b611179611c04565b600355565b336000908152600e602052604081205460ff1661119a57600080fd5b6001546000818152600d602052604090206006015460ff16156111f35760405162461bcd60e51b8152602060048201526011602482015270185b1c9958591e481c1c9bd8d95cdcd959607a1b604482015260640161098e565b6002546001546000908152600d602052604090205410801590611219575060085460ff16155b61122257600080fd5b60035483511461123157600080fd5b6000818152600d602052604081206001015460035490919061125390836120c2565b905060015b85518110156114805760008682815181106112755761127561212d565b602002602001015160200151905060008783815181106112975761129761212d565b602002602001015160000151905083600c6000846001600160a01b03166001600160a01b0316815260200190815260200160002060020160008282546112dd91906120e4565b90915550506001600160a01b0382166000908152600c6020526040812080546001929061130b9084906120e4565b90915550506001600160a01b0382166000908152600c60205260408120600101805486929061133b9084906120e4565b90915550506000868152600d60209081526040808320600290810180546001818101835591865284862083820401805460a089901c600c938516840261010090810a8281026001600160601b0391820219909416939093179093556001600160a01b038b1689528388528689208f8a52600401885295882080548086018255908952969097209386049093018054959092160290910a9182029190930219909116179055600b5460ff161561146b57600854600a5460405163507cd30f60e01b81526001600160a01b0385811660048301526024820192909252610100909204169063507cd30f906044016020604051808303816000875af1158015611445573d6000803e3d6000fd5b505050506040513d601f19601f8201168201806040525081019061146991906120f7565b505b5050808061147890612143565b915050611258565b5061148a83611c81565b506001949350505050565b6006546040516370a0823160e01b8152336004820152600091906001600160a01b037f000000000000000000000000000000000000000000000000000000000000000016906370a0823190602401602060405180830381865afa158015611500573d6000803e3d6000fd5b505050506040513d601f19601f820116820180604052508101906115249190612114565b101561155f5760405162461bcd60e51b815260206004820152600a6024820152696e6f2062616c616e636560b01b604482015260640161098e565b600554336000908152600c6020908152604080832060015484526003019091529020541061159f5760405162461bcd60e51b815260040161098e90612086565b6002546001546000908152600d6020526040902054106115d15760405162461bcd60e51b815260040161098e90612086565b60085460ff166116115760405162461bcd60e51b815260206004820152600b60248201526a139bdd081cdd185c9d195960aa1b604482015260640161098e565b6001546000818152600d602090815260408083205481519283018190529082019390935233606082015260800160408051601f198184030181529082905280516020909101206006546323b872dd60e01b8352336004840152306024840152604483015291506000906001600160a01b037f000000000000000000000000000000000000000000000000000000000000000016906323b872dd906064016020604051808303816000875af11580156116cd573d6000803e3d6000fd5b505050506040513d601f19601f820116820180604052508101906116f191906120f7565b9050806116fd57600080fd5b6000606460045460065461171191906120ab565b61171b91906120c2565b905060008160065461172d9190612073565b905060006040518060600160405280866001600160a01b0319168152602001336001600160a01b0316815260200160001515815250905080600d60006001548152602001908152602001600020600301600088815260200190815260200160002060008201518160000160006101000a8154816001600160601b03021916908360a01c0217905550602082015181600001600c6101000a8154816001600160a01b0302191690836001600160a01b0316021790555060408201518160010160006101000a81548160ff02191690831515021790555090505080600d600060015481526020019081526020016000206004016000876001600160a01b0319166001600160a01b031916815260200190815260200160002060008201518160000160006101000a8154816001600160601b03021916908360a01c0217905550602082015181600001600c6101000a8154816001600160a01b0302191690836001600160a01b0316021790555060408201518160010160006101000a81548160ff0219169083151502179055509050506001600c6000336001600160a01b03166001600160a01b0316815260200190815260200160002060030160006001548152602001908152602001600020600082825461190691906120e4565b9091555050600180546000908152600d60205260408120805490919061192d9084906120e4565b9091555050336000908152600c6020908152604080832060018054855260059091018352818420805480830182559085528385208651878601516001600160a01b0316600160601b0260a09190911c1760029092020190815585830151908201805491151560ff1990921691909117905580548452600d90925282200180548492906119ba9084906120e4565b9250508190555082600760008282546119d391906120e4565b9091555050600b5460ff1615611a625760085460095460405163507cd30f60e01b815233600482015260248101919091526101009091046001600160a01b03169063507cd30f906044016020604051808303816000875af1158015611a3c573d6000803e3d6000fd5b505050506040513d601f19601f82011682018060405250810190611a6091906120f7565b505b600254336000908152600c60209081526040808320600154845260030190915290205403611a95576008805460ff191690555b509295945050505050565b611aa8611c04565b6001600160a01b038116611ad257604051631e4fbdf760e01b81526000600482015260240161098e565b611adb81611c31565b50565b336000908152600c6020526040812060020154821115611b365760405162461bcd60e51b81526020600482015260136024820152726e6f7420656e6f7567682062616c616e63657360681b604482015260640161098e565b60405163a9059cbb60e01b81526001600160a01b038481166004830152602482018490526000917f00000000000000000000000000000000000000000000000000000000000000009091169063a9059cbb906044016020604051808303816000875af1158015611baa573d6000803e3d6000fd5b505050506040513d601f19601f82011682018060405250810190611bce91906120f7565b905080156107be57336000908152600c602052604081206002018054859290611bf8908490612073565b90915550509392505050565b6000546001600160a01b03163314610db95760405163118cdaa760e01b815233600482015260240161098e565b600080546001600160a01b038381166001600160a01b0319831681178455604051919092169283917f8be0079c531659141344cd1fd0a4f28419497f9722a3daafe3b4186f6b6457e09190a35050565b6000818152600d60205260409020600601805460ff19166001908117909155611cab9082906120e4565b60019081556008805460ff1916909117905550565b600060208284031215611cd257600080fd5b5035919050565b80356001600160a01b038116811461113957600080fd5b60008060408385031215611d0357600080fd5b611d0c83611cd9565b946020939093013593505050565b80516001600160a01b03191682526020808201516001600160a01b0316908301526040908101511515910152565b6020808252825182820181905260009190848201906040850190845b81811015611d8a57611d77838551611d1a565b9284019260609290920191600101611d64565b50909695505050505050565b80356001600160a01b03198116811461113957600080fd5b60008060408385031215611dc157600080fd5b82359150611dd160208401611d96565b90509250929050565b606081016108798284611d1a565b60008060408385031215611dfb57600080fd5b50508035926020909101359150565b6020808252825182820181905260009190848201906040850190845b81811015611d8a5783516001600160a01b03191683529284019291840191600101611e26565b8015158114611adb57600080fd5b600080600060608486031215611e6f57600080fd5b83359250602084013591506040840135611e8881611e4c565b809150509250925092565b600060208284031215611ea557600080fd5b81356107be81611e4c565b600060208284031215611ec257600080fd5b6107be82611cd9565b60008060408385031215611ede57600080fd5b611ee783611cd9565b91506020830135611ef781611e4c565b809150509250929050565b634e487b7160e01b600052604160045260246000fd5b6040516060810167ffffffffffffffff81118282101715611f3b57611f3b611f02565b60405290565b604051601f8201601f1916810167ffffffffffffffff81118282101715611f6a57611f6a611f02565b604052919050565b60006020808385031215611f8557600080fd5b823567ffffffffffffffff80821115611f9d57600080fd5b818501915085601f830112611fb157600080fd5b813581811115611fc357611fc3611f02565b611fd1848260051b01611f41565b81815284810192506060918202840185019188831115611ff057600080fd5b938501935b828510156120515780858a03121561200d5760008081fd5b612015611f18565b61201e86611d96565b815261202b878701611cd9565b8782015260408087013561203e81611e4c565b9082015284529384019392850192611ff5565b50979650505050505050565b634e487b7160e01b600052601160045260246000fd5b818103818111156108795761087961205d565b6020808252600b908201526a1b585e081c995858da195960aa1b604082015260600190565b80820281158282048414176108795761087961205d565b6000826120df57634e487b7160e01b600052601260045260246000fd5b500490565b808201808211156108795761087961205d565b60006020828403121561210957600080fd5b81516107be81611e4c565b60006020828403121561212657600080fd5b5051919050565b634e487b7160e01b600052603260045260246000fd5b6000600182016121555761215561205d565b506001019056fea26469706673582212201876f4d74bd3a19e24fd4dfb8ee94143cbcf651fa73f8b5dafeef788e3697d4e64736f6c63430008140033","linkReferences":{}},"methodIdentifiers":{"acceptWinnerlist()":"9ba57f8a","addManager(address,bool)":"cec26e51","baseRp()":"f29d2c5f","buyTicket()":"edca914c","buyTicketWithBalances()":"65e22ab4","currentRound()":"8a19c8bc","deposit(uint256)":"b6b55f25","distributeAndStartNextRound((bytes12,address,bool)[])":"d81e515a","feePool()":"ae2e933b","getRoundParticipants(uint256,uint256)":"4c9f17f3","getRoundWinnerList(uint256)":"9fb1b1c7","getTicketInfo(uint256,bytes12)":"4728bcc7","getUserBalances(address)":"abd3f612","houseFee()":"0ed469b8","isParticipant(address,uint256)":"6f527aed","live()":"957aa58c","manager(address)":"d4d2e7f2","maxTicketsPerRound()":"445db8c8","maxTicketsPerUser()":"4f023d58","maxWinners()":"cde8e5d3","mineRp()":"acc07e6f","owner()":"8da5cb5b","renounceOwnership()":"715018a6","roundData(uint256)":"b955e60d","roundDistributed(uint256)":"9e6ca58f","roundPoolData(uint256)":"a4687f9f","roundTicketsLeft(uint256)":"38240840","setHouseFee(uint256)":"5a09f2f4","setMaxTicketPerRound(uint256)":"31f0b272","setMaxTicketPerUser(uint256)":"82dd5a15","setMaxWinners(uint256)":"d17b18c4","setRpConfig(uint256,uint256,bool)":"89a02b41","setStat(bool)":"91e694ed","setTicketCost(uint256)":"aea61b2b","ticketCost()":"1eecd934","ticketToken()":"d5ed4d5a","transferOwnership(address)":"f2fde38b","userOwnedTickets(address,uint256)":"398909ff","userTicketCount(address,uint256)":"923d9b95","userWinTickets(address,uint256)":"55b50a47","users(address)":"a87430ba","winRp()":"c6bc2864","withdraw(address,uint256)":"f3fef3a3","withdrawFee(uint256)":"be357616"},"id":54}