{"abi":[{"type":"constructor","inputs":[{"name":"ca","type":"address","internalType":"address"}],"stateMutability":"nonpayable"},{"type":"function","name":"counter","inputs":[{"name":"","type":"uint8","internalType":"uint8"},{"name":"","type":"address","internalType":"address"}],"outputs":[{"name":"","type":"uint256","internalType":"uint256"}],"stateMutability":"view"},{"type":"function","name":"getCurrentRound","inputs":[],"outputs":[{"name":"","type":"uint8","internalType":"uint8"}],"stateMutability":"view"},{"type":"function","name":"isWhitelisted","inputs":[{"name":"","type":"address","internalType":"address"}],"outputs":[{"name":"","type":"bool","internalType":"bool"}],"stateMutability":"view"},{"type":"function","name":"limitPublic","inputs":[],"outputs":[{"name":"","type":"uint8","internalType":"uint8"}],"stateMutability":"view"},{"type":"function","name":"limitWhitelist","inputs":[],"outputs":[{"name":"","type":"uint8","internalType":"uint8"}],"stateMutability":"view"},{"type":"function","name":"mintMulti","inputs":[{"name":"amount","type":"uint8","internalType":"uint8"}],"outputs":[],"stateMutability":"nonpayable"},{"type":"function","name":"mintSingle","inputs":[],"outputs":[],"stateMutability":"nonpayable"},{"type":"function","name":"mintStarted","inputs":[],"outputs":[{"name":"","type":"bool","internalType":"bool"}],"stateMutability":"view"},{"type":"function","name":"nftContract","inputs":[],"outputs":[{"name":"","type":"address","internalType":"contract SKIBBIDIESOFBITCOIN"}],"stateMutability":"view"},{"type":"function","name":"owner","inputs":[],"outputs":[{"name":"","type":"address","internalType":"address"}],"stateMutability":"view"},{"type":"function","name":"renounceOwnership","inputs":[],"outputs":[],"stateMutability":"nonpayable"},{"type":"function","name":"setLimitPub","inputs":[{"name":"num","type":"uint8","internalType":"uint8"}],"outputs":[],"stateMutability":"nonpayable"},{"type":"function","name":"setLimitWl","inputs":[{"name":"num","type":"uint8","internalType":"uint8"}],"outputs":[],"stateMutability":"nonpayable"},{"type":"function","name":"setNftCa","inputs":[{"name":"ca","type":"address","internalType":"address"}],"outputs":[],"stateMutability":"nonpayable"},{"type":"function","name":"setSupplyLeft","inputs":[{"name":"am","type":"uint256","internalType":"uint256"}],"outputs":[],"stateMutability":"nonpayable"},{"type":"function","name":"setWhitelist","inputs":[{"name":"list","type":"address[]","internalType":"address[]"}],"outputs":[],"stateMutability":"nonpayable"},{"type":"function","name":"startPublicRound","inputs":[],"outputs":[],"stateMutability":"nonpayable"},{"type":"function","name":"startWlRound","inputs":[],"outputs":[],"stateMutability":"nonpayable"},{"type":"function","name":"supplyLeft","inputs":[],"outputs":[{"name":"","type":"uint256","internalType":"uint256"}],"stateMutability":"view"},{"type":"function","name":"transferOwnership","inputs":[{"name":"newOwner","type":"address","internalType":"address"}],"outputs":[],"stateMutability":"nonpayable"},{"type":"event","name":"OwnershipTransferred","inputs":[{"name":"previousOwner","type":"address","indexed":true,"internalType":"address"},{"name":"newOwner","type":"address","indexed":true,"internalType":"address"}],"anonymous":false},{"type":"error","name":"OwnableInvalidOwner","inputs":[{"name":"owner","type":"address","internalType":"address"}]},{"type":"error","name":"OwnableUnauthorizedAccount","inputs":[{"name":"account","type":"address","internalType":"address"}]}],"bytecode":{"object":"0x60806040526001805461ffff60a01b191660b160a41b179055610b966002556005805460ff1916905534801561003457600080fd5b50604051610bc5380380610bc5833981016040819052610053916100f8565b338061007957604051631e4fbdf760e01b81526000600482015260240160405180910390fd5b610082816100a8565b50600180546001600160a01b0319166001600160a01b0392909216919091179055610128565b600080546001600160a01b038381166001600160a01b0319831681178455604051919092169283917f8be0079c531659141344cd1fd0a4f28419497f9722a3daafe3b4186f6b6457e09190a35050565b60006020828403121561010a57600080fd5b81516001600160a01b038116811461012157600080fd5b9392505050565b610a8e806101376000396000f3fe608060405234801561001057600080fd5b506004361061012c5760003560e01c8063a9722cf3116100ad578063d56d229d11610071578063d56d229d14610282578063e128591e14610295578063f2fde38b146102a8578063f4217648146102bb578063fdcf9d07146102ce57600080fd5b8063a9722cf314610244578063abf1aba81461024c578063b8f19f1814610254578063b9b301191461025c578063bd44fa0a1461026f57600080fd5b8063683cef14116100f4578063683cef14146101e5578063715018a6146101f85780638da5cb5b1461020057806396772cee14610225578063a32bf5971461023957600080fd5b8063019f5c72146101315780630798ab0b1461015c5780631d31347e146101715780633af32abf146101aa57806344210174146101dd575b600080fd5b60015461014590600160a01b900460ff1681565b60405160ff90911681526020015b60405180910390f35b61016f61016a366004610861565b6102d6565b005b61019c61017f36600461089a565b600360209081526000928352604080842090915290825290205481565b604051908152602001610153565b6101cd6101b83660046108cd565b60046020526000908152604090205460ff1681565b6040519015158152602001610153565b61016f6102fe565b61016f6101f33660046108cd565b610315565b61016f61033f565b6000546001600160a01b03165b6040516001600160a01b039091168152602001610153565b60015461014590600160a81b900460ff1681565b60055460ff16610145565b6101cd610353565b61016f61036c565b61016f610383565b61016f61026a366004610861565b610527565b61016f61027d366004610861565b6106f1565b60015461020d906001600160a01b031681565b61016f6102a33660046108e8565b610719565b61016f6102b63660046108cd565b610726565b61016f6102c9366004610917565b610764565b60025461019c565b6102de6107ce565b6001805460ff909216600160a01b0260ff60a01b19909216919091179055565b6103066107ce565b6005805460ff19166002179055565b61031d6107ce565b600180546001600160a01b0319166001600160a01b0392909216919091179055565b6103476107ce565b61035160006107fb565b565b60055460009060ff166103665750600090565b50600190565b6103746107ce565b6005805460ff19166001179055565b60055460ff166103c85760405162461bcd60e51b815260206004820152600b60248201526a1b9bdd081cdd185c9d195960aa1b60448201526064015b60405180910390fd5b60055460ff166001036104205760015460055460ff9081166000908152600360209081526040808320338452909152902054600160a01b90920416116104205760405162461bcd60e51b81526004016103bf906109dc565b60055460ff166002036104785760015460055460ff9081166000908152600360209081526040808320338452909152902054600160a81b90920416116104785760405162461bcd60e51b81526004016103bf906109dc565b60015460405163166b1e0160e31b81523360048201526001600160a01b039091169063b358f00890602401600060405180830381600087803b1580156104bd57600080fd5b505af11580156104d1573d6000803e3d6000fd5b505060055460ff1660009081526003602090815260408083203384529091528120805460019450909250610506908490610a16565b925050819055506001600260008282546105209190610a2f565b9091555050565b60055460ff166105675760405162461bcd60e51b815260206004820152600b60248201526a1b9bdd081cdd185c9d195960aa1b60448201526064016103bf565b60055460ff166001036105cd5760015460055460ff9081166000908152600360209081526040808320338452909152902054600160a01b9092048116916105b091841690610a16565b106105cd5760405162461bcd60e51b81526004016103bf906109dc565b60055460ff166002036106335760015460055460ff9081166000908152600360209081526040808320338452909152902054600160a81b90920481169161061691841690610a16565b106106335760405162461bcd60e51b81526004016103bf906109dc565b6001546040516303c8337d60e21b815233600482015260ff831660248201526001600160a01b0390911690630f20cdf490604401600060405180830381600087803b15801561068157600080fd5b505af1158015610695573d6000803e3d6000fd5b505060055460ff90811660009081526003602090815260408083203384529091528120805492861694509250906106cd908490610a16565b925050819055508060ff16600260008282546106e99190610a2f565b909155505050565b6106f96107ce565b6001805460ff909216600160a81b0260ff60a81b19909216919091179055565b6107216107ce565b600255565b61072e6107ce565b6001600160a01b03811661075857604051631e4fbdf760e01b8152600060048201526024016103bf565b610761816107fb565b50565b61076c6107ce565b60005b81518110156107ca5760016004600084848151811061079057610790610a42565b6020908102919091018101516001600160a01b03168252810191909152604001600020805460ff191691151591909117905560010161076f565b5050565b6000546001600160a01b031633146103515760405163118cdaa760e01b81523360048201526024016103bf565b600080546001600160a01b038381166001600160a01b0319831681178455604051919092169283917f8be0079c531659141344cd1fd0a4f28419497f9722a3daafe3b4186f6b6457e09190a35050565b803560ff8116811461085c57600080fd5b919050565b60006020828403121561087357600080fd5b61087c8261084b565b9392505050565b80356001600160a01b038116811461085c57600080fd5b600080604083850312156108ad57600080fd5b6108b68361084b565b91506108c460208401610883565b90509250929050565b6000602082840312156108df57600080fd5b61087c82610883565b6000602082840312156108fa57600080fd5b5035919050565b634e487b7160e01b600052604160045260246000fd5b6000602080838503121561092a57600080fd5b823567ffffffffffffffff8082111561094257600080fd5b818501915085601f83011261095657600080fd5b81358181111561096857610968610901565b8060051b604051601f19603f8301168101818110858211171561098d5761098d610901565b6040529182528482019250838101850191888311156109ab57600080fd5b938501935b828510156109d0576109c185610883565b845293850193928501926109b0565b98975050505050505050565b6020808252600a90820152693634b6b4ba1037bb32b960b11b604082015260600190565b634e487b7160e01b600052601160045260246000fd5b80820180821115610a2957610a29610a00565b92915050565b81810381811115610a2957610a29610a00565b634e487b7160e01b600052603260045260246000fdfea26469706673582212202af1f0db5243778bac0287252532ecd8bde65cef65fb5fa31736435b0ee669d964736f6c63430008170033","linkReferences":{}},"methodIdentifiers":{"counter(uint8,address)":"1d31347e","getCurrentRound()":"a32bf597","isWhitelisted(address)":"3af32abf","limitPublic()":"96772cee","limitWhitelist()":"019f5c72","mintMulti(uint8)":"b9b30119","mintSingle()":"b8f19f18","mintStarted()":"a9722cf3","nftContract()":"d56d229d","owner()":"8da5cb5b","renounceOwnership()":"715018a6","setLimitPub(uint8)":"bd44fa0a","setLimitWl(uint8)":"0798ab0b","setNftCa(address)":"683cef14","setSupplyLeft(uint256)":"e128591e","setWhitelist(address[])":"f4217648","startPublicRound()":"44210174","startWlRound()":"abf1aba8","supplyLeft()":"fdcf9d07","transferOwnership(address)":"f2fde38b"},"id":43}