{"abi":[{"type":"constructor","inputs":[{"name":"_nftAddress","type":"address","internalType":"address"},{"name":"SOBAddress","type":"address","internalType":"address"},{"name":"_sobStaker","type":"address","internalType":"address"},{"name":"_rpAdd","type":"address","internalType":"address"}],"stateMutability":"nonpayable"},{"type":"function","name":"DrawWinners","inputs":[{"name":"","type":"uint256","internalType":"uint256"}],"outputs":[{"name":"","type":"uint256","internalType":"uint256"}],"stateMutability":"view"},{"type":"function","name":"_calculateDiscount","inputs":[{"name":"user","type":"address","internalType":"address"}],"outputs":[{"name":"","type":"uint256","internalType":"uint256"}],"stateMutability":"view"},{"type":"function","name":"bob","inputs":[],"outputs":[{"name":"","type":"address","internalType":"contract BOTSOFBITCOIN"}],"stateMutability":"view"},{"type":"function","name":"currentRound","inputs":[],"outputs":[{"name":"","type":"uint256","internalType":"uint256"}],"stateMutability":"view"},{"type":"function","name":"getMinterBalances","inputs":[{"name":"user","type":"address","internalType":"address"},{"name":"token","type":"address","internalType":"address"}],"outputs":[{"name":"","type":"uint256","internalType":"uint256"}],"stateMutability":"view"},{"type":"function","name":"getMinterData","inputs":[{"name":"user","type":"address","internalType":"address"}],"outputs":[{"name":"","type":"uint256","internalType":"uint256"},{"name":"","type":"uint256","internalType":"uint256"},{"name":"","type":"address","internalType":"address"}],"stateMutability":"view"},{"type":"function","name":"getRaised","inputs":[],"outputs":[{"name":"","type":"uint256","internalType":"uint256"}],"stateMutability":"view"},{"type":"function","name":"getRound","inputs":[],"outputs":[{"name":"","type":"string","internalType":"string"}],"stateMutability":"view"},{"type":"function","name":"getTotalSOBOwned","inputs":[{"name":"user","type":"address","internalType":"address"}],"outputs":[{"name":"","type":"uint256","internalType":"uint256"}],"stateMutability":"view"},{"type":"function","name":"lottoPool","inputs":[],"outputs":[{"name":"","type":"uint256","internalType":"uint256"}],"stateMutability":"view"},{"type":"function","name":"maxMintPerWallet","inputs":[],"outputs":[{"name":"","type":"uint256","internalType":"uint256"}],"stateMutability":"view"},{"type":"function","name":"maxWinners","inputs":[],"outputs":[{"name":"","type":"uint256","internalType":"uint256"}],"stateMutability":"view"},{"type":"function","name":"mintCost","inputs":[],"outputs":[{"name":"","type":"uint256","internalType":"uint256"}],"stateMutability":"view"},{"type":"function","name":"onERC721Received","inputs":[{"name":"operator","type":"address","internalType":"address"},{"name":"from","type":"address","internalType":"address"},{"name":"tokenId","type":"uint256","internalType":"uint256"},{"name":"data","type":"bytes","internalType":"bytes"}],"outputs":[{"name":"","type":"bytes4","internalType":"bytes4"}],"stateMutability":"pure"},{"type":"function","name":"owner","inputs":[],"outputs":[{"name":"","type":"address","internalType":"address"}],"stateMutability":"view"},{"type":"function","name":"pubMint","inputs":[{"name":"ref","type":"address","internalType":"address"}],"outputs":[],"stateMutability":"payable"},{"type":"function","name":"referalBonus","inputs":[],"outputs":[{"name":"","type":"uint256","internalType":"uint256"}],"stateMutability":"view"},{"type":"function","name":"renounceOwnership","inputs":[],"outputs":[],"stateMutability":"nonpayable"},{"type":"function","name":"rpBase","inputs":[],"outputs":[{"name":"","type":"uint256","internalType":"uint256"}],"stateMutability":"view"},{"type":"function","name":"rpCore","inputs":[],"outputs":[{"name":"","type":"address","internalType":"contract EventCore"}],"stateMutability":"view"},{"type":"function","name":"setWlStat","inputs":[{"name":"user","type":"address","internalType":"address"},{"name":"state","type":"bool","internalType":"bool"}],"outputs":[],"stateMutability":"nonpayable"},{"type":"function","name":"skib","inputs":[],"outputs":[{"name":"","type":"address","internalType":"contract SKIBBIDIESOFBITCOIN"}],"stateMutability":"view"},{"type":"function","name":"staker","inputs":[],"outputs":[{"name":"","type":"address","internalType":"contract StakingRP"}],"stateMutability":"view"},{"type":"function","name":"startLuckyDraw","inputs":[],"outputs":[],"stateMutability":"nonpayable"},{"type":"function","name":"startNextRound","inputs":[],"outputs":[],"stateMutability":"nonpayable"},{"type":"function","name":"totalSupply","inputs":[],"outputs":[{"name":"","type":"uint256","internalType":"uint256"}],"stateMutability":"view"},{"type":"function","name":"transferOwnership","inputs":[{"name":"newOwner","type":"address","internalType":"address"}],"outputs":[],"stateMutability":"nonpayable"},{"type":"function","name":"waitMint","inputs":[{"name":"ref","type":"address","internalType":"address"}],"outputs":[],"stateMutability":"payable"},{"type":"function","name":"withdrawRaised","inputs":[{"name":"amount","type":"uint256","internalType":"uint256"}],"outputs":[],"stateMutability":"nonpayable"},{"type":"function","name":"withdrawUserBalances","inputs":[{"name":"token","type":"address","internalType":"address"},{"name":"amount","type":"uint256","internalType":"uint256"}],"outputs":[],"stateMutability":"nonpayable"},{"type":"function","name":"wlMint","inputs":[{"name":"ref","type":"address","internalType":"address"}],"outputs":[],"stateMutability":"payable"},{"type":"function","name":"wlZero","inputs":[{"name":"","type":"address","internalType":"address"}],"outputs":[{"name":"","type":"bool","internalType":"bool"}],"stateMutability":"view"},{"type":"event","name":"OwnershipTransferred","inputs":[{"name":"previousOwner","type":"address","indexed":true,"internalType":"address"},{"name":"newOwner","type":"address","indexed":true,"internalType":"address"}],"anonymous":false},{"type":"error","name":"OwnableInvalidOwner","inputs":[{"name":"owner","type":"address","internalType":"address"}]},{"type":"error","name":"OwnableUnauthorizedAccount","inputs":[{"name":"account","type":"address","internalType":"address"}]}],"bytecode":{"object":"0x6080604052600160025560006003556005600455600a6005556005600655600a600755601460085560016009556032600a5566470de4df820000600b55611388600c55612710600d553480156200005557600080fd5b5060405162001b4f38038062001b4f83398101604081905262000078916200016c565b33806200009f57604051631e4fbdf760e01b81526000600482015260240160405180910390fd5b620000aa81620000ff565b50601080546001600160a01b039586166001600160a01b0319918216179091556011805494861694821694909417909355600f805492851692841692909217909155600e8054919093169116179055620001c9565b600080546001600160a01b038381166001600160a01b0319831681178455604051919092169283917f8be0079c531659141344cd1fd0a4f28419497f9722a3daafe3b4186f6b6457e09190a35050565b80516001600160a01b03811681146200016757600080fd5b919050565b600080600080608085870312156200018357600080fd5b6200018e856200014f565b93506200019e602086016200014f565b9250620001ae604086016200014f565b9150620001be606086016200014f565b905092959194509250565b61197680620001d96000396000f3fe6080604052600436106101e35760003560e01c80639f8743f711610102578063c09cec7711610095578063cde8e5d311610064578063cde8e5d31461058f578063ce18d474146105a5578063d298b42c146105ba578063f2fde38b146105fa57600080fd5b8063c09cec771461051c578063c517b4a51461053c578063c55f18231461054f578063cde0f78f1461056f57600080fd5b8063b228d925116100d1578063b228d925146104a5578063b692c89d146104bb578063bd6184f0146104e6578063bdb4b8481461050657600080fd5b80639f8743f71461042d578063a182ee6b1461044f578063a2b0488f1461046f578063a69f886a1461048557600080fd5b80634792fc6e1161017a57806363e0f8c71161014957806363e0f8c7146103ce578063715018a6146103e45780638a19c8bc146103f95780638da5cb5b1461040f57600080fd5b80634792fc6e146103365780634d0230dd1461036e57806353b5f1f01461038e5780635ebaf1db146103ae57600080fd5b806337d6b90e116101b657806337d6b90e146102815780633a09b550146102a15780633c3ccc44146102b457806344fa7ed4146102c957600080fd5b8063150b7a02146101e857806318160ddd146102325780631a415e9d146102565780632bb4d7ec1461026c575b600080fd5b3480156101f457600080fd5b506102146102033660046115b1565b630a85bd0160e11b95945050505050565b6040516001600160e01b031990911681526020015b60405180910390f35b34801561023e57600080fd5b50610248600d5481565b604051908152602001610229565b34801561026257600080fd5b50610248600c5481565b61027f61027a366004611650565b61061a565b005b34801561028d57600080fd5b5061024861029c36600461166d565b6107cb565b61027f6102af366004611650565b6107fc565b3480156102c057600080fd5b5061027f6108e2565b3480156102d557600080fd5b506103126102e4366004611650565b6001600160a01b03908116600090815260136020526040902080546003820154600290920154909391921690565b6040805193845260208401929092526001600160a01b031690820152606001610229565b34801561034257600080fd5b50600e54610356906001600160a01b031681565b6040516001600160a01b039091168152602001610229565b34801561037a57600080fd5b50610248610389366004611650565b610914565b34801561039a57600080fd5b5061027f6103a93660046116a6565b61099b565b3480156103ba57600080fd5b50600f54610356906001600160a01b031681565b3480156103da57600080fd5b5061024860065481565b3480156103f057600080fd5b5061027f610a68565b34801561040557600080fd5b5061024860035481565b34801561041b57600080fd5b506000546001600160a01b0316610356565b34801561043957600080fd5b50610442610a7c565b6040516102299190611722565b34801561045b57600080fd5b5061027f61046a366004611743565b610b14565b34801561047b57600080fd5b5061024860055481565b34801561049157600080fd5b5061027f6104a0366004611771565b610b47565b3480156104b157600080fd5b5061024860075481565b3480156104c757600080fd5b5060008052601660205260008051602061192183398151915254610248565b3480156104f257600080fd5b50610248610501366004611771565b610bcd565b34801561051257600080fd5b50610248600b5481565b34801561052857600080fd5b50601054610356906001600160a01b031681565b61027f61054a366004611650565b610bee565b34801561055b57600080fd5b50601154610356906001600160a01b031681565b34801561057b57600080fd5b5061024861058a366004611650565b610c9a565b34801561059b57600080fd5b5061024860045481565b3480156105b157600080fd5b5061027f610d95565b3480156105c657600080fd5b506105ea6105d5366004611650565b60126020526000908152604090205460ff1681565b6040519015158152602001610229565b34801561060657600080fd5b5061027f610615366004611650565b610f63565b60035460021461062957600080fd5b600b5434146106725760405162461bcd60e51b815260206004820152601060248201526f125b90dbdc9c9958dd08105b5bdd5b9d60821b60448201526064015b60405180910390fd5b600b54336000908152601360205260409020600201546001600160a01b03161580156106a657506001600160a01b03821615155b156106b5576106b58233610fa1565b6106bd610fec565b5060006106c9826112b4565b600080805260156020527fa31547ce6245cdb9ecea19cf8c7eb9f5974025bb4075011409251ae855b30aed805492935083929091906107099084906117a0565b9091555050336000908152601360205260409020600201546001600160a01b03161561078e57600061073b84846112d0565b9050801561078c576001600160a01b0384166000908152601360209081526040808320838052600401909152812080548392906107799084906117a0565b90915550610789905081846117b3565b92505b505b61079881836117b3565b6000808052601660205260008051602061192183398151915280549091906107c19084906117a0565b9091555050505050565b6001600160a01b03808316600090815260136020908152604080832093851683526004909301905220545b92915050565b60035460011480156108165750600061081433610c9a565b115b6108565760405162461bcd60e51b81526020600482015260116024820152702437b6321037b91029ba30b5b29029a7a160791b6044820152606401610669565b600061086133610914565b90508034146108a55760405162461bcd60e51b815260206004820152601060248201526f1a5b98dbdc9c9958dd08185b5bdd5b9d60821b6044820152606401610669565b336000908152601360205260409020600201546001600160a01b03161580156106a657506001600160a01b038216156106b5576106b58233610fa1565b6108ea611324565b600260035411156108fa57600080fd5b60016003600082825461090d91906117a0565b9091555050565b60008061092083610c9a565b905060085481106109815760008160095461093b91906117c6565b9050600a5481111561094c5750600a545b6000606482600b5461095e91906117c6565b61096891906117f3565b905080600b5461097891906117b3565b95945050505050565b600854811015610995575050600b54919050565b50919050565b3360009081526013602090815260408083206001600160a01b0386168452600401909152902054811015610a075760405162461bcd60e51b81526020600482015260136024820152724e6f7420656e6f7567682062616c616e63657360681b6044820152606401610669565b604051600090339083156108fc0290849084818181858888f1935050505090508015610a63573360009081526013602090815260408083206001600160a01b0387168452600401909152812080548492906107c19084906117b3565b505050565b610a70611324565b610a7a6000611351565b565b6060600354600003610aad575060408051808201909152600a8152691519585b48149bdd5b9960b21b602082015290565b600354600103610ae0575060408051808201909152600e81526d15d85a5d1b1a5cdd08149bdd5b9960921b602082015290565b600354600203610b11575060408051808201909152600c81526b141d589b1a58c8149bdd5b9960a21b602082015290565b90565b610b1c611324565b6001600160a01b03919091166000908152601260205260409020805460ff1916911515919091179055565b610b4f611324565b60008052601660205260008051602061192183398151915254811015610b7457600080fd5b604051600090339083156108fc0290849084818181858888f1935050505090508015610bc957600080805260166020526000805160206119218339815191528054849290610bc39084906117b3565b90915550505b5050565b60018181548110610bdd57600080fd5b600091825260209091200154905081565b600354158015610c0d57503360009081526012602052604090205460ff165b610c525760405162461bcd60e51b81526020600482015260166024820152757265737472696374656420616363657373206f6e6c7960501b6044820152606401610669565b336000908152601360205260409020600201546001600160a01b0316158015610c8357506001600160a01b03811615155b15610c9257610c928133610fa1565b610bc9610fec565b6011546040516370a0823160e01b81526001600160a01b03838116600483015260009283929116906370a0823190602401602060405180830381865afa158015610ce8573d6000803e3d6000fd5b505050506040513d601f19601f82011682018060405250810190610d0c9190611807565b600f546040516348b4573960e11b81526001600160a01b03868116600483015292935060009290911690639168ae72906024016040805180830381865afa158015610d5b573d6000803e3d6000fd5b505050506040513d601f19601f82011682018060405250810190610d7f9190611820565b9150610d8d905081836117a0565b949350505050565b610d9d611324565b600d546002541015610de05760405162461bcd60e51b815260206004820152600c60248201526b6d696e74206f6e676f696e6760a01b6044820152606401610669565b600080805260156020527fa31547ce6245cdb9ecea19cf8c7eb9f5974025bb4075011409251ae855b30aed54600454909190610e1c90836117f3565b905060005b600454811015610a6357600081815260146020526040808220546001805480820182559084527fb10e2d527612073b26eecdfd717e6a320cf44b4afac2b0732d9fcbe2b7fa0cf60181905560105491516331a9108f60e11b8152600481018290529092916001600160a01b031690636352211e90602401602060405180830381865afa158015610eb5573d6000803e3d6000fd5b505050506040513d601f19601f82011682018060405250810190610ed99190611844565b90506001600160a01b03811615610f4e576040516000906001600160a01b0383169086156108fc0290879084818181858888f19350505050905080610f4c5760405162461bcd60e51b81526020600482015260096024820152681cd95b990819985a5b60ba1b6044820152606401610669565b505b50508080610f5b90611861565b915050610e21565b610f6b611324565b6001600160a01b038116610f9557604051631e4fbdf760e01b815260006004820152602401610669565b610f9e81611351565b50565b6001600160a01b0381811660009081526013602052604080822060020180546001600160a01b0319169386169384179055918152908120600301805460019290610bc39084906117a0565b6000600d546001610ffd91906117a0565b6002541061103a5760405162461bcd60e51b815260206004820152600a6024820152691b5a5b9d1959081bdd5d60b21b6044820152606401610669565b60075433600090815260136020526040902054111561108b5760405162461bcd60e51b815260206004820152600d60248201526c1b1a5b5a5d081c995858da1959609a1b6044820152606401610669565b6002546010546001600160a01b031663cd279c7c33836110aa816113a1565b6040518463ffffffff1660e01b81526004016110c89392919061187a565b600060405180830381600087803b1580156110e257600080fd5b505af11580156110f6573d6000803e3d6000fd5b5050505060016002600082825461110d91906117a0565b90915550503360009081526013602052604081208054600192906111329084906117a0565b90915550503360009081526013602090815260408220600190810180549182018155835291200181905560035415611184576000611171600d546113d2565b6000908152601460205260409020829055505b336000908152601360205260409020600201546001600160a01b03161561123257600e54336000908152601360205260409081902060020154905163507cd30f60e01b81526001600160a01b0391821660048201526103e8602482015291169063507cd30f906044016020604051808303816000875af115801561120c573d6000803e3d6000fd5b505050506040513d601f19601f8201168201806040525081019061123091906118a1565b505b600e54600c5460405163507cd30f60e01b815233600482015260248101919091526001600160a01b039091169063507cd30f906044016020604051808303816000875af1158015611287573d6000803e3d6000fd5b505050506040513d601f19601f820116820180604052508101906112ab91906118a1565b50600191505090565b60006064600554836112c691906117c6565b6107f691906117f3565b60006001600160a01b038316158015906112f2575060006112f084610c9a565b115b1561131c57600060646006548461130991906117c6565b61131391906117f3565b91506107f69050565b5060006107f6565b6000546001600160a01b03163314610a7a5760405163118cdaa760e01b8152336004820152602401610669565b600080546001600160a01b038381166001600160a01b0319831681178455604051919092169283917f8be0079c531659141344cd1fd0a4f28419497f9722a3daafe3b4186f6b6457e09190a35050565b60606113ac82611431565b6040516020016113bc91906118be565b6040516020818303038152906040529050919050565b6002546040805160208101929092526bffffffffffffffffffffffff193360601b1690820152426054820152600090819060740160408051601f198184030181529190528051602090910120905061142a83826118f6565b9392505050565b6060600061143e836114c4565b600101905060008167ffffffffffffffff81111561145e5761145e61190a565b6040519080825280601f01601f191660200182016040528015611488576020820181803683370190505b5090508181016020015b600019016f181899199a1a9b1b9c1cb0b131b232b360811b600a86061a8153600a850494508461149257509392505050565b60008072184f03e93ff9f4daa797ed6e38ed64bf6a1f0160401b83106115035772184f03e93ff9f4daa797ed6e38ed64bf6a1f0160401b830492506040015b6d04ee2d6d415b85acef8100000000831061152f576d04ee2d6d415b85acef8100000000830492506020015b662386f26fc10000831061154d57662386f26fc10000830492506010015b6305f5e1008310611565576305f5e100830492506008015b612710831061157957612710830492506004015b6064831061158b576064830492506002015b600a83106107f65760010192915050565b6001600160a01b0381168114610f9e57600080fd5b6000806000806000608086880312156115c957600080fd5b85356115d48161159c565b945060208601356115e48161159c565b935060408601359250606086013567ffffffffffffffff8082111561160857600080fd5b818801915088601f83011261161c57600080fd5b81358181111561162b57600080fd5b89602082850101111561163d57600080fd5b9699959850939650602001949392505050565b60006020828403121561166257600080fd5b813561142a8161159c565b6000806040838503121561168057600080fd5b823561168b8161159c565b9150602083013561169b8161159c565b809150509250929050565b600080604083850312156116b957600080fd5b82356116c48161159c565b946020939093013593505050565b60005b838110156116ed5781810151838201526020016116d5565b50506000910152565b6000815180845261170e8160208601602086016116d2565b601f01601f19169290920160200192915050565b60208152600061142a60208301846116f6565b8015158114610f9e57600080fd5b6000806040838503121561175657600080fd5b82356117618161159c565b9150602083013561169b81611735565b60006020828403121561178357600080fd5b5035919050565b634e487b7160e01b600052601160045260246000fd5b808201808211156107f6576107f661178a565b818103818111156107f6576107f661178a565b80820281158282048414176107f6576107f661178a565b634e487b7160e01b600052601260045260246000fd5b600082611802576118026117dd565b500490565b60006020828403121561181957600080fd5b5051919050565b6000806040838503121561183357600080fd5b505080516020909101519092909150565b60006020828403121561185657600080fd5b815161142a8161159c565b6000600182016118735761187361178a565b5060010190565b60018060a01b038416815282602082015260606040820152600061097860608301846116f6565b6000602082840312156118b357600080fd5b815161142a81611735565b602f60f81b8152600082516118da8160018501602087016116d2565b64173539b7b760d91b6001939091019283015250600601919050565b600082611905576119056117dd565b500690565b634e487b7160e01b600052604160045260246000fdfe0263c2b778d062355049effc2dece97bc6547ff8a88a3258daa512061c2153dda2646970667358221220e3bfaacb0fd43b2aa5de1232cbadc408567a03daeaa8903809a6980bcb8de38b64736f6c63430008140033","linkReferences":{}},"methodIdentifiers":{"DrawWinners(uint256)":"bd6184f0","_calculateDiscount(address)":"4d0230dd","bob()":"c09cec77","currentRound()":"8a19c8bc","getMinterBalances(address,address)":"37d6b90e","getMinterData(address)":"44fa7ed4","getRaised()":"b692c89d","getRound()":"9f8743f7","getTotalSOBOwned(address)":"cde0f78f","lottoPool()":"a2b0488f","maxMintPerWallet()":"b228d925","maxWinners()":"cde8e5d3","mintCost()":"bdb4b848","onERC721Received(address,address,uint256,bytes)":"150b7a02","owner()":"8da5cb5b","pubMint(address)":"2bb4d7ec","referalBonus()":"63e0f8c7","renounceOwnership()":"715018a6","rpBase()":"1a415e9d","rpCore()":"4792fc6e","setWlStat(address,bool)":"a182ee6b","skib()":"c55f1823","staker()":"5ebaf1db","startLuckyDraw()":"ce18d474","startNextRound()":"3c3ccc44","totalSupply()":"18160ddd","transferOwnership(address)":"f2fde38b","waitMint(address)":"3a09b550","withdrawRaised(uint256)":"a69f886a","withdrawUserBalances(address,uint256)":"53b5f1f0","wlMint(address)":"c517b4a5","wlZero(address)":"d298b42c"},"id":33}