{"abi":[{"type":"constructor","inputs":[{"name":"_nftAddress","type":"address","internalType":"address"},{"name":"SOBAddress","type":"address","internalType":"address"},{"name":"_sobStaker","type":"address","internalType":"address"},{"name":"_rpAdd","type":"address","internalType":"address"}],"stateMutability":"nonpayable"},{"type":"function","name":"DrawWinners","inputs":[{"name":"","type":"uint256","internalType":"uint256"}],"outputs":[{"name":"","type":"uint256","internalType":"uint256"}],"stateMutability":"view"},{"type":"function","name":"_calculateDiscount","inputs":[{"name":"user","type":"address","internalType":"address"}],"outputs":[{"name":"","type":"uint256","internalType":"uint256"}],"stateMutability":"view"},{"type":"function","name":"_execute","inputs":[{"name":"target","type":"address","internalType":"address"},{"name":"data","type":"bytes","internalType":"bytes"}],"outputs":[{"name":"","type":"bool","internalType":"bool"}],"stateMutability":"payable"},{"type":"function","name":"_nextIdToMint","inputs":[],"outputs":[{"name":"","type":"uint256","internalType":"uint256"}],"stateMutability":"view"},{"type":"function","name":"bob","inputs":[],"outputs":[{"name":"","type":"address","internalType":"contract BOTSOFBITCOIN"}],"stateMutability":"view"},{"type":"function","name":"currentRound","inputs":[],"outputs":[{"name":"","type":"uint256","internalType":"uint256"}],"stateMutability":"view"},{"type":"function","name":"getDrawPool","inputs":[],"outputs":[{"name":"","type":"uint256","internalType":"uint256"}],"stateMutability":"view"},{"type":"function","name":"getMinterBalances","inputs":[{"name":"user","type":"address","internalType":"address"},{"name":"token","type":"address","internalType":"address"}],"outputs":[{"name":"","type":"uint256","internalType":"uint256"}],"stateMutability":"view"},{"type":"function","name":"getMinterData","inputs":[{"name":"user","type":"address","internalType":"address"}],"outputs":[{"name":"","type":"uint256","internalType":"uint256"},{"name":"","type":"uint256","internalType":"uint256"},{"name":"","type":"uint256","internalType":"uint256"},{"name":"","type":"address","internalType":"address"}],"stateMutability":"view"},{"type":"function","name":"getRaised","inputs":[],"outputs":[{"name":"","type":"uint256","internalType":"uint256"}],"stateMutability":"view"},{"type":"function","name":"getRound","inputs":[],"outputs":[{"name":"","type":"string","internalType":"string"}],"stateMutability":"view"},{"type":"function","name":"getTotalSOBOwned","inputs":[{"name":"user","type":"address","internalType":"address"}],"outputs":[{"name":"","type":"uint256","internalType":"uint256"}],"stateMutability":"view"},{"type":"function","name":"lottoPool","inputs":[],"outputs":[{"name":"","type":"uint256","internalType":"uint256"}],"stateMutability":"view"},{"type":"function","name":"maxMintPerWallet","inputs":[],"outputs":[{"name":"","type":"uint256","internalType":"uint256"}],"stateMutability":"view"},{"type":"function","name":"maxWinners","inputs":[],"outputs":[{"name":"","type":"uint256","internalType":"uint256"}],"stateMutability":"view"},{"type":"function","name":"maxWlMint","inputs":[],"outputs":[{"name":"","type":"uint256","internalType":"uint256"}],"stateMutability":"view"},{"type":"function","name":"mintCost","inputs":[],"outputs":[{"name":"","type":"uint256","internalType":"uint256"}],"stateMutability":"view"},{"type":"function","name":"onERC721Received","inputs":[{"name":"operator","type":"address","internalType":"address"},{"name":"from","type":"address","internalType":"address"},{"name":"tokenId","type":"uint256","internalType":"uint256"},{"name":"data","type":"bytes","internalType":"bytes"}],"outputs":[{"name":"","type":"bytes4","internalType":"bytes4"}],"stateMutability":"pure"},{"type":"function","name":"owner","inputs":[],"outputs":[{"name":"","type":"address","internalType":"address"}],"stateMutability":"view"},{"type":"function","name":"pubMint","inputs":[{"name":"ref","type":"address","internalType":"address"}],"outputs":[],"stateMutability":"payable"},{"type":"function","name":"referalBonus","inputs":[],"outputs":[{"name":"","type":"uint256","internalType":"uint256"}],"stateMutability":"view"},{"type":"function","name":"renounceOwnership","inputs":[],"outputs":[],"stateMutability":"nonpayable"},{"type":"function","name":"rpBase","inputs":[],"outputs":[{"name":"","type":"uint256","internalType":"uint256"}],"stateMutability":"view"},{"type":"function","name":"rpCore","inputs":[],"outputs":[{"name":"","type":"address","internalType":"contract EventCore"}],"stateMutability":"view"},{"type":"function","name":"setStates","inputs":[{"name":"cost","type":"uint256","internalType":"uint256"},{"name":"_maxMintPerWallet","type":"uint256","internalType":"uint256"},{"name":"_maxWinners","type":"uint256","internalType":"uint256"},{"name":"_lottoPool","type":"uint256","internalType":"uint256"},{"name":"_maxWaitListMint","type":"uint256","internalType":"uint256"}],"outputs":[],"stateMutability":"nonpayable"},{"type":"function","name":"setWlStat","inputs":[{"name":"user","type":"address","internalType":"address"},{"name":"_state","type":"bool","internalType":"bool"},{"name":"_allowed","type":"uint256","internalType":"uint256"}],"outputs":[],"stateMutability":"nonpayable"},{"type":"function","name":"skib","inputs":[],"outputs":[{"name":"","type":"address","internalType":"contract SKIBBIDIESOFBITCOIN"}],"stateMutability":"view"},{"type":"function","name":"staker","inputs":[],"outputs":[{"name":"","type":"address","internalType":"contract StakingRP"}],"stateMutability":"view"},{"type":"function","name":"startLuckyDraw","inputs":[{"name":"winIds","type":"uint256[]","internalType":"uint256[]"}],"outputs":[],"stateMutability":"nonpayable"},{"type":"function","name":"startNextRound","inputs":[],"outputs":[],"stateMutability":"nonpayable"},{"type":"function","name":"totalSupply","inputs":[],"outputs":[{"name":"","type":"uint256","internalType":"uint256"}],"stateMutability":"view"},{"type":"function","name":"transferOwnership","inputs":[{"name":"newOwner","type":"address","internalType":"address"}],"outputs":[],"stateMutability":"nonpayable"},{"type":"function","name":"waitMint","inputs":[{"name":"ref","type":"address","internalType":"address"}],"outputs":[],"stateMutability":"payable"},{"type":"function","name":"withdrawRaised","inputs":[{"name":"amount","type":"uint256","internalType":"uint256"}],"outputs":[],"stateMutability":"nonpayable"},{"type":"function","name":"withdrawUserBalances","inputs":[{"name":"token","type":"address","internalType":"address"},{"name":"amount","type":"uint256","internalType":"uint256"}],"outputs":[],"stateMutability":"nonpayable"},{"type":"function","name":"wlMint","inputs":[{"name":"ref","type":"address","internalType":"address"}],"outputs":[],"stateMutability":"payable"},{"type":"function","name":"wlZero","inputs":[{"name":"","type":"address","internalType":"address"}],"outputs":[{"name":"state","type":"bool","internalType":"bool"},{"name":"amountAllowed","type":"uint256","internalType":"uint256"},{"name":"amountMinted","type":"uint256","internalType":"uint256"}],"stateMutability":"view"},{"type":"event","name":"OwnershipTransferred","inputs":[{"name":"previousOwner","type":"address","indexed":true,"internalType":"address"},{"name":"newOwner","type":"address","indexed":true,"internalType":"address"}],"anonymous":false},{"type":"error","name":"OwnableInvalidOwner","inputs":[{"name":"owner","type":"address","internalType":"address"}]},{"type":"error","name":"OwnableUnauthorizedAccount","inputs":[{"name":"account","type":"address","internalType":"address"}]}],"bytecode":{"object":"0x608060405260016002556000600355600a600455600a60055560056006556003600755600a60085560016009556001600a556032600b5566470de4df820000600c55611388600d55612710600e553480156200005a57600080fd5b5060405162001f9038038062001f908339810160408190526200007d9162000171565b3380620000a457604051631e4fbdf760e01b81526000600482015260240160405180910390fd5b620000af8162000104565b50601180546001600160a01b039586166001600160a01b03199182161790915560128054948616948216949094179093556010805492851692841692909217909155600f8054919093169116179055620001ce565b600080546001600160a01b038381166001600160a01b0319831681178455604051919092169283917f8be0079c531659141344cd1fd0a4f28419497f9722a3daafe3b4186f6b6457e09190a35050565b80516001600160a01b03811681146200016c57600080fd5b919050565b600080600080608085870312156200018857600080fd5b620001938562000154565b9350620001a36020860162000154565b9250620001b36040860162000154565b9150620001c36060860162000154565b905092959194509250565b611db280620001de6000396000f3fe60806040526004361061021a5760003560e01c8063726c44e111610123578063bd6184f0116100ab578063c55f18231161006f578063c55f18231461065f578063cde0f78f1461067f578063cde8e5d31461069f578063d298b42c146106b5578063f2fde38b1461071257600080fd5b8063bd6184f0146105d3578063bdb4b848146105f3578063c09cec7714610609578063c2817ec914610629578063c517b4a51461064c57600080fd5b8063a2b0488f116100f2578063a2b0488f1461051f578063a69f886a14610535578063b228d92514610555578063b692c89d1461056b578063ba7b61ff1461059657600080fd5b8063726c44e1146104b35780638a19c8bc146104c95780638da5cb5b146104df5780639f8743f7146104fd57600080fd5b80633a09b550116101a65780634d0230dd116101755780634d0230dd1461042857806353b5f1f0146104485780635ebaf1db1461046857806363e0f8c714610488578063715018a61461049e57600080fd5b80633a09b5501461034e5780633c3ccc441461036157806344fa7ed4146103765780634792fc6e146103f057600080fd5b80631a415e9d116101ed5780631a415e9d146102c55780632bb4d7ec146102db578063346f2fd8146102ee578063357bc7651461030e57806337d6b90e1461032e57600080fd5b8063046f138e1461021f5780631425d0a414610248578063150b7a021461026a57806318160ddd146102af575b600080fd5b34801561022b57600080fd5b5061023560025481565b6040519081526020015b60405180910390f35b34801561025457600080fd5b5061026861026336600461186c565b610732565b005b34801561027657600080fd5b506102966102853660046118f6565b630a85bd0160e11b95945050505050565b6040516001600160e01b0319909116815260200161023f565b3480156102bb57600080fd5b50610235600e5481565b3480156102d157600080fd5b50610235600d5481565b6102686102e9366004611969565b61079b565b3480156102fa57600080fd5b506102686103093660046119a3565b6109c3565b34801561031a57600080fd5b50610268610329366004611a61565b610b94565b34801561033a57600080fd5b50610235610349366004611a9c565b610bc0565b61026861035c366004611969565b610bf1565b34801561036d57600080fd5b50610268610d5c565b34801561038257600080fd5b506103c7610391366004611969565b6001600160a01b039081166000908152601460205260409020805460018201546004830154600390930154919490939190911690565b604080519485526020850193909352918301526001600160a01b0316606082015260800161023f565b3480156103fc57600080fd5b50600f54610410906001600160a01b031681565b6040516001600160a01b03909116815260200161023f565b34801561043457600080fd5b50610235610443366004611969565b610d8e565b34801561045457600080fd5b50610268610463366004611ad5565b610e05565b34801561047457600080fd5b50601054610410906001600160a01b031681565b34801561049457600080fd5b5061023560065481565b3480156104aa57600080fd5b50610268610ed2565b3480156104bf57600080fd5b5061023560075481565b3480156104d557600080fd5b5061023560035481565b3480156104eb57600080fd5b506000546001600160a01b0316610410565b34801561050957600080fd5b50610512610ee6565b60405161023f9190611b51565b34801561052b57600080fd5b5061023560055481565b34801561054157600080fd5b50610268610550366004611b64565b610f8e565b34801561056157600080fd5b5061023560085481565b34801561057757600080fd5b50600080526017602052600080516020611d5d83398151915254610235565b3480156105a257600080fd5b506000805260166020527f0263c2b778d062355049effc2dece97bc6547ff8a88a3258daa512061c2153dd54610235565b3480156105df57600080fd5b506102356105ee366004611b64565b611014565b3480156105ff57600080fd5b50610235600c5481565b34801561061557600080fd5b50601154610410906001600160a01b031681565b61063c610637366004611b7d565b611035565b604051901515815260200161023f565b61026861065a366004611969565b6110aa565b34801561066b57600080fd5b50601254610410906001600160a01b031681565b34801561068b57600080fd5b5061023561069a366004611969565b6111d0565b3480156106ab57600080fd5b5061023560045481565b3480156106c157600080fd5b506106f56106d0366004611969565b60136020526000908152604090208054600182015460029092015460ff909116919083565b60408051931515845260208401929092529082015260600161023f565b34801561071e57600080fd5b5061026861072d366004611969565b6112cb565b61073a611309565b6001600160a01b0392909216600081815260136020818152604080842060028101805483516060810185529815158952888501998a52928801928352959094529190529251815460ff19169015151781559251600190930192909255519055565b6003546002146107aa57600080fd5b600c5434146107f35760405162461bcd60e51b815260206004820152601060248201526f125b90dbdc9c9958dd08105b5bdd5b9d60821b60448201526064015b60405180910390fd5b6008543360009081526014602052604090205411156108445760405162461bcd60e51b815260206004820152600d60248201526c1b1a5b5a5d081c995858da1959609a1b60448201526064016107ea565b600c54336000908152601460205260409020600301546001600160a01b031615801561087857506001600160a01b03821615155b15610887576108878233611336565b61088f611381565b503360009081526014602052604081208054600192906108b0908490611be8565b90915550600090506108c1826115a3565b600080805260166020527f0263c2b778d062355049effc2dece97bc6547ff8a88a3258daa512061c2153dd80549293508392909190610901908490611be8565b9091555050336000908152601460205260409020600301546001600160a01b03161561098657600061093384846115bf565b90508015610984576001600160a01b038416600090815260146020908152604080832083805260050190915281208054839290610971908490611be8565b9091555061098190508184611bfb565b92505b505b6109908183611bfb565b60008080526017602052600080516020611d5d83398151915280549091906109b9908490611be8565b9091555050505050565b6109cb611309565b600e546002541015610a0e5760405162461bcd60e51b815260206004820152600c60248201526b6d696e74206f6e676f696e6760a01b60448201526064016107ea565b60045481511115610a1e57600080fd5b600080805260166020527f0263c2b778d062355049effc2dece97bc6547ff8a88a3258daa512061c2153dd54600454909190610a5a9083611c0e565b905060005b8351811015610b8e576000848281518110610a7c57610a7c611c30565b602090810291909101015160018054808201825560009182527fb10e2d527612073b26eecdfd717e6a320cf44b4afac2b0732d9fcbe2b7fa0cf6018290556011546040516331a9108f60e11b81526004810184905292935090916001600160a01b0390911690636352211e90602401602060405180830381865afa158015610b08573d6000803e3d6000fd5b505050506040513d601f19601f82011682018060405250810190610b2c9190611c46565b90506001600160a01b03811615610b79576001600160a01b038116600090815260146020908152604080832083805260050190915281208054869290610b73908490611be8565b90915550505b50508080610b8690611c63565b915050610a5f565b50505050565b610b9c611309565b601f8210610ba957600080fd5b600c94909455600892909255600455600555600755565b6001600160a01b03808316600090815260146020908152604080832093851683526005909301905220545b92915050565b6003546001148015610c0b57506000610c09336111d0565b115b610c4b5760405162461bcd60e51b81526020600482015260116024820152702437b6321037b91029ba30b5b29029a7a160791b60448201526064016107ea565b600754336000908152601460205260409020600101541115610c9f5760405162461bcd60e51b815260206004820152600d60248201526c1b1a5b5a5d081c995858da1959609a1b60448201526064016107ea565b6000610caa33610d8e565b9050803414610cee5760405162461bcd60e51b815260206004820152601060248201526f1a5b98dbdc9c9958dd08185b5bdd5b9d60821b60448201526064016107ea565b336000908152601460205260409020600301546001600160a01b0316158015610d1f57506001600160a01b03821615155b15610d2e57610d2e8233611336565b610d36611381565b5033600090815260146020526040812060019081018054919290916108b0908490611be8565b610d64611309565b60026003541115610d7457600080fd5b600160036000828254610d879190611be8565b9091555050565b600080610d9a836111d0565b90506009548110610dfb57600081600a54610db59190611c7c565b9050600b54811115610dc65750600b545b6000606482600c54610dd89190611c7c565b610de29190611c0e565b905080600c54610df29190611bfb565b95945050505050565b5050600c54919050565b3360009081526014602090815260408083206001600160a01b0386168452600501909152902054811015610e715760405162461bcd60e51b81526020600482015260136024820152724e6f7420656e6f7567682062616c616e63657360681b60448201526064016107ea565b604051600090339083156108fc0290849084818181858888f1935050505090508015610ecd573360009081526014602090815260408083206001600160a01b0387168452600501909152812080548492906109b9908490611bfb565b505050565b610eda611309565b610ee46000611613565b565b6060600354600003610f17575060408051808201909152600a8152691519585b48149bdd5b9960b21b602082015290565b600354600103610f4a575060408051808201909152600e81526d15d85a5d1b1a5cdd08149bdd5b9960921b602082015290565b600354600203610f7b575060408051808201909152600c81526b141d589b1a58c8149bdd5b9960a21b602082015290565b5060408051602081019091526000815290565b610f96611309565b600080526017602052600080516020611d5d83398151915254811015610fbb57600080fd5b604051600090339083156108fc0290849084818181858888f19350505050905080156110105760008080526017602052600080516020611d5d833981519152805484929061100a908490611bfb565b90915550505b5050565b6001818154811061102457600080fd5b600091825260209091200154905081565b600061103f611309565b6000846001600160a01b031634858560405161105c929190611c93565b60006040518083038185875af1925050503d8060008114611099576040519150601f19603f3d011682016040523d82523d6000602084013e61109e565b606091505b50909695505050505050565b3360009081526013602052604090205460ff166111025760405162461bcd60e51b81526020600482015260166024820152757265737472696374656420616363657373206f6e6c7960501b60448201526064016107ea565b61110b33611663565b336000908152601360205260409020600201541061115c5760405162461bcd60e51b815260206004820152600e60248201526d195e18d9595908185b1b1bddd95960921b60448201526064016107ea565b336000908152601460205260409020600301546001600160a01b031615801561118d57506001600160a01b03811615155b1561119c5761119c8133611336565b6111a4611381565b503360009081526013602052604081206002018054600192906111c8908490611be8565b909155505050565b6012546040516370a0823160e01b81526001600160a01b03838116600483015260009283929116906370a0823190602401602060405180830381865afa15801561121e573d6000803e3d6000fd5b505050506040513d601f19601f820116820180604052508101906112429190611ca3565b6010546040516348b4573960e11b81526001600160a01b03868116600483015292935060009290911690639168ae72906024016040805180830381865afa158015611291573d6000803e3d6000fd5b505050506040513d601f19601f820116820180604052508101906112b59190611cbc565b91506112c390508183611be8565b949350505050565b6112d3611309565b6001600160a01b0381166112fd57604051631e4fbdf760e01b8152600060048201526024016107ea565b61130681611613565b50565b6000546001600160a01b03163314610ee45760405163118cdaa760e01b81523360048201526024016107ea565b6001600160a01b0381811660009081526014602052604080822060030180546001600160a01b031916938616938417905591815290812060040180546001929061100a908490611be8565b6000600e5460016113929190611be8565b600254106113cf5760405162461bcd60e51b815260206004820152600a6024820152691b5a5b9d1959081bdd5d60b21b60448201526064016107ea565b6002546011546001600160a01b031663cd279c7c33836113ee816116ad565b6040518463ffffffff1660e01b815260040161140c93929190611ce0565b600060405180830381600087803b15801561142657600080fd5b505af115801561143a573d6000803e3d6000fd5b505050506001600260008282546114519190611be8565b90915550503360008181526014602090815260408220600281018054600181018255908452918320909101849055919052600301546001600160a01b03161561152157600f54336000908152601460205260409081902060030154905163507cd30f60e01b81526001600160a01b0391821660048201526103e8602482015291169063507cd30f906044016020604051808303816000875af11580156114fb573d6000803e3d6000fd5b505050506040513d601f19601f8201168201806040525081019061151f9190611d07565b505b600f54600d5460405163507cd30f60e01b815233600482015260248101919091526001600160a01b039091169063507cd30f906044016020604051808303816000875af1158015611576573d6000803e3d6000fd5b505050506040513d601f19601f8201168201806040525081019061159a9190611d07565b50600191505090565b60006064600554836115b59190611c7c565b610beb9190611c0e565b60006001600160a01b038316158015906115e1575060006115df846111d0565b115b1561160b5760006064600654846115f89190611c7c565b6116029190611c0e565b9150610beb9050565b506000610beb565b600080546001600160a01b038381166001600160a01b0319831681178455604051919092169283917f8be0079c531659141344cd1fd0a4f28419497f9722a3daafe3b4186f6b6457e09190a35050565b6001600160a01b038116600090815260136020526040812060010154810361168e5750612710919050565b506001600160a01b031660009081526013602052604090206001015490565b60606116b8826116de565b6040516020016116c89190611d24565b6040516020818303038152906040529050919050565b606060006116eb83611771565b600101905060008167ffffffffffffffff81111561170b5761170b61198d565b6040519080825280601f01601f191660200182016040528015611735576020820181803683370190505b5090508181016020015b600019016f181899199a1a9b1b9c1cb0b131b232b360811b600a86061a8153600a850494508461173f57509392505050565b60008072184f03e93ff9f4daa797ed6e38ed64bf6a1f0160401b83106117b05772184f03e93ff9f4daa797ed6e38ed64bf6a1f0160401b830492506040015b6d04ee2d6d415b85acef810000000083106117dc576d04ee2d6d415b85acef8100000000830492506020015b662386f26fc1000083106117fa57662386f26fc10000830492506010015b6305f5e1008310611812576305f5e100830492506008015b612710831061182657612710830492506004015b60648310611838576064830492506002015b600a8310610beb5760010192915050565b6001600160a01b038116811461130657600080fd5b801515811461130657600080fd5b60008060006060848603121561188157600080fd5b833561188c81611849565b9250602084013561189c8161185e565b929592945050506040919091013590565b60008083601f8401126118bf57600080fd5b50813567ffffffffffffffff8111156118d757600080fd5b6020830191508360208285010111156118ef57600080fd5b9250929050565b60008060008060006080868803121561190e57600080fd5b853561191981611849565b9450602086013561192981611849565b935060408601359250606086013567ffffffffffffffff81111561194c57600080fd5b611958888289016118ad565b969995985093965092949392505050565b60006020828403121561197b57600080fd5b813561198681611849565b9392505050565b634e487b7160e01b600052604160045260246000fd5b600060208083850312156119b657600080fd5b823567ffffffffffffffff808211156119ce57600080fd5b818501915085601f8301126119e257600080fd5b8135818111156119f4576119f461198d565b8060051b604051601f19603f83011681018181108582111715611a1957611a1961198d565b604052918252848201925083810185019188831115611a3757600080fd5b938501935b82851015611a5557843584529385019392850192611a3c565b98975050505050505050565b600080600080600060a08688031215611a7957600080fd5b505083359560208501359550604085013594606081013594506080013592509050565b60008060408385031215611aaf57600080fd5b8235611aba81611849565b91506020830135611aca81611849565b809150509250929050565b60008060408385031215611ae857600080fd5b8235611af381611849565b946020939093013593505050565b60005b83811015611b1c578181015183820152602001611b04565b50506000910152565b60008151808452611b3d816020860160208601611b01565b601f01601f19169290920160200192915050565b6020815260006119866020830184611b25565b600060208284031215611b7657600080fd5b5035919050565b600080600060408486031215611b9257600080fd5b8335611b9d81611849565b9250602084013567ffffffffffffffff811115611bb957600080fd5b611bc5868287016118ad565b9497909650939450505050565b634e487b7160e01b600052601160045260246000fd5b80820180821115610beb57610beb611bd2565b81810381811115610beb57610beb611bd2565b600082611c2b57634e487b7160e01b600052601260045260246000fd5b500490565b634e487b7160e01b600052603260045260246000fd5b600060208284031215611c5857600080fd5b815161198681611849565b600060018201611c7557611c75611bd2565b5060010190565b8082028115828204841417610beb57610beb611bd2565b8183823760009101908152919050565b600060208284031215611cb557600080fd5b5051919050565b60008060408385031215611ccf57600080fd5b505080516020909101519092909150565b60018060a01b0384168152826020820152606060408201526000610df26060830184611b25565b600060208284031215611d1957600080fd5b81516119868161185e565b602f60f81b815260008251611d40816001850160208701611b01565b64173539b7b760d91b600193909101928301525060060191905056fed840e16649f6b9a295d95876f4633d3a6b10b55e8162971cf78afd886d5ec89ba2646970667358221220bf3605239dc94f87b9a2b4e81e91172be177bb65b4301a666adda1deeb28014564736f6c63430008140033","linkReferences":{}},"methodIdentifiers":{"DrawWinners(uint256)":"bd6184f0","_calculateDiscount(address)":"4d0230dd","_execute(address,bytes)":"c2817ec9","_nextIdToMint()":"046f138e","bob()":"c09cec77","currentRound()":"8a19c8bc","getDrawPool()":"ba7b61ff","getMinterBalances(address,address)":"37d6b90e","getMinterData(address)":"44fa7ed4","getRaised()":"b692c89d","getRound()":"9f8743f7","getTotalSOBOwned(address)":"cde0f78f","lottoPool()":"a2b0488f","maxMintPerWallet()":"b228d925","maxWinners()":"cde8e5d3","maxWlMint()":"726c44e1","mintCost()":"bdb4b848","onERC721Received(address,address,uint256,bytes)":"150b7a02","owner()":"8da5cb5b","pubMint(address)":"2bb4d7ec","referalBonus()":"63e0f8c7","renounceOwnership()":"715018a6","rpBase()":"1a415e9d","rpCore()":"4792fc6e","setStates(uint256,uint256,uint256,uint256,uint256)":"357bc765","setWlStat(address,bool,uint256)":"1425d0a4","skib()":"c55f1823","staker()":"5ebaf1db","startLuckyDraw(uint256[])":"346f2fd8","startNextRound()":"3c3ccc44","totalSupply()":"18160ddd","transferOwnership(address)":"f2fde38b","waitMint(address)":"3a09b550","withdrawRaised(uint256)":"a69f886a","withdrawUserBalances(address,uint256)":"53b5f1f0","wlMint(address)":"c517b4a5","wlZero(address)":"d298b42c"},"id":56}