{"abi":[{"type":"constructor","inputs":[{"name":"_nftAddress","type":"address","internalType":"address"},{"name":"SOBAddress","type":"address","internalType":"address"},{"name":"_sobStaker","type":"address","internalType":"address"},{"name":"_rpAdd","type":"address","internalType":"address"}],"stateMutability":"nonpayable"},{"type":"function","name":"DrawWinners","inputs":[{"name":"","type":"uint256","internalType":"uint256"}],"outputs":[{"name":"","type":"uint256","internalType":"uint256"}],"stateMutability":"view"},{"type":"function","name":"_calculateDiscount","inputs":[{"name":"user","type":"address","internalType":"address"}],"outputs":[{"name":"","type":"uint256","internalType":"uint256"}],"stateMutability":"view"},{"type":"function","name":"_execute","inputs":[{"name":"target","type":"address","internalType":"address"},{"name":"data","type":"bytes","internalType":"bytes"}],"outputs":[{"name":"","type":"bool","internalType":"bool"}],"stateMutability":"payable"},{"type":"function","name":"_nextIdToMint","inputs":[],"outputs":[{"name":"","type":"uint256","internalType":"uint256"}],"stateMutability":"view"},{"type":"function","name":"bob","inputs":[],"outputs":[{"name":"","type":"address","internalType":"contract BOTSOFBITCOIN"}],"stateMutability":"view"},{"type":"function","name":"currentRound","inputs":[],"outputs":[{"name":"","type":"uint256","internalType":"uint256"}],"stateMutability":"view"},{"type":"function","name":"getDrawPool","inputs":[],"outputs":[{"name":"","type":"uint256","internalType":"uint256"}],"stateMutability":"view"},{"type":"function","name":"getMinterBalances","inputs":[{"name":"user","type":"address","internalType":"address"},{"name":"token","type":"address","internalType":"address"}],"outputs":[{"name":"","type":"uint256","internalType":"uint256"}],"stateMutability":"view"},{"type":"function","name":"getMinterData","inputs":[{"name":"user","type":"address","internalType":"address"}],"outputs":[{"name":"","type":"uint256","internalType":"uint256"},{"name":"","type":"uint256","internalType":"uint256"},{"name":"","type":"uint256","internalType":"uint256"},{"name":"","type":"address","internalType":"address"}],"stateMutability":"view"},{"type":"function","name":"getRaised","inputs":[],"outputs":[{"name":"","type":"uint256","internalType":"uint256"}],"stateMutability":"view"},{"type":"function","name":"getRound","inputs":[],"outputs":[{"name":"","type":"string","internalType":"string"}],"stateMutability":"view"},{"type":"function","name":"getTotalSOBOwned","inputs":[{"name":"user","type":"address","internalType":"address"}],"outputs":[{"name":"","type":"uint256","internalType":"uint256"}],"stateMutability":"view"},{"type":"function","name":"lottoPool","inputs":[],"outputs":[{"name":"","type":"uint256","internalType":"uint256"}],"stateMutability":"view"},{"type":"function","name":"maxMintPerWallet","inputs":[],"outputs":[{"name":"","type":"uint256","internalType":"uint256"}],"stateMutability":"view"},{"type":"function","name":"maxWinners","inputs":[],"outputs":[{"name":"","type":"uint256","internalType":"uint256"}],"stateMutability":"view"},{"type":"function","name":"maxWlMint","inputs":[],"outputs":[{"name":"","type":"uint256","internalType":"uint256"}],"stateMutability":"view"},{"type":"function","name":"mintCost","inputs":[],"outputs":[{"name":"","type":"uint256","internalType":"uint256"}],"stateMutability":"view"},{"type":"function","name":"onERC721Received","inputs":[{"name":"operator","type":"address","internalType":"address"},{"name":"from","type":"address","internalType":"address"},{"name":"tokenId","type":"uint256","internalType":"uint256"},{"name":"data","type":"bytes","internalType":"bytes"}],"outputs":[{"name":"","type":"bytes4","internalType":"bytes4"}],"stateMutability":"pure"},{"type":"function","name":"owner","inputs":[],"outputs":[{"name":"","type":"address","internalType":"address"}],"stateMutability":"view"},{"type":"function","name":"pubMint","inputs":[{"name":"ref","type":"address","internalType":"address"}],"outputs":[],"stateMutability":"payable"},{"type":"function","name":"referalBonus","inputs":[],"outputs":[{"name":"","type":"uint256","internalType":"uint256"}],"stateMutability":"view"},{"type":"function","name":"renounceOwnership","inputs":[],"outputs":[],"stateMutability":"nonpayable"},{"type":"function","name":"rpBase","inputs":[],"outputs":[{"name":"","type":"uint256","internalType":"uint256"}],"stateMutability":"view"},{"type":"function","name":"rpCore","inputs":[],"outputs":[{"name":"","type":"address","internalType":"contract EventCore"}],"stateMutability":"view"},{"type":"function","name":"setWlStat","inputs":[{"name":"user","type":"address","internalType":"address"},{"name":"state","type":"bool","internalType":"bool"}],"outputs":[],"stateMutability":"nonpayable"},{"type":"function","name":"skib","inputs":[],"outputs":[{"name":"","type":"address","internalType":"contract SKIBBIDIESOFBITCOIN"}],"stateMutability":"view"},{"type":"function","name":"staker","inputs":[],"outputs":[{"name":"","type":"address","internalType":"contract StakingRP"}],"stateMutability":"view"},{"type":"function","name":"startLuckyDraw","inputs":[],"outputs":[],"stateMutability":"nonpayable"},{"type":"function","name":"startNextRound","inputs":[],"outputs":[],"stateMutability":"nonpayable"},{"type":"function","name":"totalSupply","inputs":[],"outputs":[{"name":"","type":"uint256","internalType":"uint256"}],"stateMutability":"view"},{"type":"function","name":"transferOwnership","inputs":[{"name":"newOwner","type":"address","internalType":"address"}],"outputs":[],"stateMutability":"nonpayable"},{"type":"function","name":"waitMint","inputs":[{"name":"ref","type":"address","internalType":"address"}],"outputs":[],"stateMutability":"payable"},{"type":"function","name":"withdrawRaised","inputs":[{"name":"amount","type":"uint256","internalType":"uint256"}],"outputs":[],"stateMutability":"nonpayable"},{"type":"function","name":"withdrawUserBalances","inputs":[{"name":"token","type":"address","internalType":"address"},{"name":"amount","type":"uint256","internalType":"uint256"}],"outputs":[],"stateMutability":"nonpayable"},{"type":"function","name":"wlMint","inputs":[{"name":"ref","type":"address","internalType":"address"}],"outputs":[],"stateMutability":"payable"},{"type":"function","name":"wlZero","inputs":[{"name":"","type":"address","internalType":"address"}],"outputs":[{"name":"","type":"bool","internalType":"bool"}],"stateMutability":"view"},{"type":"event","name":"OwnershipTransferred","inputs":[{"name":"previousOwner","type":"address","indexed":true,"internalType":"address"},{"name":"newOwner","type":"address","indexed":true,"internalType":"address"}],"anonymous":false},{"type":"error","name":"OwnableInvalidOwner","inputs":[{"name":"owner","type":"address","internalType":"address"}]},{"type":"error","name":"OwnableUnauthorizedAccount","inputs":[{"name":"account","type":"address","internalType":"address"}]}],"bytecode":{"object":"0x608060405260016002556000600355600a600455600a60055560056006556003600755600a60085560016009556001600a556032600b5566470de4df820000600c55611388600d55612710600e553480156200005a57600080fd5b5060405162001d7a38038062001d7a8339810160408190526200007d9162000171565b3380620000a457604051631e4fbdf760e01b81526000600482015260240160405180910390fd5b620000af8162000104565b50601180546001600160a01b039586166001600160a01b03199182161790915560128054948616948216949094179093556010805492851692841692909217909155600f8054919093169116179055620001ce565b600080546001600160a01b038381166001600160a01b0319831681178455604051919092169283917f8be0079c531659141344cd1fd0a4f28419497f9722a3daafe3b4186f6b6457e09190a35050565b80516001600160a01b03811681146200016c57600080fd5b919050565b600080600080608085870312156200018857600080fd5b620001938562000154565b9350620001a36020860162000154565b9250620001b36040860162000154565b9150620001c36060860162000154565b905092959194509250565b611b9c80620001de6000396000f3fe60806040526004361061020f5760003560e01c80639f8743f711610118578063c09cec77116100a0578063cde0f78f1161006f578063cde0f78f14610634578063cde8e5d314610654578063ce18d4741461066a578063d298b42c1461067f578063f2fde38b146106af57600080fd5b8063c09cec77146105be578063c2817ec9146105de578063c517b4a514610601578063c55f18231461061457600080fd5b8063b228d925116100e7578063b228d9251461050a578063b692c89d14610520578063ba7b61ff1461054b578063bd6184f014610588578063bdb4b848146105a857600080fd5b80639f8743f714610492578063a182ee6b146104b4578063a2b0488f146104d4578063a69f886a146104ea57600080fd5b80634792fc6e1161019b57806363e0f8c71161016a57806363e0f8c71461041d578063715018a614610433578063726c44e1146104485780638a19c8bc1461045e5780638da5cb5b1461047457600080fd5b80634792fc6e146103855780634d0230dd146103bd57806353b5f1f0146103dd5780635ebaf1db146103fd57600080fd5b80632bb4d7ec116101e25780632bb4d7ec146102ae57806337d6b90e146102c35780633a09b550146102e35780633c3ccc44146102f657806344fa7ed41461030b57600080fd5b8063046f138e14610214578063150b7a021461023d57806318160ddd146102825780631a415e9d14610298575b600080fd5b34801561022057600080fd5b5061022a60025481565b6040519081526020015b60405180910390f35b34801561024957600080fd5b5061026961025836600461179e565b630a85bd0160e11b95945050505050565b6040516001600160e01b03199091168152602001610234565b34801561028e57600080fd5b5061022a600e5481565b3480156102a457600080fd5b5061022a600d5481565b6102c16102bc366004611811565b6106cf565b005b3480156102cf57600080fd5b5061022a6102de36600461182e565b6108f7565b6102c16102f1366004611811565b610928565b34801561030257600080fd5b506102c1610a93565b34801561031757600080fd5b5061035c610326366004611811565b6001600160a01b039081166000908152601460205260409020805460018201546004830154600390930154919490939190911690565b604080519485526020850193909352918301526001600160a01b03166060820152608001610234565b34801561039157600080fd5b50600f546103a5906001600160a01b031681565b6040516001600160a01b039091168152602001610234565b3480156103c957600080fd5b5061022a6103d8366004611811565b610ac5565b3480156103e957600080fd5b506102c16103f8366004611867565b610b4c565b34801561040957600080fd5b506010546103a5906001600160a01b031681565b34801561042957600080fd5b5061022a60065481565b34801561043f57600080fd5b506102c1610c19565b34801561045457600080fd5b5061022a60075481565b34801561046a57600080fd5b5061022a60035481565b34801561048057600080fd5b506000546001600160a01b03166103a5565b34801561049e57600080fd5b506104a7610c2d565b60405161023491906118e3565b3480156104c057600080fd5b506102c16104cf366004611904565b610cc5565b3480156104e057600080fd5b5061022a60055481565b3480156104f657600080fd5b506102c1610505366004611932565b610cf8565b34801561051657600080fd5b5061022a60085481565b34801561052c57600080fd5b50600080526017602052600080516020611b478339815191525461022a565b34801561055757600080fd5b506000805260166020527f0263c2b778d062355049effc2dece97bc6547ff8a88a3258daa512061c2153dd5461022a565b34801561059457600080fd5b5061022a6105a3366004611932565b610d7e565b3480156105b457600080fd5b5061022a600c5481565b3480156105ca57600080fd5b506011546103a5906001600160a01b031681565b6105f16105ec36600461194b565b610d9f565b6040519015158152602001610234565b6102c161060f366004611811565b610e14565b34801561062057600080fd5b506012546103a5906001600160a01b031681565b34801561064057600080fd5b5061022a61064f366004611811565b610eb4565b34801561066057600080fd5b5061022a60045481565b34801561067657600080fd5b506102c1610faf565b34801561068b57600080fd5b506105f161069a366004611811565b60136020526000908152604090205460ff1681565b3480156106bb57600080fd5b506102c16106ca366004611811565b61117d565b6003546002146106de57600080fd5b600c5434146107275760405162461bcd60e51b815260206004820152601060248201526f125b90dbdc9c9958dd08105b5bdd5b9d60821b60448201526064015b60405180910390fd5b6008543360009081526014602052604090205411156107785760405162461bcd60e51b815260206004820152600d60248201526c1b1a5b5a5d081c995858da1959609a1b604482015260640161071e565b600c54336000908152601460205260409020600301546001600160a01b03161580156107ac57506001600160a01b03821615155b156107bb576107bb82336111bb565b6107c3611206565b503360009081526014602052604081208054600192906107e49084906119b6565b90915550600090506107f582611458565b600080805260166020527f0263c2b778d062355049effc2dece97bc6547ff8a88a3258daa512061c2153dd805492935083929091906108359084906119b6565b9091555050336000908152601460205260409020600301546001600160a01b0316156108ba5760006108678484611474565b905080156108b8576001600160a01b0384166000908152601460209081526040808320838052600501909152812080548392906108a59084906119b6565b909155506108b5905081846119c9565b92505b505b6108c481836119c9565b60008080526017602052600080516020611b4783398151915280549091906108ed9084906119b6565b9091555050505050565b6001600160a01b03808316600090815260146020908152604080832093851683526005909301905220545b92915050565b60035460011480156109425750600061094033610eb4565b115b6109825760405162461bcd60e51b81526020600482015260116024820152702437b6321037b91029ba30b5b29029a7a160791b604482015260640161071e565b6007543360009081526014602052604090206001015411156109d65760405162461bcd60e51b815260206004820152600d60248201526c1b1a5b5a5d081c995858da1959609a1b604482015260640161071e565b60006109e133610ac5565b9050803414610a255760405162461bcd60e51b815260206004820152601060248201526f1a5b98dbdc9c9958dd08185b5bdd5b9d60821b604482015260640161071e565b336000908152601460205260409020600301546001600160a01b0316158015610a5657506001600160a01b03821615155b15610a6557610a6582336111bb565b610a6d611206565b5033600090815260146020526040812060019081018054919290916107e49084906119b6565b610a9b6114c8565b60026003541115610aab57600080fd5b600160036000828254610abe91906119b6565b9091555050565b600080610ad183610eb4565b90506009548110610b3257600081600a54610aec91906119dc565b9050600b54811115610afd5750600b545b6000606482600c54610b0f91906119dc565b610b199190611a09565b905080600c54610b2991906119c9565b95945050505050565b600954811015610b46575050600c54919050565b50919050565b3360009081526014602090815260408083206001600160a01b0386168452600501909152902054811015610bb85760405162461bcd60e51b81526020600482015260136024820152724e6f7420656e6f7567682062616c616e63657360681b604482015260640161071e565b604051600090339083156108fc0290849084818181858888f1935050505090508015610c14573360009081526014602090815260408083206001600160a01b0387168452600501909152812080548492906108ed9084906119c9565b505050565b610c216114c8565b610c2b60006114f5565b565b6060600354600003610c5e575060408051808201909152600a8152691519585b48149bdd5b9960b21b602082015290565b600354600103610c91575060408051808201909152600e81526d15d85a5d1b1a5cdd08149bdd5b9960921b602082015290565b600354600203610cc2575060408051808201909152600c81526b141d589b1a58c8149bdd5b9960a21b602082015290565b90565b610ccd6114c8565b6001600160a01b03919091166000908152601360205260409020805460ff1916911515919091179055565b610d006114c8565b600080526017602052600080516020611b4783398151915254811015610d2557600080fd5b604051600090339083156108fc0290849084818181858888f1935050505090508015610d7a5760008080526017602052600080516020611b478339815191528054849290610d749084906119c9565b90915550505b5050565b60018181548110610d8e57600080fd5b600091825260209091200154905081565b6000610da96114c8565b6000846001600160a01b0316348585604051610dc6929190611a1d565b60006040518083038185875af1925050503d8060008114610e03576040519150601f19603f3d011682016040523d82523d6000602084013e610e08565b606091505b50909695505050505050565b3360009081526013602052604090205460ff16610e6c5760405162461bcd60e51b81526020600482015260166024820152757265737472696374656420616363657373206f6e6c7960501b604482015260640161071e565b336000908152601460205260409020600301546001600160a01b0316158015610e9d57506001600160a01b03811615155b15610eac57610eac81336111bb565b610d7a611206565b6012546040516370a0823160e01b81526001600160a01b03838116600483015260009283929116906370a0823190602401602060405180830381865afa158015610f02573d6000803e3d6000fd5b505050506040513d601f19601f82011682018060405250810190610f269190611a2d565b6010546040516348b4573960e11b81526001600160a01b03868116600483015292935060009290911690639168ae72906024016040805180830381865afa158015610f75573d6000803e3d6000fd5b505050506040513d601f19601f82011682018060405250810190610f999190611a46565b9150610fa7905081836119b6565b949350505050565b610fb76114c8565b600e546002541015610ffa5760405162461bcd60e51b815260206004820152600c60248201526b6d696e74206f6e676f696e6760a01b604482015260640161071e565b600080805260166020527f0263c2b778d062355049effc2dece97bc6547ff8a88a3258daa512061c2153dd546004549091906110369083611a09565b905060005b600454811015610c1457600081815260156020526040808220546001805480820182559084527fb10e2d527612073b26eecdfd717e6a320cf44b4afac2b0732d9fcbe2b7fa0cf60181905560115491516331a9108f60e11b8152600481018290529092916001600160a01b031690636352211e90602401602060405180830381865afa1580156110cf573d6000803e3d6000fd5b505050506040513d601f19601f820116820180604052508101906110f39190611a6a565b90506001600160a01b03811615611168576040516000906001600160a01b0383169086156108fc0290879084818181858888f193505050509050806111665760405162461bcd60e51b81526020600482015260096024820152681cd95b990819985a5b60ba1b604482015260640161071e565b505b5050808061117590611a87565b91505061103b565b6111856114c8565b6001600160a01b0381166111af57604051631e4fbdf760e01b81526000600482015260240161071e565b6111b8816114f5565b50565b6001600160a01b0381811660009081526014602052604080822060030180546001600160a01b0319169386169384179055918152908120600401805460019290610d749084906119b6565b6000600e54600161121791906119b6565b600254106112545760405162461bcd60e51b815260206004820152600a6024820152691b5a5b9d1959081bdd5d60b21b604482015260640161071e565b6002546011546001600160a01b031663cd279c7c338361127381611545565b6040518463ffffffff1660e01b815260040161129193929190611aa0565b600060405180830381600087803b1580156112ab57600080fd5b505af11580156112bf573d6000803e3d6000fd5b505050506001600260008282546112d691906119b6565b90915550503360009081526014602090815260408220600201805460018101825590835291200181905560035415611328576000611315600e54611576565b6000908152601560205260409020829055505b336000908152601460205260409020600301546001600160a01b0316156113d657600f54336000908152601460205260409081902060030154905163507cd30f60e01b81526001600160a01b0391821660048201526103e8602482015291169063507cd30f906044016020604051808303816000875af11580156113b0573d6000803e3d6000fd5b505050506040513d601f19601f820116820180604052508101906113d49190611ac7565b505b600f54600d5460405163507cd30f60e01b815233600482015260248101919091526001600160a01b039091169063507cd30f906044016020604051808303816000875af115801561142b573d6000803e3d6000fd5b505050506040513d601f19601f8201168201806040525081019061144f9190611ac7565b50600191505090565b600060646005548361146a91906119dc565b6109229190611a09565b60006001600160a01b038316158015906114965750600061149484610eb4565b115b156114c05760006064600654846114ad91906119dc565b6114b79190611a09565b91506109229050565b506000610922565b6000546001600160a01b03163314610c2b5760405163118cdaa760e01b815233600482015260240161071e565b600080546001600160a01b038381166001600160a01b0319831681178455604051919092169283917f8be0079c531659141344cd1fd0a4f28419497f9722a3daafe3b4186f6b6457e09190a35050565b6060611550826115d5565b6040516020016115609190611ae4565b6040516020818303038152906040529050919050565b6002546040805160208101929092526bffffffffffffffffffffffff193360601b1690820152426054820152600090819060740160408051601f19818403018152919052805160209091012090506115ce8382611b1c565b9392505050565b606060006115e283611668565b600101905060008167ffffffffffffffff81111561160257611602611b30565b6040519080825280601f01601f19166020018201604052801561162c576020820181803683370190505b5090508181016020015b600019016f181899199a1a9b1b9c1cb0b131b232b360811b600a86061a8153600a850494508461163657509392505050565b60008072184f03e93ff9f4daa797ed6e38ed64bf6a1f0160401b83106116a75772184f03e93ff9f4daa797ed6e38ed64bf6a1f0160401b830492506040015b6d04ee2d6d415b85acef810000000083106116d3576d04ee2d6d415b85acef8100000000830492506020015b662386f26fc1000083106116f157662386f26fc10000830492506010015b6305f5e1008310611709576305f5e100830492506008015b612710831061171d57612710830492506004015b6064831061172f576064830492506002015b600a83106109225760010192915050565b6001600160a01b03811681146111b857600080fd5b60008083601f84011261176757600080fd5b50813567ffffffffffffffff81111561177f57600080fd5b60208301915083602082850101111561179757600080fd5b9250929050565b6000806000806000608086880312156117b657600080fd5b85356117c181611740565b945060208601356117d181611740565b935060408601359250606086013567ffffffffffffffff8111156117f457600080fd5b61180088828901611755565b969995985093965092949392505050565b60006020828403121561182357600080fd5b81356115ce81611740565b6000806040838503121561184157600080fd5b823561184c81611740565b9150602083013561185c81611740565b809150509250929050565b6000806040838503121561187a57600080fd5b823561188581611740565b946020939093013593505050565b60005b838110156118ae578181015183820152602001611896565b50506000910152565b600081518084526118cf816020860160208601611893565b601f01601f19169290920160200192915050565b6020815260006115ce60208301846118b7565b80151581146111b857600080fd5b6000806040838503121561191757600080fd5b823561192281611740565b9150602083013561185c816118f6565b60006020828403121561194457600080fd5b5035919050565b60008060006040848603121561196057600080fd5b833561196b81611740565b9250602084013567ffffffffffffffff81111561198757600080fd5b61199386828701611755565b9497909650939450505050565b634e487b7160e01b600052601160045260246000fd5b80820180821115610922576109226119a0565b81810381811115610922576109226119a0565b8082028115828204841417610922576109226119a0565b634e487b7160e01b600052601260045260246000fd5b600082611a1857611a186119f3565b500490565b8183823760009101908152919050565b600060208284031215611a3f57600080fd5b5051919050565b60008060408385031215611a5957600080fd5b505080516020909101519092909150565b600060208284031215611a7c57600080fd5b81516115ce81611740565b600060018201611a9957611a996119a0565b5060010190565b60018060a01b0384168152826020820152606060408201526000610b2960608301846118b7565b600060208284031215611ad957600080fd5b81516115ce816118f6565b602f60f81b815260008251611b00816001850160208701611893565b64173539b7b760d91b6001939091019283015250600601919050565b600082611b2b57611b2b6119f3565b500690565b634e487b7160e01b600052604160045260246000fdfed840e16649f6b9a295d95876f4633d3a6b10b55e8162971cf78afd886d5ec89ba2646970667358221220a5b4b2554cccc4bdedeb6202136b089a810b40cd4936c5315b6a1fa660d3fe3a64736f6c63430008140033","linkReferences":{}},"methodIdentifiers":{"DrawWinners(uint256)":"bd6184f0","_calculateDiscount(address)":"4d0230dd","_execute(address,bytes)":"c2817ec9","_nextIdToMint()":"046f138e","bob()":"c09cec77","currentRound()":"8a19c8bc","getDrawPool()":"ba7b61ff","getMinterBalances(address,address)":"37d6b90e","getMinterData(address)":"44fa7ed4","getRaised()":"b692c89d","getRound()":"9f8743f7","getTotalSOBOwned(address)":"cde0f78f","lottoPool()":"a2b0488f","maxMintPerWallet()":"b228d925","maxWinners()":"cde8e5d3","maxWlMint()":"726c44e1","mintCost()":"bdb4b848","onERC721Received(address,address,uint256,bytes)":"150b7a02","owner()":"8da5cb5b","pubMint(address)":"2bb4d7ec","referalBonus()":"63e0f8c7","renounceOwnership()":"715018a6","rpBase()":"1a415e9d","rpCore()":"4792fc6e","setWlStat(address,bool)":"a182ee6b","skib()":"c55f1823","staker()":"5ebaf1db","startLuckyDraw()":"ce18d474","startNextRound()":"3c3ccc44","totalSupply()":"18160ddd","transferOwnership(address)":"f2fde38b","waitMint(address)":"3a09b550","withdrawRaised(uint256)":"a69f886a","withdrawUserBalances(address,uint256)":"53b5f1f0","wlMint(address)":"c517b4a5","wlZero(address)":"d298b42c"},"id":55}