{"abi":[{"type":"constructor","inputs":[{"name":"_nftAddress","type":"address","internalType":"address"},{"name":"SOBAddress","type":"address","internalType":"address"},{"name":"_sobStaker","type":"address","internalType":"address"},{"name":"_rpAdd","type":"address","internalType":"address"}],"stateMutability":"nonpayable"},{"type":"function","name":"DrawWinners","inputs":[{"name":"","type":"uint256","internalType":"uint256"}],"outputs":[{"name":"","type":"uint256","internalType":"uint256"}],"stateMutability":"view"},{"type":"function","name":"_calculateDiscount","inputs":[{"name":"user","type":"address","internalType":"address"}],"outputs":[{"name":"","type":"uint256","internalType":"uint256"}],"stateMutability":"view"},{"type":"function","name":"_execute","inputs":[{"name":"target","type":"address","internalType":"address"},{"name":"data","type":"bytes","internalType":"bytes"}],"outputs":[{"name":"","type":"bool","internalType":"bool"}],"stateMutability":"payable"},{"type":"function","name":"bob","inputs":[],"outputs":[{"name":"","type":"address","internalType":"contract BOTSOFBITCOIN"}],"stateMutability":"view"},{"type":"function","name":"currentRound","inputs":[],"outputs":[{"name":"","type":"uint256","internalType":"uint256"}],"stateMutability":"view"},{"type":"function","name":"getDrawPool","inputs":[],"outputs":[{"name":"","type":"uint256","internalType":"uint256"}],"stateMutability":"view"},{"type":"function","name":"getMinterBalances","inputs":[{"name":"user","type":"address","internalType":"address"},{"name":"token","type":"address","internalType":"address"}],"outputs":[{"name":"","type":"uint256","internalType":"uint256"}],"stateMutability":"view"},{"type":"function","name":"getMinterData","inputs":[{"name":"user","type":"address","internalType":"address"}],"outputs":[{"name":"","type":"uint256","internalType":"uint256"},{"name":"","type":"uint256","internalType":"uint256"},{"name":"","type":"uint256","internalType":"uint256"},{"name":"","type":"address","internalType":"address"}],"stateMutability":"view"},{"type":"function","name":"getRaised","inputs":[],"outputs":[{"name":"","type":"uint256","internalType":"uint256"}],"stateMutability":"view"},{"type":"function","name":"getRound","inputs":[],"outputs":[{"name":"","type":"string","internalType":"string"}],"stateMutability":"view"},{"type":"function","name":"getTotalSOBOwned","inputs":[{"name":"user","type":"address","internalType":"address"}],"outputs":[{"name":"","type":"uint256","internalType":"uint256"}],"stateMutability":"view"},{"type":"function","name":"lottoPool","inputs":[],"outputs":[{"name":"","type":"uint256","internalType":"uint256"}],"stateMutability":"view"},{"type":"function","name":"maxMintPerWallet","inputs":[],"outputs":[{"name":"","type":"uint256","internalType":"uint256"}],"stateMutability":"view"},{"type":"function","name":"maxWinners","inputs":[],"outputs":[{"name":"","type":"uint256","internalType":"uint256"}],"stateMutability":"view"},{"type":"function","name":"maxWlMint","inputs":[],"outputs":[{"name":"","type":"uint256","internalType":"uint256"}],"stateMutability":"view"},{"type":"function","name":"mintCost","inputs":[],"outputs":[{"name":"","type":"uint256","internalType":"uint256"}],"stateMutability":"view"},{"type":"function","name":"onERC721Received","inputs":[{"name":"operator","type":"address","internalType":"address"},{"name":"from","type":"address","internalType":"address"},{"name":"tokenId","type":"uint256","internalType":"uint256"},{"name":"data","type":"bytes","internalType":"bytes"}],"outputs":[{"name":"","type":"bytes4","internalType":"bytes4"}],"stateMutability":"pure"},{"type":"function","name":"owner","inputs":[],"outputs":[{"name":"","type":"address","internalType":"address"}],"stateMutability":"view"},{"type":"function","name":"pubMint","inputs":[{"name":"ref","type":"address","internalType":"address"}],"outputs":[],"stateMutability":"payable"},{"type":"function","name":"referalBonus","inputs":[],"outputs":[{"name":"","type":"uint256","internalType":"uint256"}],"stateMutability":"view"},{"type":"function","name":"renounceOwnership","inputs":[],"outputs":[],"stateMutability":"nonpayable"},{"type":"function","name":"rpBase","inputs":[],"outputs":[{"name":"","type":"uint256","internalType":"uint256"}],"stateMutability":"view"},{"type":"function","name":"rpCore","inputs":[],"outputs":[{"name":"","type":"address","internalType":"contract EventCore"}],"stateMutability":"view"},{"type":"function","name":"setWlStat","inputs":[{"name":"user","type":"address","internalType":"address"},{"name":"state","type":"bool","internalType":"bool"}],"outputs":[],"stateMutability":"nonpayable"},{"type":"function","name":"skib","inputs":[],"outputs":[{"name":"","type":"address","internalType":"contract SKIBBIDIESOFBITCOIN"}],"stateMutability":"view"},{"type":"function","name":"staker","inputs":[],"outputs":[{"name":"","type":"address","internalType":"contract StakingRP"}],"stateMutability":"view"},{"type":"function","name":"startLuckyDraw","inputs":[],"outputs":[],"stateMutability":"nonpayable"},{"type":"function","name":"startNextRound","inputs":[],"outputs":[],"stateMutability":"nonpayable"},{"type":"function","name":"totalSupply","inputs":[],"outputs":[{"name":"","type":"uint256","internalType":"uint256"}],"stateMutability":"view"},{"type":"function","name":"transferOwnership","inputs":[{"name":"newOwner","type":"address","internalType":"address"}],"outputs":[],"stateMutability":"nonpayable"},{"type":"function","name":"waitMint","inputs":[{"name":"ref","type":"address","internalType":"address"}],"outputs":[],"stateMutability":"payable"},{"type":"function","name":"withdrawRaised","inputs":[{"name":"amount","type":"uint256","internalType":"uint256"}],"outputs":[],"stateMutability":"nonpayable"},{"type":"function","name":"withdrawUserBalances","inputs":[{"name":"token","type":"address","internalType":"address"},{"name":"amount","type":"uint256","internalType":"uint256"}],"outputs":[],"stateMutability":"nonpayable"},{"type":"function","name":"wlMint","inputs":[{"name":"ref","type":"address","internalType":"address"}],"outputs":[],"stateMutability":"payable"},{"type":"function","name":"wlZero","inputs":[{"name":"","type":"address","internalType":"address"}],"outputs":[{"name":"","type":"bool","internalType":"bool"}],"stateMutability":"view"},{"type":"event","name":"OwnershipTransferred","inputs":[{"name":"previousOwner","type":"address","indexed":true,"internalType":"address"},{"name":"newOwner","type":"address","indexed":true,"internalType":"address"}],"anonymous":false},{"type":"error","name":"OwnableInvalidOwner","inputs":[{"name":"owner","type":"address","internalType":"address"}]},{"type":"error","name":"OwnableUnauthorizedAccount","inputs":[{"name":"account","type":"address","internalType":"address"}]}],"bytecode":{"object":"0x6080604052600160025560006003556005600455600a60055560056006556003600755600a60085560016009556001600a556032600b5566470de4df820000600c55611388600d55612710600e553480156200005a57600080fd5b5060405162001d5938038062001d598339810160408190526200007d9162000171565b3380620000a457604051631e4fbdf760e01b81526000600482015260240160405180910390fd5b620000af8162000104565b50601180546001600160a01b039586166001600160a01b03199182161790915560128054948616948216949094179093556010805492851692841692909217909155600f8054919093169116179055620001ce565b600080546001600160a01b038381166001600160a01b0319831681178455604051919092169283917f8be0079c531659141344cd1fd0a4f28419497f9722a3daafe3b4186f6b6457e09190a35050565b80516001600160a01b03811681146200016c57600080fd5b919050565b600080600080608085870312156200018857600080fd5b620001938562000154565b9350620001a36020860162000154565b9250620001b36040860162000154565b9150620001c36060860162000154565b905092959194509250565b611b7b80620001de6000396000f3fe6080604052600436106102045760003560e01c80639f8743f711610118578063c09cec77116100a0578063cde0f78f1161006f578063cde0f78f14610613578063cde8e5d314610633578063ce18d47414610649578063d298b42c1461065e578063f2fde38b1461068e57600080fd5b8063c09cec771461059d578063c2817ec9146105bd578063c517b4a5146105e0578063c55f1823146105f357600080fd5b8063b228d925116100e7578063b228d925146104e9578063b692c89d146104ff578063ba7b61ff1461052a578063bd6184f014610567578063bdb4b8481461058757600080fd5b80639f8743f714610471578063a182ee6b14610493578063a2b0488f146104b3578063a69f886a146104c957600080fd5b80634792fc6e1161019b57806363e0f8c71161016a57806363e0f8c7146103fc578063715018a614610412578063726c44e1146104275780638a19c8bc1461043d5780638da5cb5b1461045357600080fd5b80634792fc6e146103645780634d0230dd1461039c57806353b5f1f0146103bc5780635ebaf1db146103dc57600080fd5b806337d6b90e116101d757806337d6b90e146102a25780633a09b550146102c25780633c3ccc44146102d557806344fa7ed4146102ea57600080fd5b8063150b7a021461020957806318160ddd146102535780631a415e9d146102775780632bb4d7ec1461028d575b600080fd5b34801561021557600080fd5b5061023561022436600461177d565b630a85bd0160e11b95945050505050565b6040516001600160e01b031990911681526020015b60405180910390f35b34801561025f57600080fd5b50610269600e5481565b60405190815260200161024a565b34801561028357600080fd5b50610269600d5481565b6102a061029b3660046117f0565b6106ae565b005b3480156102ae57600080fd5b506102696102bd36600461180d565b6108d6565b6102a06102d03660046117f0565b610907565b3480156102e157600080fd5b506102a0610a72565b3480156102f657600080fd5b5061033b6103053660046117f0565b6001600160a01b039081166000908152601460205260409020805460018201546004830154600390930154919490939190911690565b604080519485526020850193909352918301526001600160a01b0316606082015260800161024a565b34801561037057600080fd5b50600f54610384906001600160a01b031681565b6040516001600160a01b03909116815260200161024a565b3480156103a857600080fd5b506102696103b73660046117f0565b610aa4565b3480156103c857600080fd5b506102a06103d7366004611846565b610b2b565b3480156103e857600080fd5b50601054610384906001600160a01b031681565b34801561040857600080fd5b5061026960065481565b34801561041e57600080fd5b506102a0610bf8565b34801561043357600080fd5b5061026960075481565b34801561044957600080fd5b5061026960035481565b34801561045f57600080fd5b506000546001600160a01b0316610384565b34801561047d57600080fd5b50610486610c0c565b60405161024a91906118c2565b34801561049f57600080fd5b506102a06104ae3660046118e3565b610ca4565b3480156104bf57600080fd5b5061026960055481565b3480156104d557600080fd5b506102a06104e4366004611911565b610cd7565b3480156104f557600080fd5b5061026960085481565b34801561050b57600080fd5b50600080526017602052600080516020611b2683398151915254610269565b34801561053657600080fd5b506000805260166020527f0263c2b778d062355049effc2dece97bc6547ff8a88a3258daa512061c2153dd54610269565b34801561057357600080fd5b50610269610582366004611911565b610d5d565b34801561059357600080fd5b50610269600c5481565b3480156105a957600080fd5b50601154610384906001600160a01b031681565b6105d06105cb36600461192a565b610d7e565b604051901515815260200161024a565b6102a06105ee3660046117f0565b610df3565b3480156105ff57600080fd5b50601254610384906001600160a01b031681565b34801561061f57600080fd5b5061026961062e3660046117f0565b610e93565b34801561063f57600080fd5b5061026960045481565b34801561065557600080fd5b506102a0610f8e565b34801561066a57600080fd5b506105d06106793660046117f0565b60136020526000908152604090205460ff1681565b34801561069a57600080fd5b506102a06106a93660046117f0565b61115c565b6003546002146106bd57600080fd5b600c5434146107065760405162461bcd60e51b815260206004820152601060248201526f125b90dbdc9c9958dd08105b5bdd5b9d60821b60448201526064015b60405180910390fd5b6008543360009081526014602052604090205411156107575760405162461bcd60e51b815260206004820152600d60248201526c1b1a5b5a5d081c995858da1959609a1b60448201526064016106fd565b600c54336000908152601460205260409020600301546001600160a01b031615801561078b57506001600160a01b03821615155b1561079a5761079a823361119a565b6107a26111e5565b503360009081526014602052604081208054600192906107c3908490611995565b90915550600090506107d482611437565b600080805260166020527f0263c2b778d062355049effc2dece97bc6547ff8a88a3258daa512061c2153dd80549293508392909190610814908490611995565b9091555050336000908152601460205260409020600301546001600160a01b0316156108995760006108468484611453565b90508015610897576001600160a01b038416600090815260146020908152604080832083805260050190915281208054839290610884908490611995565b90915550610894905081846119a8565b92505b505b6108a381836119a8565b60008080526017602052600080516020611b2683398151915280549091906108cc908490611995565b9091555050505050565b6001600160a01b03808316600090815260146020908152604080832093851683526005909301905220545b92915050565b60035460011480156109215750600061091f33610e93565b115b6109615760405162461bcd60e51b81526020600482015260116024820152702437b6321037b91029ba30b5b29029a7a160791b60448201526064016106fd565b6007543360009081526014602052604090206001015411156109b55760405162461bcd60e51b815260206004820152600d60248201526c1b1a5b5a5d081c995858da1959609a1b60448201526064016106fd565b60006109c033610aa4565b9050803414610a045760405162461bcd60e51b815260206004820152601060248201526f1a5b98dbdc9c9958dd08185b5bdd5b9d60821b60448201526064016106fd565b336000908152601460205260409020600301546001600160a01b0316158015610a3557506001600160a01b03821615155b15610a4457610a44823361119a565b610a4c6111e5565b5033600090815260146020526040812060019081018054919290916107c3908490611995565b610a7a6114a7565b60026003541115610a8a57600080fd5b600160036000828254610a9d9190611995565b9091555050565b600080610ab083610e93565b90506009548110610b1157600081600a54610acb91906119bb565b9050600b54811115610adc5750600b545b6000606482600c54610aee91906119bb565b610af891906119e8565b905080600c54610b0891906119a8565b95945050505050565b600954811015610b25575050600c54919050565b50919050565b3360009081526014602090815260408083206001600160a01b0386168452600501909152902054811015610b975760405162461bcd60e51b81526020600482015260136024820152724e6f7420656e6f7567682062616c616e63657360681b60448201526064016106fd565b604051600090339083156108fc0290849084818181858888f1935050505090508015610bf3573360009081526014602090815260408083206001600160a01b0387168452600501909152812080548492906108cc9084906119a8565b505050565b610c006114a7565b610c0a60006114d4565b565b6060600354600003610c3d575060408051808201909152600a8152691519585b48149bdd5b9960b21b602082015290565b600354600103610c70575060408051808201909152600e81526d15d85a5d1b1a5cdd08149bdd5b9960921b602082015290565b600354600203610ca1575060408051808201909152600c81526b141d589b1a58c8149bdd5b9960a21b602082015290565b90565b610cac6114a7565b6001600160a01b03919091166000908152601360205260409020805460ff1916911515919091179055565b610cdf6114a7565b600080526017602052600080516020611b2683398151915254811015610d0457600080fd5b604051600090339083156108fc0290849084818181858888f1935050505090508015610d595760008080526017602052600080516020611b268339815191528054849290610d539084906119a8565b90915550505b5050565b60018181548110610d6d57600080fd5b600091825260209091200154905081565b6000610d886114a7565b6000846001600160a01b0316348585604051610da59291906119fc565b60006040518083038185875af1925050503d8060008114610de2576040519150601f19603f3d011682016040523d82523d6000602084013e610de7565b606091505b50909695505050505050565b3360009081526013602052604090205460ff16610e4b5760405162461bcd60e51b81526020600482015260166024820152757265737472696374656420616363657373206f6e6c7960501b60448201526064016106fd565b336000908152601460205260409020600301546001600160a01b0316158015610e7c57506001600160a01b03811615155b15610e8b57610e8b813361119a565b610d596111e5565b6012546040516370a0823160e01b81526001600160a01b03838116600483015260009283929116906370a0823190602401602060405180830381865afa158015610ee1573d6000803e3d6000fd5b505050506040513d601f19601f82011682018060405250810190610f059190611a0c565b6010546040516348b4573960e11b81526001600160a01b03868116600483015292935060009290911690639168ae72906024016040805180830381865afa158015610f54573d6000803e3d6000fd5b505050506040513d601f19601f82011682018060405250810190610f789190611a25565b9150610f8690508183611995565b949350505050565b610f966114a7565b600e546002541015610fd95760405162461bcd60e51b815260206004820152600c60248201526b6d696e74206f6e676f696e6760a01b60448201526064016106fd565b600080805260166020527f0263c2b778d062355049effc2dece97bc6547ff8a88a3258daa512061c2153dd5460045490919061101590836119e8565b905060005b600454811015610bf357600081815260156020526040808220546001805480820182559084527fb10e2d527612073b26eecdfd717e6a320cf44b4afac2b0732d9fcbe2b7fa0cf60181905560115491516331a9108f60e11b8152600481018290529092916001600160a01b031690636352211e90602401602060405180830381865afa1580156110ae573d6000803e3d6000fd5b505050506040513d601f19601f820116820180604052508101906110d29190611a49565b90506001600160a01b03811615611147576040516000906001600160a01b0383169086156108fc0290879084818181858888f193505050509050806111455760405162461bcd60e51b81526020600482015260096024820152681cd95b990819985a5b60ba1b60448201526064016106fd565b505b5050808061115490611a66565b91505061101a565b6111646114a7565b6001600160a01b03811661118e57604051631e4fbdf760e01b8152600060048201526024016106fd565b611197816114d4565b50565b6001600160a01b0381811660009081526014602052604080822060030180546001600160a01b0319169386169384179055918152908120600401805460019290610d53908490611995565b6000600e5460016111f69190611995565b600254106112335760405162461bcd60e51b815260206004820152600a6024820152691b5a5b9d1959081bdd5d60b21b60448201526064016106fd565b6002546011546001600160a01b031663cd279c7c338361125281611524565b6040518463ffffffff1660e01b815260040161127093929190611a7f565b600060405180830381600087803b15801561128a57600080fd5b505af115801561129e573d6000803e3d6000fd5b505050506001600260008282546112b59190611995565b909155505033600090815260146020908152604082206002018054600181018255908352912001819055600354156113075760006112f4600e54611555565b6000908152601560205260409020829055505b336000908152601460205260409020600301546001600160a01b0316156113b557600f54336000908152601460205260409081902060030154905163507cd30f60e01b81526001600160a01b0391821660048201526103e8602482015291169063507cd30f906044016020604051808303816000875af115801561138f573d6000803e3d6000fd5b505050506040513d601f19601f820116820180604052508101906113b39190611aa6565b505b600f54600d5460405163507cd30f60e01b815233600482015260248101919091526001600160a01b039091169063507cd30f906044016020604051808303816000875af115801561140a573d6000803e3d6000fd5b505050506040513d601f19601f8201168201806040525081019061142e9190611aa6565b50600191505090565b600060646005548361144991906119bb565b61090191906119e8565b60006001600160a01b038316158015906114755750600061147384610e93565b115b1561149f57600060646006548461148c91906119bb565b61149691906119e8565b91506109019050565b506000610901565b6000546001600160a01b03163314610c0a5760405163118cdaa760e01b81523360048201526024016106fd565b600080546001600160a01b038381166001600160a01b0319831681178455604051919092169283917f8be0079c531659141344cd1fd0a4f28419497f9722a3daafe3b4186f6b6457e09190a35050565b606061152f826115b4565b60405160200161153f9190611ac3565b6040516020818303038152906040529050919050565b6002546040805160208101929092526bffffffffffffffffffffffff193360601b1690820152426054820152600090819060740160408051601f19818403018152919052805160209091012090506115ad8382611afb565b9392505050565b606060006115c183611647565b600101905060008167ffffffffffffffff8111156115e1576115e1611b0f565b6040519080825280601f01601f19166020018201604052801561160b576020820181803683370190505b5090508181016020015b600019016f181899199a1a9b1b9c1cb0b131b232b360811b600a86061a8153600a850494508461161557509392505050565b60008072184f03e93ff9f4daa797ed6e38ed64bf6a1f0160401b83106116865772184f03e93ff9f4daa797ed6e38ed64bf6a1f0160401b830492506040015b6d04ee2d6d415b85acef810000000083106116b2576d04ee2d6d415b85acef8100000000830492506020015b662386f26fc1000083106116d057662386f26fc10000830492506010015b6305f5e10083106116e8576305f5e100830492506008015b61271083106116fc57612710830492506004015b6064831061170e576064830492506002015b600a83106109015760010192915050565b6001600160a01b038116811461119757600080fd5b60008083601f84011261174657600080fd5b50813567ffffffffffffffff81111561175e57600080fd5b60208301915083602082850101111561177657600080fd5b9250929050565b60008060008060006080868803121561179557600080fd5b85356117a08161171f565b945060208601356117b08161171f565b935060408601359250606086013567ffffffffffffffff8111156117d357600080fd5b6117df88828901611734565b969995985093965092949392505050565b60006020828403121561180257600080fd5b81356115ad8161171f565b6000806040838503121561182057600080fd5b823561182b8161171f565b9150602083013561183b8161171f565b809150509250929050565b6000806040838503121561185957600080fd5b82356118648161171f565b946020939093013593505050565b60005b8381101561188d578181015183820152602001611875565b50506000910152565b600081518084526118ae816020860160208601611872565b601f01601f19169290920160200192915050565b6020815260006115ad6020830184611896565b801515811461119757600080fd5b600080604083850312156118f657600080fd5b82356119018161171f565b9150602083013561183b816118d5565b60006020828403121561192357600080fd5b5035919050565b60008060006040848603121561193f57600080fd5b833561194a8161171f565b9250602084013567ffffffffffffffff81111561196657600080fd5b61197286828701611734565b9497909650939450505050565b634e487b7160e01b600052601160045260246000fd5b808201808211156109015761090161197f565b818103818111156109015761090161197f565b80820281158282048414176109015761090161197f565b634e487b7160e01b600052601260045260246000fd5b6000826119f7576119f76119d2565b500490565b8183823760009101908152919050565b600060208284031215611a1e57600080fd5b5051919050565b60008060408385031215611a3857600080fd5b505080516020909101519092909150565b600060208284031215611a5b57600080fd5b81516115ad8161171f565b600060018201611a7857611a7861197f565b5060010190565b60018060a01b0384168152826020820152606060408201526000610b086060830184611896565b600060208284031215611ab857600080fd5b81516115ad816118d5565b602f60f81b815260008251611adf816001850160208701611872565b64173539b7b760d91b6001939091019283015250600601919050565b600082611b0a57611b0a6119d2565b500690565b634e487b7160e01b600052604160045260246000fdfed840e16649f6b9a295d95876f4633d3a6b10b55e8162971cf78afd886d5ec89ba264697066735822122079b275a136d2621edc79997c3e368dca069bca2a35fe8d1fb56e8d12dae8d5e864736f6c63430008140033","linkReferences":{}},"methodIdentifiers":{"DrawWinners(uint256)":"bd6184f0","_calculateDiscount(address)":"4d0230dd","_execute(address,bytes)":"c2817ec9","bob()":"c09cec77","currentRound()":"8a19c8bc","getDrawPool()":"ba7b61ff","getMinterBalances(address,address)":"37d6b90e","getMinterData(address)":"44fa7ed4","getRaised()":"b692c89d","getRound()":"9f8743f7","getTotalSOBOwned(address)":"cde0f78f","lottoPool()":"a2b0488f","maxMintPerWallet()":"b228d925","maxWinners()":"cde8e5d3","maxWlMint()":"726c44e1","mintCost()":"bdb4b848","onERC721Received(address,address,uint256,bytes)":"150b7a02","owner()":"8da5cb5b","pubMint(address)":"2bb4d7ec","referalBonus()":"63e0f8c7","renounceOwnership()":"715018a6","rpBase()":"1a415e9d","rpCore()":"4792fc6e","setWlStat(address,bool)":"a182ee6b","skib()":"c55f1823","staker()":"5ebaf1db","startLuckyDraw()":"ce18d474","startNextRound()":"3c3ccc44","totalSupply()":"18160ddd","transferOwnership(address)":"f2fde38b","waitMint(address)":"3a09b550","withdrawRaised(uint256)":"a69f886a","withdrawUserBalances(address,uint256)":"53b5f1f0","wlMint(address)":"c517b4a5","wlZero(address)":"d298b42c"},"id":55}