{"abi":[{"type":"constructor","inputs":[{"name":"_core","type":"address","internalType":"address"},{"name":"_sob","type":"address","internalType":"address"}],"stateMutability":"nonpayable"},{"type":"function","name":"changeUsername","inputs":[{"name":"name","type":"string","internalType":"string"}],"outputs":[],"stateMutability":"payable"},{"type":"function","name":"core","inputs":[],"outputs":[{"name":"","type":"address","internalType":"contract EventCore"}],"stateMutability":"view"},{"type":"function","name":"createAccount","inputs":[{"name":"referal","type":"address","internalType":"address"},{"name":"name","type":"string","internalType":"string"}],"outputs":[],"stateMutability":"payable"},{"type":"function","name":"dailyLogin","inputs":[],"outputs":[],"stateMutability":"payable"},{"type":"function","name":"flush","inputs":[],"outputs":[],"stateMutability":"nonpayable"},{"type":"function","name":"getUsername","inputs":[{"name":"_user","type":"address","internalType":"address"}],"outputs":[{"name":"","type":"string","internalType":"string"}],"stateMutability":"view"},{"type":"function","name":"owner","inputs":[],"outputs":[{"name":"","type":"address","internalType":"address"}],"stateMutability":"view"},{"type":"function","name":"renounceOwnership","inputs":[],"outputs":[],"stateMutability":"nonpayable"},{"type":"function","name":"setCore","inputs":[{"name":"_core","type":"address","internalType":"address"}],"outputs":[],"stateMutability":"nonpayable"},{"type":"function","name":"setPointPerDay","inputs":[{"name":"perDay","type":"uint256","internalType":"uint256"}],"outputs":[],"stateMutability":"nonpayable"},{"type":"function","name":"setPointPerRef","inputs":[{"name":"perRef","type":"uint256","internalType":"uint256"}],"outputs":[],"stateMutability":"nonpayable"},{"type":"function","name":"setSob","inputs":[{"name":"_sob","type":"address","internalType":"address"}],"outputs":[],"stateMutability":"nonpayable"},{"type":"function","name":"sob","inputs":[],"outputs":[{"name":"","type":"address","internalType":"contract SKIBBIDIESOFBITCOIN"}],"stateMutability":"view"},{"type":"function","name":"transferOwnership","inputs":[{"name":"newOwner","type":"address","internalType":"address"}],"outputs":[],"stateMutability":"nonpayable"},{"type":"function","name":"userActivated","inputs":[{"name":"_user","type":"address","internalType":"address"}],"outputs":[{"name":"","type":"bool","internalType":"bool"}],"stateMutability":"view"},{"type":"function","name":"userPoints","inputs":[{"name":"_user","type":"address","internalType":"address"}],"outputs":[{"name":"","type":"uint256","internalType":"uint256"}],"stateMutability":"view"},{"type":"function","name":"userReferals","inputs":[{"name":"_user","type":"address","internalType":"address"}],"outputs":[{"name":"","type":"uint256","internalType":"uint256"}],"stateMutability":"view"},{"type":"function","name":"userTotalSignIns","inputs":[{"name":"_user","type":"address","internalType":"address"}],"outputs":[{"name":"","type":"uint256","internalType":"uint256"}],"stateMutability":"view"},{"type":"event","name":"OwnershipTransferred","inputs":[{"name":"previousOwner","type":"address","indexed":true,"internalType":"address"},{"name":"newOwner","type":"address","indexed":true,"internalType":"address"}],"anonymous":false},{"type":"error","name":"OwnableInvalidOwner","inputs":[{"name":"owner","type":"address","internalType":"address"}]},{"type":"error","name":"OwnableUnauthorizedAccount","inputs":[{"name":"account","type":"address","internalType":"address"}]}],"bytecode":{"object":"0x608060405260026001556014600255620151806003553480156200002257600080fd5b506040516200149838038062001498833981016040819052620000459162000117565b33806200006c57604051631e4fbdf760e01b81526000600482015260240160405180910390fd5b6200007781620000aa565b50600580546001600160a01b039384166001600160a01b031991821617909155600480549290931691161790556200014f565b600080546001600160a01b038381166001600160a01b0319831681178455604051919092169283917f8be0079c531659141344cd1fd0a4f28419497f9722a3daafe3b4186f6b6457e09190a35050565b80516001600160a01b03811681146200011257600080fd5b919050565b600080604083850312156200012b57600080fd5b6200013683620000fa565b91506200014660208401620000fa565b90509250929050565b611339806200015f6000396000f3fe6080604052600436106101095760003560e01c80638c8f8a0011610095578063e411ec0711610064578063e411ec07146102c7578063f2f4eb26146102e7578063f2fde38b14610307578063f50ddbc714610327578063fb5f3bac1461034757600080fd5b80638c8f8a001461023b5780638da5cb5b1461024357806391417cb914610261578063ce43c0321461029a57600080fd5b80636b9f96ea116100dc5780636b9f96ea146101b0578063715018a6146101c557806377c846af146101da5780637e377d86146101ed578063800096301461021b57600080fd5b80632659f3941461010e57806328bb6d541461012357806331b4488014610158578063329f120714610178575b600080fd5b61012161011c366004610fe6565b610367565b005b34801561012f57600080fd5b5061014361013e366004611034565b610645565b60405190151581526020015b60405180910390f35b34801561016457600080fd5b5061012161017336600461104f565b6106ba565b34801561018457600080fd5b50600454610198906001600160a01b031681565b6040516001600160a01b03909116815260200161014f565b3480156101bc57600080fd5b506101216106c7565b3480156101d157600080fd5b506101216106fb565b6101216101e8366004611068565b61070f565b3480156101f957600080fd5b5061020d610208366004611034565b610850565b60405190815260200161014f565b34801561022757600080fd5b50610121610236366004611034565b6108d1565b6101216108fb565b34801561024f57600080fd5b506000546001600160a01b0316610198565b34801561026d57600080fd5b5061020d61027c366004611034565b6001600160a01b031660009081526006602052604090206001015490565b3480156102a657600080fd5b506102ba6102b5366004611034565b610cd4565b60405161014f91906110f5565b3480156102d357600080fd5b506101216102e2366004611034565b610d6c565b3480156102f357600080fd5b50600554610198906001600160a01b031681565b34801561031357600080fd5b50610121610322366004611034565b610d96565b34801561033357600080fd5b5061020d610342366004611034565b610dd1565b34801561035357600080fd5b5061012161036236600461104f565b610e52565b60298160405160200161037a91906110f5565b60405160208183030381529060405251106103cc5760405162461bcd60e51b815260206004820152600d60248201526c4e616d6520746f6f206c6f6e6760981b60448201526064015b60405180910390fd5b600554604051635d680c4160e11b81523360048201526000916001600160a01b03169063bad01882906024016020604051808303816000875af1158015610417573d6000803e3d6000fd5b505050506040513d601f19601f8201168201806040525081019061043b9190611118565b9050806104815760405162461bcd60e51b81526020600482015260146024820152733330b4b632b21016103932ba393c9030b3b0b4b760611b60448201526064016103c3565b6005546040516001600160a01b03909116906376d7e9349033906104a99086906020016110f5565b6040516020818303038152906040526040518363ffffffff1660e01b81526004016104d5929190611133565b6020604051808303816000875af11580156104f4573d6000803e3d6000fd5b505050506040513d601f19601f820116820180604052508101906105189190611118565b506001600160a01b0383161580159061059a5750600554604051630a2edb5560e21b81526001600160a01b038581166004830152909116906328bb6d5490602401602060405180830381865afa158015610576573d6000803e3d6000fd5b505050506040513d601f19601f8201168201806040525081019061059a9190611118565b1561064057336000908152600760205260409081902080546001600160a01b0319166001600160a01b03868116918217909255600554600254935163507cd30f60e01b81526004810192909252602482019390935291169063507cd30f906044016020604051808303816000875af115801561061a573d6000803e3d6000fd5b505050506040513d601f19601f8201168201806040525081019061063e9190611118565b505b505050565b600554604051630a2edb5560e21b81526001600160a01b03838116600483015260009216906328bb6d5490602401602060405180830381865afa158015610690573d6000803e3d6000fd5b505050506040513d601f19601f820116820180604052508101906106b49190611118565b92915050565b6106c2610e5f565b600255565b6106cf610e5f565b60405160009033904780156108fc029184818181858888f193505050509050806106f857600080fd5b50565b610703610e5f565b61070d6000610e8c565b565b61071833610645565b6107555760405162461bcd60e51b815260206004820152600e60248201526d1c9959da5cdd195c88199a5c9cdd60921b60448201526064016103c3565b60298160405160200161076891906110f5565b60405160208183030381529060405251106107b55760405162461bcd60e51b815260206004820152600d60248201526c4e616d6520746f6f206c6f6e6760981b60448201526064016103c3565b6005546040516001600160a01b03909116906376d7e9349033906107dd9085906020016110f5565b6040516020818303038152906040526040518363ffffffff1660e01b8152600401610809929190611133565b6020604051808303816000875af1158015610828573d6000803e3d6000fd5b505050506040513d601f19601f8201168201806040525081019061084c9190611118565b5050565b600554604051636f77926b60e01b81526001600160a01b0383811660048301526000928392911690636f77926b90602401600060405180830381865afa15801561089e573d6000803e3d6000fd5b505050506040513d6000823e601f3d908101601f191682016040526108c69190810190611187565b604001519392505050565b6108d9610e5f565b600580546001600160a01b0319166001600160a01b0392909216919091179055565b600554604051630a2edb5560e21b81523360048201526001600160a01b03909116906328bb6d5490602401602060405180830381865afa158015610943573d6000803e3d6000fd5b505050506040513d601f19601f820116820180604052508101906109679190611118565b6109db57600554604051635d680c4160e11b81523360048201526001600160a01b039091169063bad01882906024016020604051808303816000875af11580156109b5573d6000803e3d6000fd5b505050506040513d601f19601f820116820180604052508101906109d99190611118565b505b6003543360009081526006602052604090205442916109f991611255565b1015610a3f5760405162461bcd60e51b8152602060048201526015602482015274616c7265616479207369676e20696e20746f64617960581b60448201526064016103c3565b6001546004546001600160a01b031615801590610acb5750600480546040516370a0823160e01b815233928101929092526000916001600160a01b03909116906370a0823190602401602060405180830381865afa158015610aa5573d6000803e3d6000fd5b505050506040513d601f19601f82011682018060405250810190610ac99190611268565b115b15610b6057600480546040516370a0823160e01b815233928101929092526000916001600160a01b03909116906370a0823190602401602060405180830381865afa158015610b1e573d6000803e3d6000fd5b505050506040513d601f19601f82011682018060405250810190610b429190611268565b9050610b4f816002611281565b600154610b5c9190611255565b9150505b60055460405163507cd30f60e01b8152336004820152602481018390526001600160a01b039091169063507cd30f906044016020604051808303816000875af1158015610bb1573d6000803e3d6000fd5b505050506040513d601f19601f82011682018060405250810190610bd59190611118565b50336000908152600760205260409020546001600160a01b031615801590610bfd5750600181115b15610ca457600554336000908152600760205260409020546001600160a01b039182169163507cd30f9116610c33600285611298565b6040516001600160e01b031960e085901b1681526001600160a01b03909216600483015260248201526044016020604051808303816000875af1158015610c7e573d6000803e3d6000fd5b505050506040513d601f19601f82011682018060405250810190610ca29190611118565b505b3360009081526006602052604081204281556001908101805491929091610ccc908490611255565b909155505050565b600554604051636f77926b60e01b81526001600160a01b038381166004830152606092600092911690636f77926b90602401600060405180830381865afa158015610d23573d6000803e3d6000fd5b505050506040513d6000823e601f3d908101601f19168201604052610d4b9190810190611187565b90508060000151806020019051810190610d6591906112ba565b9392505050565b610d74610e5f565b600480546001600160a01b0319166001600160a01b0392909216919091179055565b610d9e610e5f565b6001600160a01b038116610dc857604051631e4fbdf760e01b8152600060048201526024016103c3565b6106f881610e8c565b600554604051636f77926b60e01b81526001600160a01b0383811660048301526000928392911690636f77926b90602401600060405180830381865afa158015610e1f573d6000803e3d6000fd5b505050506040513d6000823e601f3d908101601f19168201604052610e479190810190611187565b602001519392505050565b610e5a610e5f565b600155565b6000546001600160a01b0316331461070d5760405163118cdaa760e01b81523360048201526024016103c3565b600080546001600160a01b038381166001600160a01b0319831681178455604051919092169283917f8be0079c531659141344cd1fd0a4f28419497f9722a3daafe3b4186f6b6457e09190a35050565b80356001600160a01b0381168114610ef357600080fd5b919050565b634e487b7160e01b600052604160045260246000fd5b60405160a0810167ffffffffffffffff81118282101715610f3157610f31610ef8565b60405290565b604051601f8201601f1916810167ffffffffffffffff81118282101715610f6057610f60610ef8565b604052919050565b600067ffffffffffffffff821115610f8257610f82610ef8565b50601f01601f191660200190565b600082601f830112610fa157600080fd5b8135610fb4610faf82610f68565b610f37565b818152846020838601011115610fc957600080fd5b816020850160208301376000918101602001919091529392505050565b60008060408385031215610ff957600080fd5b61100283610edc565b9150602083013567ffffffffffffffff81111561101e57600080fd5b61102a85828601610f90565b9150509250929050565b60006020828403121561104657600080fd5b610d6582610edc565b60006020828403121561106157600080fd5b5035919050565b60006020828403121561107a57600080fd5b813567ffffffffffffffff81111561109157600080fd5b61109d84828501610f90565b949350505050565b60005b838110156110c05781810151838201526020016110a8565b50506000910152565b600081518084526110e18160208601602086016110a5565b601f01601f19169290920160200192915050565b602081526000610d6560208301846110c9565b80518015158114610ef357600080fd5b60006020828403121561112a57600080fd5b610d6582611108565b6001600160a01b038316815260406020820181905260009061109d908301846110c9565b6000611165610faf84610f68565b905082815283838301111561117957600080fd5b610d658360208301846110a5565b60006020828403121561119957600080fd5b815167ffffffffffffffff808211156111b157600080fd5b9083019060a082860312156111c557600080fd5b6111cd610f0e565b8251828111156111dc57600080fd5b83019150601f820186136111ef57600080fd5b6111fe86835160208501611157565b8152602083015160208201526040830151604082015261122060608401611108565b606082015261123160808401611108565b608082015295945050505050565b634e487b7160e01b600052601160045260246000fd5b808201808211156106b4576106b461123f565b60006020828403121561127a57600080fd5b5051919050565b80820281158282048414176106b4576106b461123f565b6000826112b557634e487b7160e01b600052601260045260246000fd5b500490565b6000602082840312156112cc57600080fd5b815167ffffffffffffffff8111156112e357600080fd5b8201601f810184136112f457600080fd5b61109d8482516020840161115756fea2646970667358221220334f6b979c42bb24b25c0a5058c2d124d054a96fb816e0f321de88171297fecf64736f6c63430008170033","linkReferences":{}},"methodIdentifiers":{"changeUsername(string)":"77c846af","core()":"f2f4eb26","createAccount(address,string)":"2659f394","dailyLogin()":"8c8f8a00","flush()":"6b9f96ea","getUsername(address)":"ce43c032","owner()":"8da5cb5b","renounceOwnership()":"715018a6","setCore(address)":"80009630","setPointPerDay(uint256)":"fb5f3bac","setPointPerRef(uint256)":"31b44880","setSob(address)":"e411ec07","sob()":"329f1207","transferOwnership(address)":"f2fde38b","userActivated(address)":"28bb6d54","userPoints(address)":"f50ddbc7","userReferals(address)":"7e377d86","userTotalSignIns(address)":"91417cb9"},"id":41}