{"abi":[{"type":"constructor","inputs":[{"name":"_core","type":"address","internalType":"address"},{"name":"_sob","type":"address","internalType":"address"}],"stateMutability":"nonpayable"},{"type":"function","name":"accountCreation","inputs":[],"outputs":[{"name":"","type":"uint256","internalType":"uint256"}],"stateMutability":"view"},{"type":"function","name":"changeUsername","inputs":[{"name":"name","type":"string","internalType":"string"}],"outputs":[],"stateMutability":"payable"},{"type":"function","name":"core","inputs":[],"outputs":[{"name":"","type":"address","internalType":"contract EventCore"}],"stateMutability":"view"},{"type":"function","name":"createAccount","inputs":[{"name":"referal","type":"address","internalType":"address"},{"name":"name","type":"string","internalType":"string"}],"outputs":[],"stateMutability":"payable"},{"type":"function","name":"dailyLogin","inputs":[],"outputs":[],"stateMutability":"payable"},{"type":"function","name":"flush","inputs":[],"outputs":[],"stateMutability":"nonpayable"},{"type":"function","name":"getUserNextSignTime","inputs":[{"name":"_user","type":"address","internalType":"address"}],"outputs":[{"name":"","type":"uint256","internalType":"uint256"}],"stateMutability":"view"},{"type":"function","name":"getUsername","inputs":[{"name":"_user","type":"address","internalType":"address"}],"outputs":[{"name":"","type":"string","internalType":"string"}],"stateMutability":"view"},{"type":"function","name":"owner","inputs":[],"outputs":[{"name":"","type":"address","internalType":"address"}],"stateMutability":"view"},{"type":"function","name":"pointPerDay","inputs":[],"outputs":[{"name":"","type":"uint256","internalType":"uint256"}],"stateMutability":"view"},{"type":"function","name":"pointPerReferal","inputs":[],"outputs":[{"name":"","type":"uint256","internalType":"uint256"}],"stateMutability":"view"},{"type":"function","name":"renounceOwnership","inputs":[],"outputs":[],"stateMutability":"nonpayable"},{"type":"function","name":"setAccountCreationPoints","inputs":[{"name":"p","type":"uint256","internalType":"uint256"}],"outputs":[],"stateMutability":"nonpayable"},{"type":"function","name":"setCore","inputs":[{"name":"_core","type":"address","internalType":"address"}],"outputs":[],"stateMutability":"nonpayable"},{"type":"function","name":"setPointPerDay","inputs":[{"name":"perDay","type":"uint256","internalType":"uint256"}],"outputs":[],"stateMutability":"nonpayable"},{"type":"function","name":"setPointPerRef","inputs":[{"name":"perRef","type":"uint256","internalType":"uint256"}],"outputs":[],"stateMutability":"nonpayable"},{"type":"function","name":"setSob","inputs":[{"name":"_sob","type":"address","internalType":"address"}],"outputs":[],"stateMutability":"nonpayable"},{"type":"function","name":"sob","inputs":[],"outputs":[{"name":"","type":"address","internalType":"contract SKIBBIDIESOFBITCOIN"}],"stateMutability":"view"},{"type":"function","name":"transferOwnership","inputs":[{"name":"newOwner","type":"address","internalType":"address"}],"outputs":[],"stateMutability":"nonpayable"},{"type":"function","name":"userActivated","inputs":[{"name":"_user","type":"address","internalType":"address"}],"outputs":[{"name":"","type":"bool","internalType":"bool"}],"stateMutability":"view"},{"type":"function","name":"userPoints","inputs":[{"name":"_user","type":"address","internalType":"address"}],"outputs":[{"name":"","type":"uint256","internalType":"uint256"}],"stateMutability":"view"},{"type":"function","name":"userReferals","inputs":[{"name":"_user","type":"address","internalType":"address"}],"outputs":[{"name":"","type":"uint256","internalType":"uint256"}],"stateMutability":"view"},{"type":"function","name":"userRpPerDay","inputs":[{"name":"_user","type":"address","internalType":"address"}],"outputs":[{"name":"points","type":"uint256","internalType":"uint256"}],"stateMutability":"view"},{"type":"function","name":"userTotalSignIns","inputs":[{"name":"_user","type":"address","internalType":"address"}],"outputs":[{"name":"","type":"uint256","internalType":"uint256"}],"stateMutability":"view"},{"type":"event","name":"OwnershipTransferred","inputs":[{"name":"previousOwner","type":"address","indexed":true,"internalType":"address"},{"name":"newOwner","type":"address","indexed":true,"internalType":"address"}],"anonymous":false},{"type":"error","name":"OwnableInvalidOwner","inputs":[{"name":"owner","type":"address","internalType":"address"}]},{"type":"error","name":"OwnableUnauthorizedAccount","inputs":[{"name":"account","type":"address","internalType":"address"}]}],"bytecode":{"object":"0x60806040526002600155601460025560326003553480156200002057600080fd5b506040516200162a3803806200162a833981016040819052620000439162000115565b33806200006a57604051631e4fbdf760e01b81526000600482015260240160405180910390fd5b6200007581620000a8565b50600580546001600160a01b039384166001600160a01b031991821617909155600480549290931691161790556200014d565b600080546001600160a01b038381166001600160a01b0319831681178455604051919092169283917f8be0079c531659141344cd1fd0a4f28419497f9722a3daafe3b4186f6b6457e09190a35050565b80516001600160a01b03811681146200011057600080fd5b919050565b600080604083850312156200012957600080fd5b6200013483620000f8565b91506200014460208401620000f8565b90509250929050565b6114cd806200015d6000396000f3fe60806040526004361061014b5760003560e01c80638da5cb5b116100b6578063d9f9e55c1161006f578063d9f9e55c146103ab578063e411ec07146103c1578063f2f4eb26146103e1578063f2fde38b14610401578063f50ddbc714610421578063fb5f3bac1461044157600080fd5b80638da5cb5b146102bb57806391417cb9146102d957806396764e6214610312578063a22cc45714610348578063a725592714610368578063ce43c0321461037e57600080fd5b80636b9f96ea116101085780636b9f96ea14610236578063715018a61461024b57806377c846af146102605780637e377d861461027357806380009630146102935780638c8f8a00146102b357600080fd5b80632659f3941461015057806328bb6d541461016557806331b448801461019a578063329f1207146101ba57806333daa828146101f2578063362f87ec14610216575b600080fd5b61016361015e366004611195565b610461565b005b34801561017157600080fd5b506101856101803660046111e3565b610806565b60405190151581526020015b60405180910390f35b3480156101a657600080fd5b506101636101b5366004611205565b61087b565b3480156101c657600080fd5b506004546101da906001600160a01b031681565b6040516001600160a01b039091168152602001610191565b3480156101fe57600080fd5b5061020860015481565b604051908152602001610191565b34801561022257600080fd5b506102086102313660046111e3565b610888565b34801561024257600080fd5b506101636109b2565b34801561025757600080fd5b506101636109e6565b61016361026e36600461121e565b6109fa565b34801561027f57600080fd5b5061020861028e3660046111e3565b610b3b565b34801561029f57600080fd5b506101636102ae3660046111e3565b610bbc565b610163610be6565b3480156102c757600080fd5b506000546001600160a01b03166101da565b3480156102e557600080fd5b506102086102f43660046111e3565b6001600160a01b031660009081526006602052604090206001015490565b34801561031e57600080fd5b5061020861032d3660046111e3565b6001600160a01b031660009081526006602052604090205490565b34801561035457600080fd5b50610163610363366004611205565b610e82565b34801561037457600080fd5b5061020860025481565b34801561038a57600080fd5b5061039e6103993660046111e3565b610e8f565b60405161019191906112ab565b3480156103b757600080fd5b5061020860035481565b3480156103cd57600080fd5b506101636103dc3660046111e3565b610f20565b3480156103ed57600080fd5b506005546101da906001600160a01b031681565b34801561040d57600080fd5b5061016361041c3660046111e3565b610f4a565b34801561042d57600080fd5b5061020861043c3660046111e3565b610f85565b34801561044d57600080fd5b5061016361045c366004611205565b611006565b6101008160405160200161047591906112ab565b6040516020818303038152906040525111156104c85760405162461bcd60e51b815260206004820152600d60248201526c4e616d6520746f6f206c6f6e6760981b60448201526064015b60405180910390fd5b6104d133610806565b156105135760405162461bcd60e51b8152602060048201526012602482015271105b1c9958591e48149959da5cdd195c995960721b60448201526064016104bf565b600554604051635d680c4160e11b81523360048201526000916001600160a01b03169063bad01882906024016020604051808303816000875af115801561055e573d6000803e3d6000fd5b505050506040513d601f19601f8201168201806040525081019061058291906112ce565b9050806105c85760405162461bcd60e51b81526020600482015260146024820152733330b4b632b21016103932ba393c9030b3b0b4b760611b60448201526064016104bf565b60055460035460405163507cd30f60e01b815233600482015260248101919091526001600160a01b039091169063507cd30f906044016020604051808303816000875af115801561061d573d6000803e3d6000fd5b505050506040513d601f19601f8201168201806040525081019061064191906112ce565b506005546040516001600160a01b03909116906376d7e93490339061066a9086906020016112ab565b6040516020818303038152906040526040518363ffffffff1660e01b81526004016106969291906112e9565b6020604051808303816000875af11580156106b5573d6000803e3d6000fd5b505050506040513d601f19601f820116820180604052508101906106d991906112ce565b506001600160a01b0383161580159061075b5750600554604051630a2edb5560e21b81526001600160a01b038581166004830152909116906328bb6d5490602401602060405180830381865afa158015610737573d6000803e3d6000fd5b505050506040513d601f19601f8201168201806040525081019061075b91906112ce565b1561080157336000908152600760205260409081902080546001600160a01b0319166001600160a01b03868116918217909255600554600254935163507cd30f60e01b81526004810192909252602482019390935291169063507cd30f906044016020604051808303816000875af11580156107db573d6000803e3d6000fd5b505050506040513d601f19601f820116820180604052508101906107ff91906112ce565b505b505050565b600554604051630a2edb5560e21b81526001600160a01b03838116600483015260009216906328bb6d5490602401602060405180830381865afa158015610851573d6000803e3d6000fd5b505050506040513d601f19601f8201168201806040525081019061087591906112ce565b92915050565b610883611013565b600255565b6001546004546001600160a01b0316158015906109165750600480546040516370a0823160e01b81526001600160a01b0385811693820193909352600092909116906370a0823190602401602060405180830381865afa1580156108f0573d6000803e3d6000fd5b505050506040513d601f19601f82011682018060405250810190610914919061130d565b115b156109ad57600480546040516370a0823160e01b81526001600160a01b0385811693820193909352600092909116906370a0823190602401602060405180830381865afa15801561096b573d6000803e3d6000fd5b505050506040513d601f19601f8201168201806040525081019061098f919061130d565b905061099c81600261133c565b6001546109a99190611353565b9150505b919050565b6109ba611013565b60405160009033904780156108fc029184818181858888f193505050509050806109e357600080fd5b50565b6109ee611013565b6109f86000611040565b565b610a0333610806565b610a405760405162461bcd60e51b815260206004820152600e60248201526d1c9959da5cdd195c88199a5c9cdd60921b60448201526064016104bf565b602981604051602001610a5391906112ab565b6040516020818303038152906040525110610aa05760405162461bcd60e51b815260206004820152600d60248201526c4e616d6520746f6f206c6f6e6760981b60448201526064016104bf565b6005546040516001600160a01b03909116906376d7e934903390610ac89085906020016112ab565b6040516020818303038152906040526040518363ffffffff1660e01b8152600401610af49291906112e9565b6020604051808303816000875af1158015610b13573d6000803e3d6000fd5b505050506040513d601f19601f82011682018060405250810190610b3791906112ce565b5050565b600554604051636f77926b60e01b81526001600160a01b0383811660048301526000928392911690636f77926b90602401600060405180830381865afa158015610b89573d6000803e3d6000fd5b505050506040513d6000823e601f3d908101601f19168201604052610bb19190810190611396565b604001519392505050565b610bc4611013565b600580546001600160a01b0319166001600160a01b0392909216919091179055565b600554604051630a2edb5560e21b81523360048201526001600160a01b03909116906328bb6d5490602401602060405180830381865afa158015610c2e573d6000803e3d6000fd5b505050506040513d601f19601f82011682018060405250810190610c5291906112ce565b610cc657600554604051635d680c4160e11b81523360048201526001600160a01b039091169063bad01882906024016020604051808303816000875af1158015610ca0573d6000803e3d6000fd5b505050506040513d601f19601f82011682018060405250810190610cc491906112ce565b505b33600090815260066020526040902054421015610d1d5760405162461bcd60e51b8152602060048201526015602482015274616c7265616479207369676e20696e20746f64617960581b60448201526064016104bf565b6000610d2833610888565b60055460405163507cd30f60e01b8152336004820152602481018390529192506001600160a01b03169063507cd30f906044016020604051808303816000875af1158015610d7a573d6000803e3d6000fd5b505050506040513d601f19601f82011682018060405250810190610d9e91906112ce565b50336000908152600760205260409020546001600160a01b031615610e4657600554336000908152600760205260409081902054905163507cd30f60e01b81526001600160a01b0391821660048201526024810184905291169063507cd30f906044016020604051808303816000875af1158015610e20573d6000803e3d6000fd5b505050506040513d601f19601f82011682018060405250810190610e4491906112ce565b505b610e534262015180611353565b33600090815260066020526040812091825560019182018054909190610e7a908490611353565b909155505050565b610e8a611013565b600355565b600554604051636f77926b60e01b81526001600160a01b038381166004830152606092600092911690636f77926b90602401600060405180830381865afa158015610ede573d6000803e3d6000fd5b505050506040513d6000823e601f3d908101601f19168201604052610f069190810190611396565b905080600001518060200190518101906109a9919061144e565b610f28611013565b600480546001600160a01b0319166001600160a01b0392909216919091179055565b610f52611013565b6001600160a01b038116610f7c57604051631e4fbdf760e01b8152600060048201526024016104bf565b6109e381611040565b600554604051636f77926b60e01b81526001600160a01b0383811660048301526000928392911690636f77926b90602401600060405180830381865afa158015610fd3573d6000803e3d6000fd5b505050506040513d6000823e601f3d908101601f19168201604052610ffb9190810190611396565b602001519392505050565b61100e611013565b600155565b6000546001600160a01b031633146109f85760405163118cdaa760e01b81523360048201526024016104bf565b600080546001600160a01b038381166001600160a01b0319831681178455604051919092169283917f8be0079c531659141344cd1fd0a4f28419497f9722a3daafe3b4186f6b6457e09190a35050565b80356001600160a01b03811681146109ad57600080fd5b634e487b7160e01b600052604160045260246000fd5b60405160a0810167ffffffffffffffff811182821017156110e0576110e06110a7565b60405290565b604051601f8201601f1916810167ffffffffffffffff8111828210171561110f5761110f6110a7565b604052919050565b600067ffffffffffffffff821115611131576111316110a7565b50601f01601f191660200190565b600082601f83011261115057600080fd5b813561116361115e82611117565b6110e6565b81815284602083860101111561117857600080fd5b816020850160208301376000918101602001919091529392505050565b600080604083850312156111a857600080fd5b6111b183611090565b9150602083013567ffffffffffffffff8111156111cd57600080fd5b6111d98582860161113f565b9150509250929050565b6000602082840312156111f557600080fd5b6111fe82611090565b9392505050565b60006020828403121561121757600080fd5b5035919050565b60006020828403121561123057600080fd5b813567ffffffffffffffff81111561124757600080fd5b6112538482850161113f565b949350505050565b60005b8381101561127657818101518382015260200161125e565b50506000910152565b6000815180845261129781602086016020860161125b565b601f01601f19169290920160200192915050565b6020815260006111fe602083018461127f565b805180151581146109ad57600080fd5b6000602082840312156112e057600080fd5b6111fe826112be565b6001600160a01b03831681526040602082018190526000906112539083018461127f565b60006020828403121561131f57600080fd5b5051919050565b634e487b7160e01b600052601160045260246000fd5b808202811582820484141761087557610875611326565b8082018082111561087557610875611326565b600061137461115e84611117565b905082815283838301111561138857600080fd5b6111fe83602083018461125b565b6000602082840312156113a857600080fd5b815167ffffffffffffffff808211156113c057600080fd5b9083019060a082860312156113d457600080fd5b6113dc6110bd565b8251828111156113eb57600080fd5b83019150601f820186136113fe57600080fd5b61140d86835160208501611366565b8152602083015160208201526040830151604082015261142f606084016112be565b6060820152611440608084016112be565b608082015295945050505050565b60006020828403121561146057600080fd5b815167ffffffffffffffff81111561147757600080fd5b8201601f8101841361148857600080fd5b6112538482516020840161136656fea2646970667358221220054d820d50acc3c1eaf4d7d7f9aa413ae993d621501742bb27af37bb5d57fd5964736f6c63430008170033","linkReferences":{}},"methodIdentifiers":{"accountCreation()":"d9f9e55c","changeUsername(string)":"77c846af","core()":"f2f4eb26","createAccount(address,string)":"2659f394","dailyLogin()":"8c8f8a00","flush()":"6b9f96ea","getUserNextSignTime(address)":"96764e62","getUsername(address)":"ce43c032","owner()":"8da5cb5b","pointPerDay()":"33daa828","pointPerReferal()":"a7255927","renounceOwnership()":"715018a6","setAccountCreationPoints(uint256)":"a22cc457","setCore(address)":"80009630","setPointPerDay(uint256)":"fb5f3bac","setPointPerRef(uint256)":"31b44880","setSob(address)":"e411ec07","sob()":"329f1207","transferOwnership(address)":"f2fde38b","userActivated(address)":"28bb6d54","userPoints(address)":"f50ddbc7","userReferals(address)":"7e377d86","userRpPerDay(address)":"362f87ec","userTotalSignIns(address)":"91417cb9"},"id":41}