{"abi":[{"type":"constructor","inputs":[{"name":"_core","type":"address","internalType":"address"},{"name":"_sob","type":"address","internalType":"address"}],"stateMutability":"nonpayable"},{"type":"function","name":"accountCreation","inputs":[],"outputs":[{"name":"","type":"uint256","internalType":"uint256"}],"stateMutability":"view"},{"type":"function","name":"changeUsername","inputs":[{"name":"name","type":"string","internalType":"string"}],"outputs":[],"stateMutability":"payable"},{"type":"function","name":"core","inputs":[],"outputs":[{"name":"","type":"address","internalType":"contract EventCore"}],"stateMutability":"view"},{"type":"function","name":"createAccount","inputs":[{"name":"referal","type":"address","internalType":"address"},{"name":"name","type":"string","internalType":"string"}],"outputs":[],"stateMutability":"payable"},{"type":"function","name":"dailyLogin","inputs":[],"outputs":[],"stateMutability":"payable"},{"type":"function","name":"flush","inputs":[],"outputs":[],"stateMutability":"nonpayable"},{"type":"function","name":"fungibleRp","inputs":[],"outputs":[{"name":"","type":"address","internalType":"contract FungibleRP"}],"stateMutability":"view"},{"type":"function","name":"getUserLastSignTime","inputs":[{"name":"_user","type":"address","internalType":"address"}],"outputs":[{"name":"","type":"uint256","internalType":"uint256"}],"stateMutability":"view"},{"type":"function","name":"getUserNextSignTime","inputs":[{"name":"_user","type":"address","internalType":"address"}],"outputs":[{"name":"","type":"uint256","internalType":"uint256"}],"stateMutability":"view"},{"type":"function","name":"getUsername","inputs":[{"name":"_user","type":"address","internalType":"address"}],"outputs":[{"name":"","type":"string","internalType":"string"}],"stateMutability":"view"},{"type":"function","name":"owner","inputs":[],"outputs":[{"name":"","type":"address","internalType":"address"}],"stateMutability":"view"},{"type":"function","name":"pointPerDay","inputs":[],"outputs":[{"name":"","type":"uint256","internalType":"uint256"}],"stateMutability":"view"},{"type":"function","name":"pointPerReferal","inputs":[],"outputs":[{"name":"","type":"uint256","internalType":"uint256"}],"stateMutability":"view"},{"type":"function","name":"referer","inputs":[{"name":"","type":"address","internalType":"address"}],"outputs":[{"name":"","type":"address","internalType":"address"}],"stateMutability":"view"},{"type":"function","name":"renounceOwnership","inputs":[],"outputs":[],"stateMutability":"nonpayable"},{"type":"function","name":"setAccountCreationPoints","inputs":[{"name":"p","type":"uint256","internalType":"uint256"}],"outputs":[],"stateMutability":"nonpayable"},{"type":"function","name":"setCore","inputs":[{"name":"_core","type":"address","internalType":"address"}],"outputs":[],"stateMutability":"nonpayable"},{"type":"function","name":"setPointPerDay","inputs":[{"name":"perDay","type":"uint256","internalType":"uint256"}],"outputs":[],"stateMutability":"nonpayable"},{"type":"function","name":"setPointPerRef","inputs":[{"name":"perRef","type":"uint256","internalType":"uint256"}],"outputs":[],"stateMutability":"nonpayable"},{"type":"function","name":"setSob","inputs":[{"name":"_sob","type":"address","internalType":"address"}],"outputs":[],"stateMutability":"nonpayable"},{"type":"function","name":"sob","inputs":[],"outputs":[{"name":"","type":"address","internalType":"contract SKIBBIDIESOFBITCOIN"}],"stateMutability":"view"},{"type":"function","name":"swapRp","inputs":[{"name":"amountRpInExact","type":"uint256","internalType":"uint256"},{"name":"amountSpiceOutExact","type":"uint256","internalType":"uint256"}],"outputs":[],"stateMutability":"payable"},{"type":"function","name":"transferOwnership","inputs":[{"name":"newOwner","type":"address","internalType":"address"}],"outputs":[],"stateMutability":"nonpayable"},{"type":"function","name":"unwrapRp","inputs":[{"name":"rpAmountInWei","type":"uint256","internalType":"uint256"}],"outputs":[],"stateMutability":"payable"},{"type":"function","name":"userActivated","inputs":[{"name":"_user","type":"address","internalType":"address"}],"outputs":[{"name":"","type":"bool","internalType":"bool"}],"stateMutability":"view"},{"type":"function","name":"userPoints","inputs":[{"name":"_user","type":"address","internalType":"address"}],"outputs":[{"name":"","type":"uint256","internalType":"uint256"}],"stateMutability":"view"},{"type":"function","name":"userReferals","inputs":[{"name":"_user","type":"address","internalType":"address"}],"outputs":[{"name":"","type":"uint256","internalType":"uint256"}],"stateMutability":"view"},{"type":"function","name":"userRpPerDay","inputs":[{"name":"_user","type":"address","internalType":"address"}],"outputs":[{"name":"points","type":"uint256","internalType":"uint256"}],"stateMutability":"view"},{"type":"function","name":"userTotalSignIns","inputs":[{"name":"_user","type":"address","internalType":"address"}],"outputs":[{"name":"","type":"uint256","internalType":"uint256"}],"stateMutability":"view"},{"type":"function","name":"wrapRp","inputs":[{"name":"rpAmount","type":"uint256","internalType":"uint256"}],"outputs":[],"stateMutability":"payable"},{"type":"event","name":"OwnershipTransferred","inputs":[{"name":"previousOwner","type":"address","indexed":true,"internalType":"address"},{"name":"newOwner","type":"address","indexed":true,"internalType":"address"}],"anonymous":false},{"type":"event","name":"Swap","inputs":[{"name":"from","type":"address","indexed":true,"internalType":"address"},{"name":"RpAmount","type":"uint256","indexed":false,"internalType":"uint256"},{"name":"SpiceAmount","type":"uint256","indexed":false,"internalType":"uint256"}],"anonymous":false},{"type":"event","name":"UnwrapFungibleRP","inputs":[{"name":"by","type":"address","indexed":true,"internalType":"address"},{"name":"RpAmount","type":"uint256","indexed":false,"internalType":"uint256"}],"anonymous":false},{"type":"event","name":"WrapFungibleRP","inputs":[{"name":"by","type":"address","indexed":true,"internalType":"address"},{"name":"RpAmount","type":"uint256","indexed":false,"internalType":"uint256"}],"anonymous":false},{"type":"error","name":"OwnableInvalidOwner","inputs":[{"name":"owner","type":"address","internalType":"address"}]},{"type":"error","name":"OwnableUnauthorizedAccount","inputs":[{"name":"account","type":"address","internalType":"address"}]}],"bytecode":{"object":"0x60806040526002600155601460025560326003553480156200002057600080fd5b5060405162002aa238038062002aa2833981016040819052620000439162000188565b33806200006a57604051631e4fbdf760e01b81526000600482015260240160405180910390fd5b62000075816200010d565b50600580546001600160a01b038085166001600160a01b03199283161790925560048054928416929091169190911790556040513090620000b6906200015d565b6001600160a01b039091168152602001604051809103906000f080158015620000e3573d6000803e3d6000fd5b50600680546001600160a01b0319166001600160a01b039290921691909117905550620001c09050565b600080546001600160a01b038381166001600160a01b0319831681178455604051919092169283917f8be0079c531659141344cd1fd0a4f28419497f9722a3daafe3b4186f6b6457e09190a35050565b610c288062001e7a83390190565b80516001600160a01b03811681146200018357600080fd5b919050565b600080604083850312156200019c57600080fd5b620001a7836200016b565b9150620001b7602084016200016b565b90509250929050565b611caa80620001d06000396000f3fe6080604052600436106101cd5760003560e01c80638da5cb5b116100f7578063ce43c03211610095578063f2fde38b11610064578063f2fde38b14610515578063f4a8b19714610535578063f50ddbc71461056b578063fb5f3bac1461058b57600080fd5b8063ce43c03214610492578063d9f9e55c146104bf578063e411ec07146104d5578063f2f4eb26146104f557600080fd5b806396764e62116100d157806396764e6214610410578063a044191214610449578063a22cc4571461045c578063a72559271461047c57600080fd5b80638da5cb5b146103a657806391417cb9146103c4578063928dbf6c146103fd57600080fd5b8063541625fa1161016f5780637e377d861161013e5780637e377d861461033e578063800096301461035e5780638c4c714d1461037e5780638c8f8a001461039e57600080fd5b8063541625fa146102cb5780636b9f96ea14610301578063715018a61461031657806377c846af1461032b57600080fd5b806331b44880116101ab57806331b448801461022f578063329f12071461024f57806333daa82814610287578063362f87ec146102ab57600080fd5b80632659f394146101d257806328bb6d54146101e757806330e61d821461021c575b600080fd5b6101e56101e036600461181f565b6105ab565b005b3480156101f357600080fd5b5061020761020236600461186d565b610950565b60405190151581526020015b60405180910390f35b6101e561022a366004611888565b6109c5565b34801561023b57600080fd5b506101e561024a366004611888565b610b26565b34801561025b57600080fd5b5060045461026f906001600160a01b031681565b6040516001600160a01b039091168152602001610213565b34801561029357600080fd5b5061029d60015481565b604051908152602001610213565b3480156102b757600080fd5b5061029d6102c636600461186d565b610b33565b3480156102d757600080fd5b5061029d6102e636600461186d565b6001600160a01b031660009081526007602052604090205490565b34801561030d57600080fd5b506101e5610c5d565b34801561032257600080fd5b506101e5610c91565b6101e56103393660046118a1565b610ca5565b34801561034a57600080fd5b5061029d61035936600461186d565b610de7565b34801561036a57600080fd5b506101e561037936600461186d565b610e68565b34801561038a57600080fd5b5060065461026f906001600160a01b031681565b6101e5610e92565b3480156103b257600080fd5b506000546001600160a01b031661026f565b3480156103d057600080fd5b5061029d6103df36600461186d565b6001600160a01b031660009081526007602052604090206002015490565b6101e561040b366004611888565b611138565b34801561041c57600080fd5b5061029d61042b36600461186d565b6001600160a01b031660009081526007602052604090206001015490565b6101e56104573660046118de565b61129b565b34801561046857600080fd5b506101e5610477366004611888565b6113fa565b34801561048857600080fd5b5061029d60025481565b34801561049e57600080fd5b506104b26104ad36600461186d565b611407565b6040516102139190611950565b3480156104cb57600080fd5b5061029d60035481565b3480156104e157600080fd5b506101e56104f036600461186d565b611498565b34801561050157600080fd5b5060055461026f906001600160a01b031681565b34801561052157600080fd5b506101e561053036600461186d565b6114c2565b34801561054157600080fd5b5061026f61055036600461186d565b6008602052600090815260409020546001600160a01b031681565b34801561057757600080fd5b5061029d61058636600461186d565b6114fd565b34801561059757600080fd5b506101e56105a6366004611888565b61157e565b610100816040516020016105bf9190611950565b6040516020818303038152906040525111156106125760405162461bcd60e51b815260206004820152600d60248201526c4e616d6520746f6f206c6f6e6760981b60448201526064015b60405180910390fd5b61061b33610950565b1561065d5760405162461bcd60e51b8152602060048201526012602482015271105b1c9958591e48149959da5cdd195c995960721b6044820152606401610609565b600554604051635d680c4160e11b81523360048201526000916001600160a01b03169063bad01882906024016020604051808303816000875af11580156106a8573d6000803e3d6000fd5b505050506040513d601f19601f820116820180604052508101906106cc9190611973565b9050806107125760405162461bcd60e51b81526020600482015260146024820152733330b4b632b21016103932ba393c9030b3b0b4b760611b6044820152606401610609565b60055460035460405163507cd30f60e01b815233600482015260248101919091526001600160a01b039091169063507cd30f906044016020604051808303816000875af1158015610767573d6000803e3d6000fd5b505050506040513d601f19601f8201168201806040525081019061078b9190611973565b506005546040516001600160a01b03909116906376d7e9349033906107b4908690602001611950565b6040516020818303038152906040526040518363ffffffff1660e01b81526004016107e092919061198e565b6020604051808303816000875af11580156107ff573d6000803e3d6000fd5b505050506040513d601f19601f820116820180604052508101906108239190611973565b506001600160a01b038316158015906108a55750600554604051630a2edb5560e21b81526001600160a01b038581166004830152909116906328bb6d5490602401602060405180830381865afa158015610881573d6000803e3d6000fd5b505050506040513d601f19601f820116820180604052508101906108a59190611973565b1561094b57336000908152600860205260409081902080546001600160a01b0319166001600160a01b03868116918217909255600554600254935163507cd30f60e01b81526004810192909252602482019390935291169063507cd30f906044016020604051808303816000875af1158015610925573d6000803e3d6000fd5b505050506040513d601f19601f820116820180604052508101906109499190611973565b505b505050565b600554604051630a2edb5560e21b81526001600160a01b03838116600483015260009216906328bb6d5490602401602060405180830381865afa15801561099b573d6000803e3d6000fd5b505050506040513d601f19601f820116820180604052508101906109bf9190611973565b92915050565b6006546040805163313ce56760e01b815290516000926001600160a01b03169163313ce5679160048083019260209291908290030181865afa158015610a0f573d6000803e3d6000fd5b505050506040513d601f19601f82011682018060405250810190610a3391906119b2565b6006549091506000906001600160a01b031663bf376c7a33610a5685600a611acf565b610a609087611ade565b6040516001600160e01b031960e085901b1681526001600160a01b03909216600483015260248201526044016020604051808303816000875af1158015610aab573d6000803e3d6000fd5b505050506040513d601f19601f82011682018060405250810190610acf9190611973565b9050801561094b576000610ae433308661158b565b905080156101cd5760405184815233907fe732d08d1439984dede180096f4e558167a5267f5976507d03f393cbca39484f9060200160405180910390a2610949565b610b2e61169d565b600255565b6001546004546001600160a01b031615801590610bc15750600480546040516370a0823160e01b81526001600160a01b0385811693820193909352600092909116906370a0823190602401602060405180830381865afa158015610b9b573d6000803e3d6000fd5b505050506040513d601f19601f82011682018060405250810190610bbf9190611af5565b115b15610c5857600480546040516370a0823160e01b81526001600160a01b0385811693820193909352600092909116906370a0823190602401602060405180830381865afa158015610c16573d6000803e3d6000fd5b505050506040513d601f19601f82011682018060405250810190610c3a9190611af5565b9050610c47816002611ade565b600154610c549190611b0e565b9150505b919050565b610c6561169d565b60405160009033904780156108fc029184818181858888f19350505050905080610c8e57600080fd5b50565b610c9961169d565b610ca360006116ca565b565b610cae33610950565b610ceb5760405162461bcd60e51b815260206004820152600e60248201526d1c9959da5cdd195c88199a5c9cdd60921b6044820152606401610609565b61010081604051602001610cff9190611950565b6040516020818303038152906040525110610d4c5760405162461bcd60e51b815260206004820152600d60248201526c4e616d6520746f6f206c6f6e6760981b6044820152606401610609565b6005546040516001600160a01b03909116906376d7e934903390610d74908590602001611950565b6040516020818303038152906040526040518363ffffffff1660e01b8152600401610da092919061198e565b6020604051808303816000875af1158015610dbf573d6000803e3d6000fd5b505050506040513d601f19601f82011682018060405250810190610de39190611973565b5050565b600554604051636f77926b60e01b81526001600160a01b0383811660048301526000928392911690636f77926b90602401600060405180830381865afa158015610e35573d6000803e3d6000fd5b505050506040513d6000823e601f3d908101601f19168201604052610e5d9190810190611b51565b604001519392505050565b610e7061169d565b600580546001600160a01b0319166001600160a01b0392909216919091179055565b600554604051630a2edb5560e21b81523360048201526001600160a01b03909116906328bb6d5490602401602060405180830381865afa158015610eda573d6000803e3d6000fd5b505050506040513d601f19601f82011682018060405250810190610efe9190611973565b610f7257600554604051635d680c4160e11b81523360048201526001600160a01b039091169063bad01882906024016020604051808303816000875af1158015610f4c573d6000803e3d6000fd5b505050506040513d601f19601f82011682018060405250810190610f709190611973565b505b33600090815260076020526040902060010154421015610fcc5760405162461bcd60e51b8152602060048201526015602482015274616c7265616479207369676e20696e20746f64617960581b6044820152606401610609565b6000610fd733610b33565b60055460405163507cd30f60e01b8152336004820152602481018390529192506001600160a01b03169063507cd30f906044016020604051808303816000875af1158015611029573d6000803e3d6000fd5b505050506040513d601f19601f8201168201806040525081019061104d9190611973565b50336000908152600860205260409020546001600160a01b0316156110f557600554336000908152600860205260409081902054905163507cd30f60e01b81526001600160a01b0391821660048201526024810184905291169063507cd30f906044016020604051808303816000875af11580156110cf573d6000803e3d6000fd5b505050506040513d601f19601f820116820180604052508101906110f39190611973565b505b6111024262015180611b0e565b3360009081526007602052604081206001808201939093554281556002018054909190611130908490611b0e565b909155505050565b6006546040516307d7beb960e51b8152336004820152602481018390526000916001600160a01b03169063faf7d720906044016020604051808303816000875af115801561118a573d6000803e3d6000fd5b505050506040513d601f19601f820116820180604052508101906111ae9190611973565b90506000600660009054906101000a90046001600160a01b03166001600160a01b031663313ce5676040518163ffffffff1660e01b8152600401602060405180830381865afa158015611205573d6000803e3d6000fd5b505050506040513d601f19601f8201168201806040525081019061122991906119b2565b9050811561094b57600061123e82600a611acf565b6112489085611c09565b9050600061125730338461158b565b905080156101cd5760405182815233907f070122e24a7755515fff78c756436afc7cb7dc6bd431adc3dc507fd741665dd19060200160405180910390a25050505050565b600554604051630a2edb5560e21b81523360048201526001600160a01b03909116906328bb6d5490602401602060405180830381865afa1580156112e3573d6000803e3d6000fd5b505050506040513d601f19601f820116820180604052508101906113079190611973565b6113495760405162461bcd60e51b81526020600482015260136024820152721858d8dbdd5b9d081b9bdd0818dc99585d1959606a1b6044820152606401610609565b6000821180156113595750600081115b61136257600080fd5b8161136c336114fd565b116113af5760405162461bcd60e51b81526020600482015260136024820152724e6f7420656e6f7567682042616c616e63657360681b6044820152606401610609565b6113ba33308461158b565b50604080518381526020810183905233917f77f92a1b6a1a11de8ca49515ad4c1fad45632dd3442167d74b90b304a3c7a758910160405180910390a25050565b61140261169d565b600355565b600554604051636f77926b60e01b81526001600160a01b038381166004830152606092600092911690636f77926b90602401600060405180830381865afa158015611456573d6000803e3d6000fd5b505050506040513d6000823e601f3d908101601f1916820160405261147e9190810190611b51565b90508060000151806020019051810190610c549190611c2b565b6114a061169d565b600480546001600160a01b0319166001600160a01b0392909216919091179055565b6114ca61169d565b6001600160a01b0381166114f457604051631e4fbdf760e01b815260006004820152602401610609565b610c8e816116ca565b600554604051636f77926b60e01b81526001600160a01b0383811660048301526000928392911690636f77926b90602401600060405180830381865afa15801561154b573d6000803e3d6000fd5b505050506040513d6000823e601f3d908101601f191682016040526115739190810190611b51565b602001519392505050565b61158661169d565b600155565b60055460405163f3fff9d760e01b81526001600160a01b03858116600483015260248201849052600092839291169063f3fff9d7906044016020604051808303816000875af11580156115e2573d6000803e3d6000fd5b505050506040513d601f19601f820116820180604052508101906116069190611973565b905080156116905760055460405163507cd30f60e01b81526001600160a01b03868116600483015260248201869052600092169063507cd30f906044016020604051808303816000875af1158015611662573d6000803e3d6000fd5b505050506040513d601f19601f820116820180604052508101906116869190611973565b9250611696915050565b60009150505b9392505050565b6000546001600160a01b03163314610ca35760405163118cdaa760e01b8152336004820152602401610609565b600080546001600160a01b038381166001600160a01b0319831681178455604051919092169283917f8be0079c531659141344cd1fd0a4f28419497f9722a3daafe3b4186f6b6457e09190a35050565b80356001600160a01b0381168114610c5857600080fd5b634e487b7160e01b600052604160045260246000fd5b60405160a0810167ffffffffffffffff8111828210171561176a5761176a611731565b60405290565b604051601f8201601f1916810167ffffffffffffffff8111828210171561179957611799611731565b604052919050565b600067ffffffffffffffff8211156117bb576117bb611731565b50601f01601f191660200190565b600082601f8301126117da57600080fd5b81356117ed6117e8826117a1565b611770565b81815284602083860101111561180257600080fd5b816020850160208301376000918101602001919091529392505050565b6000806040838503121561183257600080fd5b61183b8361171a565b9150602083013567ffffffffffffffff81111561185757600080fd5b611863858286016117c9565b9150509250929050565b60006020828403121561187f57600080fd5b6116968261171a565b60006020828403121561189a57600080fd5b5035919050565b6000602082840312156118b357600080fd5b813567ffffffffffffffff8111156118ca57600080fd5b6118d6848285016117c9565b949350505050565b600080604083850312156118f157600080fd5b50508035926020909101359150565b60005b8381101561191b578181015183820152602001611903565b50506000910152565b6000815180845261193c816020860160208601611900565b601f01601f19169290920160200192915050565b6020815260006116966020830184611924565b80518015158114610c5857600080fd5b60006020828403121561198557600080fd5b61169682611963565b6001600160a01b03831681526040602082018190526000906118d690830184611924565b6000602082840312156119c457600080fd5b815160ff8116811461169657600080fd5b634e487b7160e01b600052601160045260246000fd5b600181815b80851115611a26578160001904821115611a0c57611a0c6119d5565b80851615611a1957918102915b93841c93908002906119f0565b509250929050565b600082611a3d575060016109bf565b81611a4a575060006109bf565b8160018114611a605760028114611a6a57611a86565b60019150506109bf565b60ff841115611a7b57611a7b6119d5565b50506001821b6109bf565b5060208310610133831016604e8410600b8410161715611aa9575081810a6109bf565b611ab383836119eb565b8060001904821115611ac757611ac76119d5565b029392505050565b600061169660ff841683611a2e565b80820281158282048414176109bf576109bf6119d5565b600060208284031215611b0757600080fd5b5051919050565b808201808211156109bf576109bf6119d5565b6000611b2f6117e8846117a1565b9050828152838383011115611b4357600080fd5b611696836020830184611900565b600060208284031215611b6357600080fd5b815167ffffffffffffffff80821115611b7b57600080fd5b9083019060a08286031215611b8f57600080fd5b611b97611747565b825182811115611ba657600080fd5b83019150601f82018613611bb957600080fd5b611bc886835160208501611b21565b81526020830151602082015260408301516040820152611bea60608401611963565b6060820152611bfb60808401611963565b608082015295945050505050565b600082611c2657634e487b7160e01b600052601260045260246000fd5b500490565b600060208284031215611c3d57600080fd5b815167ffffffffffffffff811115611c5457600080fd5b8201601f81018413611c6557600080fd5b6118d684825160208401611b2156fea26469706673582212205aac784a5d62b7f67f3b77a06a7ee95a64d3ffeed03519a6d124db388d8370cc64736f6c6343000814003360806040523480156200001157600080fd5b5060405162000c2838038062000c2883398101604081905262000034916200012e565b806040518060400160405280600e81526020016d52414d5041474520504f494e545360901b81525060405180604001604052806002815260200161052560f41b815250816003908162000088919062000205565b50600462000097828262000205565b5050506001600160a01b038116620000c957604051631e4fbdf760e01b81526000600482015260240160405180910390fd5b620000d481620000dc565b5050620002d1565b600580546001600160a01b038381166001600160a01b0319831681179093556040519116919082907f8be0079c531659141344cd1fd0a4f28419497f9722a3daafe3b4186f6b6457e090600090a35050565b6000602082840312156200014157600080fd5b81516001600160a01b03811681146200015957600080fd5b9392505050565b634e487b7160e01b600052604160045260246000fd5b600181811c908216806200018b57607f821691505b602082108103620001ac57634e487b7160e01b600052602260045260246000fd5b50919050565b601f8211156200020057600081815260208120601f850160051c81016020861015620001db5750805b601f850160051c820191505b81811015620001fc57828155600101620001e7565b5050505b505050565b81516001600160401b0381111562000221576200022162000160565b620002398162000232845462000176565b84620001b2565b602080601f831160018114620002715760008415620002585750858301515b600019600386901b1c1916600185901b178555620001fc565b600085815260208120601f198616915b82811015620002a25788860151825594840194600190910190840162000281565b5085821015620002c15787850151600019600388901b60f8161c191681555b5050505050600190811b01905550565b61094780620002e16000396000f3fe608060405234801561001057600080fd5b50600436106100ea5760003560e01c80638da5cb5b1161008c578063bf376c7a11610066578063bf376c7a146101cd578063dd62ed3e146101e0578063f2fde38b14610219578063faf7d7201461022c57600080fd5b80638da5cb5b1461019757806395d89b41146101b2578063a9059cbb146101ba57600080fd5b806323b872dd116100c857806323b872dd14610142578063313ce5671461015557806370a0823114610164578063715018a61461018d57600080fd5b806306fdde03146100ef578063095ea7b31461010d57806318160ddd14610130575b600080fd5b6100f761023f565b6040516101049190610791565b60405180910390f35b61012061011b3660046107fb565b6102d1565b6040519015158152602001610104565b6002545b604051908152602001610104565b610120610150366004610825565b6102eb565b60405160128152602001610104565b610134610172366004610861565b6001600160a01b031660009081526020819052604090205490565b61019561030f565b005b6005546040516001600160a01b039091168152602001610104565b6100f7610323565b6101206101c83660046107fb565b610332565b6101206101db3660046107fb565b610340565b6101346101ee366004610883565b6001600160a01b03918216600090815260016020908152604080832093909416825291909152205490565b610195610227366004610861565b61035d565b61012061023a3660046107fb565b6103a0565b60606003805461024e906108b6565b80601f016020809104026020016040519081016040528092919081815260200182805461027a906108b6565b80156102c75780601f1061029c576101008083540402835291602001916102c7565b820191906000526020600020905b8154815290600101906020018083116102aa57829003601f168201915b5050505050905090565b6000336102df8185856103b4565b60019150505b92915050565b6000336102f98582856103c6565b610304858585610444565b506001949350505050565b6103176104a3565b61032160006104d0565b565b60606004805461024e906108b6565b6000336102df818585610444565b600061034a6104a3565b6103548383610522565b50600192915050565b6103656104a3565b6001600160a01b03811661039457604051631e4fbdf760e01b8152600060048201526024015b60405180910390fd5b61039d816104d0565b50565b60006103aa6104a3565b610354838361055c565b6103c18383836001610592565b505050565b6001600160a01b03838116600090815260016020908152604080832093861683529290522054600019811461043e578181101561042f57604051637dc7a0d960e11b81526001600160a01b0384166004820152602481018290526044810183905260640161038b565b61043e84848484036000610592565b50505050565b6001600160a01b03831661046e57604051634b637e8f60e11b81526000600482015260240161038b565b6001600160a01b0382166104985760405163ec442f0560e01b81526000600482015260240161038b565b6103c1838383610667565b6005546001600160a01b031633146103215760405163118cdaa760e01b815233600482015260240161038b565b600580546001600160a01b038381166001600160a01b0319831681179093556040519116919082907f8be0079c531659141344cd1fd0a4f28419497f9722a3daafe3b4186f6b6457e090600090a35050565b6001600160a01b03821661054c5760405163ec442f0560e01b81526000600482015260240161038b565b61055860008383610667565b5050565b6001600160a01b03821661058657604051634b637e8f60e11b81526000600482015260240161038b565b61055882600083610667565b6001600160a01b0384166105bc5760405163e602df0560e01b81526000600482015260240161038b565b6001600160a01b0383166105e657604051634a1406b160e11b81526000600482015260240161038b565b6001600160a01b038085166000908152600160209081526040808320938716835292905220829055801561043e57826001600160a01b0316846001600160a01b03167f8c5be1e5ebec7d5bd14f71427d1e84f3dd0314c0f7b2291e5b200ac8c7c3b9258460405161065991815260200190565b60405180910390a350505050565b6001600160a01b03831661069257806002600082825461068791906108f0565b909155506107049050565b6001600160a01b038316600090815260208190526040902054818110156106e55760405163391434e360e21b81526001600160a01b0385166004820152602481018290526044810183905260640161038b565b6001600160a01b03841660009081526020819052604090209082900390555b6001600160a01b0382166107205760028054829003905561073f565b6001600160a01b03821660009081526020819052604090208054820190555b816001600160a01b0316836001600160a01b03167fddf252ad1be2c89b69c2b068fc378daa952ba7f163c4a11628f55a4df523b3ef8360405161078491815260200190565b60405180910390a3505050565b600060208083528351808285015260005b818110156107be578581018301518582016040015282016107a2565b506000604082860101526040601f19601f8301168501019250505092915050565b80356001600160a01b03811681146107f657600080fd5b919050565b6000806040838503121561080e57600080fd5b610817836107df565b946020939093013593505050565b60008060006060848603121561083a57600080fd5b610843846107df565b9250610851602085016107df565b9150604084013590509250925092565b60006020828403121561087357600080fd5b61087c826107df565b9392505050565b6000806040838503121561089657600080fd5b61089f836107df565b91506108ad602084016107df565b90509250929050565b600181811c908216806108ca57607f821691505b6020821081036108ea57634e487b7160e01b600052602260045260246000fd5b50919050565b808201808211156102e557634e487b7160e01b600052601160045260246000fdfea26469706673582212203926ac226b209180c0e6336da0deedab8be48fcc83e990f52139eea81104f91264736f6c63430008140033","linkReferences":{}},"methodIdentifiers":{"accountCreation()":"d9f9e55c","changeUsername(string)":"77c846af","core()":"f2f4eb26","createAccount(address,string)":"2659f394","dailyLogin()":"8c8f8a00","flush()":"6b9f96ea","fungibleRp()":"8c4c714d","getUserLastSignTime(address)":"541625fa","getUserNextSignTime(address)":"96764e62","getUsername(address)":"ce43c032","owner()":"8da5cb5b","pointPerDay()":"33daa828","pointPerReferal()":"a7255927","referer(address)":"f4a8b197","renounceOwnership()":"715018a6","setAccountCreationPoints(uint256)":"a22cc457","setCore(address)":"80009630","setPointPerDay(uint256)":"fb5f3bac","setPointPerRef(uint256)":"31b44880","setSob(address)":"e411ec07","sob()":"329f1207","swapRp(uint256,uint256)":"a0441912","transferOwnership(address)":"f2fde38b","unwrapRp(uint256)":"928dbf6c","userActivated(address)":"28bb6d54","userPoints(address)":"f50ddbc7","userReferals(address)":"7e377d86","userRpPerDay(address)":"362f87ec","userTotalSignIns(address)":"91417cb9","wrapRp(uint256)":"30e61d82"},"id":54}