{"abi":[{"type":"constructor","inputs":[],"stateMutability":"nonpayable"},{"type":"function","name":"initializeCa","inputs":[{"name":"_nfts","type":"address[]","internalType":"address[]"},{"name":"_core","type":"address","internalType":"address"},{"name":"_rpCa","type":"address","internalType":"address"}],"outputs":[],"stateMutability":"nonpayable"},{"type":"function","name":"owner","inputs":[],"outputs":[{"name":"","type":"address","internalType":"address"}],"stateMutability":"view"},{"type":"function","name":"renounceOwnership","inputs":[],"outputs":[],"stateMutability":"nonpayable"},{"type":"function","name":"swap","inputs":[{"name":"target","type":"address","internalType":"address"},{"name":"data","type":"bytes","internalType":"bytes"},{"name":"tokenIn","type":"address","internalType":"address"},{"name":"am","type":"uint256","internalType":"uint256"}],"outputs":[],"stateMutability":"payable"},{"type":"function","name":"transferOwnership","inputs":[{"name":"newOwner","type":"address","internalType":"address"}],"outputs":[],"stateMutability":"nonpayable"},{"type":"event","name":"OwnershipTransferred","inputs":[{"name":"previousOwner","type":"address","indexed":true,"internalType":"address"},{"name":"newOwner","type":"address","indexed":true,"internalType":"address"}],"anonymous":false},{"type":"error","name":"OwnableInvalidOwner","inputs":[{"name":"owner","type":"address","internalType":"address"}]},{"type":"error","name":"OwnableUnauthorizedAccount","inputs":[{"name":"account","type":"address","internalType":"address"}]}],"bytecode":{"object":"0x60a060405260056002908155600355600660805234801561001f57600080fd5b50338061004657604051631e4fbdf760e01b81526000600482015260240160405180910390fd5b61004f81610055565b506100a5565b600080546001600160a01b038381166001600160a01b0319831681178455604051919092169283917f8be0079c531659141344cd1fd0a4f28419497f9722a3daafe3b4186f6b6457e09190a35050565b608051610ab36100c060003960006101030152610ab36000f3fe60806040526004361061004a5760003560e01c8063715018a61461004f5780638da5cb5b14610066578063bcb4939914610092578063f2fde38b146100b2578063feb812af146100d2575b600080fd5b34801561005b57600080fd5b506100646100e5565b005b34801561007257600080fd5b50600054604080516001600160a01b039092168252519081900360200190f35b34801561009e57600080fd5b506100646100ad3660046107f6565b6100f9565b3480156100be57600080fd5b506100646100cd3660046108dd565b6101f4565b6100646100e03660046108fa565b610237565b6100ed61065d565b6100f7600061068a565b565b61010161065d565b7f000000000000000000000000000000000000000000000000000000000000000060ff1683511061013157600080fd5b60005b83518160ff1610156101c4576000848260ff16815181106101575761015761099a565b6020908102919091010151600480546001810182556000919091527f8a35acfbc15ff81a39ae7d344fd709f28e8600b4aa8c65c6b64bfe7fe36bd19b0180546001600160a01b0319166001600160a01b0390921691909117905550806101bc816109c6565b915050610134565b50600180546001600160a01b039384166001600160a01b0319918216179091556005805492909316911617905550565b6101fc61065d565b6001600160a01b03811661022b57604051631e4fbdf760e01b8152600060048201526024015b60405180910390fd5b6102348161068a565b50565b6001600160a01b0385161580159061024e57508215155b61025757600080fd5b6040516323b872dd60e01b8152336004820152306024820152604481018290526001600160a01b038316906323b872dd906064016020604051808303816000875af11580156102aa573d6000803e3d6000fd5b505050506040513d601f19601f820116820180604052508101906102ce91906109e5565b50604051636eb1769f60e11b81523060048201526001600160a01b03868116602483015282919084169063dd62ed3e90604401602060405180830381865afa15801561031e573d6000803e3d6000fd5b505050506040513d601f19601f820116820180604052508101906103429190610a07565b10156103bd5760405163095ea7b360e01b81526001600160a01b0386811660048301526024820183905283169063095ea7b3906044016020604051808303816000875af1158015610397573d6000803e3d6000fd5b505050506040513d601f19601f820116820180604052508101906103bb91906109e5565b505b6000856001600160a01b03163486866040516103da929190610a20565b60006040518083038185875af1925050503d8060008114610417576040519150601f19603f3d011682016040523d82523d6000602084013e61041c565b606091505b5050905080801561043757506001546001600160a01b031615155b15610633576000610447336106da565b60015460405163507cd30f60e01b8152336004820152602481018390529192506001600160a01b03169063507cd30f906044016020604051808303816000875af1158015610499573d6000803e3d6000fd5b505050506040513d601f19601f820116820180604052508101906104bd91906109e5565b5060055460405163f4a8b19760e01b81523360048201526000916001600160a01b03169063f4a8b19790602401602060405180830381865afa158015610507573d6000803e3d6000fd5b505050506040513d601f19601f8201168201806040525081019061052b9190610a30565b90506001600160a01b038116158015906105ae5750600154604051630a2edb5560e21b81526001600160a01b038381166004830152909116906328bb6d5490602401602060405180830381865afa15801561058a573d6000803e3d6000fd5b505050506040513d601f19601f820116820180604052508101906105ae91906109e5565b1561062c5760015460405163507cd30f60e01b81526001600160a01b038381166004830152602482018590529091169063507cd30f906044016020604051808303816000875af1158015610606573d6000803e3d6000fd5b505050506040513d601f19601f8201168201806040525081019061062a91906109e5565b505b5050610655565b60405162461bcd60e51b81526020600482015260006024820152604401610222565b505050505050565b6000546001600160a01b031633146100f75760405163118cdaa760e01b8152336004820152602401610222565b600080546001600160a01b038381166001600160a01b0319831681178455604051919092169283917f8be0079c531659141344cd1fd0a4f28419497f9722a3daafe3b4186f6b6457e09190a35050565b60008060005b60045460ff821610156107985760048160ff16815481106107035761070361099a565b6000918252602090912001546040516370a0823160e01b81526001600160a01b038681166004830152909116906370a0823190602401602060405180830381865afa158015610756573d6000803e3d6000fd5b505050506040513d601f19601f8201168201806040525081019061077a9190610a07565b6107849083610a4d565b915080610790816109c6565b9150506106e0565b50806003546107a79190610a66565b6002546107b49190610a4d565b9392505050565b634e487b7160e01b600052604160045260246000fd5b6001600160a01b038116811461023457600080fd5b80356107f1816107d1565b919050565b60008060006060848603121561080b57600080fd5b833567ffffffffffffffff8082111561082357600080fd5b818601915086601f83011261083757600080fd5b813560208282111561084b5761084b6107bb565b8160051b604051601f19603f83011681018181108682111715610870576108706107bb565b60405292835281830193508481018201928a84111561088e57600080fd5b948201945b838610156108b3576108a4866107e6565b85529482019493820193610893565b97506108c290508882016107e6565b9550505050506108d4604085016107e6565b90509250925092565b6000602082840312156108ef57600080fd5b81356107b4816107d1565b60008060008060006080868803121561091257600080fd5b853561091d816107d1565b9450602086013567ffffffffffffffff8082111561093a57600080fd5b818801915088601f83011261094e57600080fd5b81358181111561095d57600080fd5b89602082850101111561096f57600080fd5b6020830196508095505050506040860135610989816107d1565b949793965091946060013592915050565b634e487b7160e01b600052603260045260246000fd5b634e487b7160e01b600052601160045260246000fd5b600060ff821660ff81036109dc576109dc6109b0565b60010192915050565b6000602082840312156109f757600080fd5b815180151581146107b457600080fd5b600060208284031215610a1957600080fd5b5051919050565b8183823760009101908152919050565b600060208284031215610a4257600080fd5b81516107b4816107d1565b80820180821115610a6057610a606109b0565b92915050565b8082028115828204841417610a6057610a606109b056fea26469706673582212200d10a366644d8fcfc5fe65228f8092ed93c9494a87fbe570f11f67f4ba54ecd664736f6c63430008140033","linkReferences":{}},"methodIdentifiers":{"initializeCa(address[],address,address)":"bcb49399","owner()":"8da5cb5b","renounceOwnership()":"715018a6","swap(address,bytes,address,uint256)":"feb812af","transferOwnership(address)":"f2fde38b"},"id":60}