{"abi":[{"type":"constructor","inputs":[{"name":"ercAsset","type":"address","internalType":"contract IERC20"},{"name":"lendAsset","type":"address","internalType":"contract IERC20"},{"name":"_avePool","type":"address","internalType":"address"},{"name":"name","type":"string","internalType":"string"},{"name":"symbol","type":"string","internalType":"string"}],"stateMutability":"nonpayable"},{"type":"function","name":"_initializeVault","inputs":[{"name":"sharesTo","type":"address","internalType":"address"},{"name":"depositFrom","type":"address","internalType":"address"},{"name":"assetsToDeposit","type":"uint256","internalType":"uint256"},{"name":"sharesToMint","type":"uint256","internalType":"uint256"}],"outputs":[{"name":"","type":"bool","internalType":"bool"}],"stateMutability":"nonpayable"},{"type":"function","name":"aaveAsset","inputs":[],"outputs":[{"name":"","type":"address","internalType":"contract IERC20"}],"stateMutability":"view"},{"type":"function","name":"aavePool","inputs":[],"outputs":[{"name":"","type":"address","internalType":"contract AAVEv3"}],"stateMutability":"view"},{"type":"function","name":"allowance","inputs":[{"name":"owner","type":"address","internalType":"address"},{"name":"spender","type":"address","internalType":"address"}],"outputs":[{"name":"","type":"uint256","internalType":"uint256"}],"stateMutability":"view"},{"type":"function","name":"approve","inputs":[{"name":"spender","type":"address","internalType":"address"},{"name":"value","type":"uint256","internalType":"uint256"}],"outputs":[{"name":"","type":"bool","internalType":"bool"}],"stateMutability":"nonpayable"},{"type":"function","name":"asset","inputs":[],"outputs":[{"name":"","type":"address","internalType":"address"}],"stateMutability":"view"},{"type":"function","name":"balanceOf","inputs":[{"name":"account","type":"address","internalType":"address"}],"outputs":[{"name":"","type":"uint256","internalType":"uint256"}],"stateMutability":"view"},{"type":"function","name":"burnShare","inputs":[{"name":"shares","type":"uint256","internalType":"uint256"}],"outputs":[{"name":"","type":"bool","internalType":"bool"}],"stateMutability":"nonpayable"},{"type":"function","name":"controller","inputs":[],"outputs":[{"name":"","type":"address","internalType":"address"}],"stateMutability":"view"},{"type":"function","name":"convertToAssets","inputs":[{"name":"shares","type":"uint256","internalType":"uint256"}],"outputs":[{"name":"","type":"uint256","internalType":"uint256"}],"stateMutability":"view"},{"type":"function","name":"convertToShares","inputs":[{"name":"assets","type":"uint256","internalType":"uint256"}],"outputs":[{"name":"","type":"uint256","internalType":"uint256"}],"stateMutability":"view"},{"type":"function","name":"decimals","inputs":[],"outputs":[{"name":"","type":"uint8","internalType":"uint8"}],"stateMutability":"view"},{"type":"function","name":"deposit","inputs":[{"name":"assets","type":"uint256","internalType":"uint256"},{"name":"receiver","type":"address","internalType":"address"}],"outputs":[{"name":"","type":"uint256","internalType":"uint256"}],"stateMutability":"nonpayable"},{"type":"function","name":"execute","inputs":[{"name":"target","type":"address","internalType":"address"},{"name":"data","type":"bytes","internalType":"bytes"}],"outputs":[{"name":"","type":"bool","internalType":"bool"},{"name":"","type":"bytes","internalType":"bytes"}],"stateMutability":"payable"},{"type":"function","name":"fee","inputs":[],"outputs":[{"name":"","type":"uint256","internalType":"uint256"}],"stateMutability":"view"},{"type":"function","name":"isInitialized","inputs":[],"outputs":[{"name":"state","type":"bool","internalType":"bool"}],"stateMutability":"view"},{"type":"function","name":"maxDeposit","inputs":[{"name":"","type":"address","internalType":"address"}],"outputs":[{"name":"","type":"uint256","internalType":"uint256"}],"stateMutability":"view"},{"type":"function","name":"maxMint","inputs":[{"name":"","type":"address","internalType":"address"}],"outputs":[{"name":"","type":"uint256","internalType":"uint256"}],"stateMutability":"view"},{"type":"function","name":"maxRedeem","inputs":[{"name":"owner","type":"address","internalType":"address"}],"outputs":[{"name":"","type":"uint256","internalType":"uint256"}],"stateMutability":"view"},{"type":"function","name":"maxWithdraw","inputs":[{"name":"owner","type":"address","internalType":"address"}],"outputs":[{"name":"","type":"uint256","internalType":"uint256"}],"stateMutability":"view"},{"type":"function","name":"mint","inputs":[{"name":"shares","type":"uint256","internalType":"uint256"},{"name":"receiver","type":"address","internalType":"address"}],"outputs":[{"name":"","type":"uint256","internalType":"uint256"}],"stateMutability":"nonpayable"},{"type":"function","name":"name","inputs":[],"outputs":[{"name":"","type":"string","internalType":"string"}],"stateMutability":"view"},{"type":"function","name":"owner","inputs":[],"outputs":[{"name":"","type":"address","internalType":"address"}],"stateMutability":"view"},{"type":"function","name":"previewDeposit","inputs":[{"name":"assets","type":"uint256","internalType":"uint256"}],"outputs":[{"name":"","type":"uint256","internalType":"uint256"}],"stateMutability":"view"},{"type":"function","name":"previewMint","inputs":[{"name":"shares","type":"uint256","internalType":"uint256"}],"outputs":[{"name":"","type":"uint256","internalType":"uint256"}],"stateMutability":"view"},{"type":"function","name":"previewRedeem","inputs":[{"name":"shares","type":"uint256","internalType":"uint256"}],"outputs":[{"name":"","type":"uint256","internalType":"uint256"}],"stateMutability":"view"},{"type":"function","name":"previewWithdraw","inputs":[{"name":"assets","type":"uint256","internalType":"uint256"}],"outputs":[{"name":"","type":"uint256","internalType":"uint256"}],"stateMutability":"view"},{"type":"function","name":"redeem","inputs":[{"name":"shares","type":"uint256","internalType":"uint256"},{"name":"receiver","type":"address","internalType":"address"},{"name":"owner","type":"address","internalType":"address"}],"outputs":[{"name":"","type":"uint256","internalType":"uint256"}],"stateMutability":"nonpayable"},{"type":"function","name":"renounceOwnership","inputs":[],"outputs":[],"stateMutability":"nonpayable"},{"type":"function","name":"symbol","inputs":[],"outputs":[{"name":"","type":"string","internalType":"string"}],"stateMutability":"view"},{"type":"function","name":"totalAssets","inputs":[],"outputs":[{"name":"","type":"uint256","internalType":"uint256"}],"stateMutability":"view"},{"type":"function","name":"totalSupply","inputs":[],"outputs":[{"name":"","type":"uint256","internalType":"uint256"}],"stateMutability":"view"},{"type":"function","name":"transfer","inputs":[{"name":"to","type":"address","internalType":"address"},{"name":"value","type":"uint256","internalType":"uint256"}],"outputs":[{"name":"","type":"bool","internalType":"bool"}],"stateMutability":"nonpayable"},{"type":"function","name":"transferFrom","inputs":[{"name":"from","type":"address","internalType":"address"},{"name":"to","type":"address","internalType":"address"},{"name":"value","type":"uint256","internalType":"uint256"}],"outputs":[{"name":"","type":"bool","internalType":"bool"}],"stateMutability":"nonpayable"},{"type":"function","name":"transferOwnership","inputs":[{"name":"newOwner","type":"address","internalType":"address"}],"outputs":[],"stateMutability":"nonpayable"},{"type":"function","name":"withdraw","inputs":[{"name":"assets","type":"uint256","internalType":"uint256"},{"name":"receiver","type":"address","internalType":"address"},{"name":"owner","type":"address","internalType":"address"}],"outputs":[{"name":"","type":"uint256","internalType":"uint256"}],"stateMutability":"nonpayable"},{"type":"event","name":"Approval","inputs":[{"name":"owner","type":"address","indexed":true,"internalType":"address"},{"name":"spender","type":"address","indexed":true,"internalType":"address"},{"name":"value","type":"uint256","indexed":false,"internalType":"uint256"}],"anonymous":false},{"type":"event","name":"Deposit","inputs":[{"name":"sender","type":"address","indexed":true,"internalType":"address"},{"name":"owner","type":"address","indexed":true,"internalType":"address"},{"name":"assets","type":"uint256","indexed":false,"internalType":"uint256"},{"name":"shares","type":"uint256","indexed":false,"internalType":"uint256"}],"anonymous":false},{"type":"event","name":"OwnershipTransferred","inputs":[{"name":"previousOwner","type":"address","indexed":true,"internalType":"address"},{"name":"newOwner","type":"address","indexed":true,"internalType":"address"}],"anonymous":false},{"type":"event","name":"Transfer","inputs":[{"name":"from","type":"address","indexed":true,"internalType":"address"},{"name":"to","type":"address","indexed":true,"internalType":"address"},{"name":"value","type":"uint256","indexed":false,"internalType":"uint256"}],"anonymous":false},{"type":"event","name":"Withdraw","inputs":[{"name":"sender","type":"address","indexed":true,"internalType":"address"},{"name":"receiver","type":"address","indexed":true,"internalType":"address"},{"name":"owner","type":"address","indexed":true,"internalType":"address"},{"name":"assets","type":"uint256","indexed":false,"internalType":"uint256"},{"name":"shares","type":"uint256","indexed":false,"internalType":"uint256"}],"anonymous":false},{"type":"error","name":"AddressEmptyCode","inputs":[{"name":"target","type":"address","internalType":"address"}]},{"type":"error","name":"AddressInsufficientBalance","inputs":[{"name":"account","type":"address","internalType":"address"}]},{"type":"error","name":"ERC20InsufficientAllowance","inputs":[{"name":"spender","type":"address","internalType":"address"},{"name":"allowance","type":"uint256","internalType":"uint256"},{"name":"needed","type":"uint256","internalType":"uint256"}]},{"type":"error","name":"ERC20InsufficientBalance","inputs":[{"name":"sender","type":"address","internalType":"address"},{"name":"balance","type":"uint256","internalType":"uint256"},{"name":"needed","type":"uint256","internalType":"uint256"}]},{"type":"error","name":"ERC20InvalidApprover","inputs":[{"name":"approver","type":"address","internalType":"address"}]},{"type":"error","name":"ERC20InvalidReceiver","inputs":[{"name":"receiver","type":"address","internalType":"address"}]},{"type":"error","name":"ERC20InvalidSender","inputs":[{"name":"sender","type":"address","internalType":"address"}]},{"type":"error","name":"ERC20InvalidSpender","inputs":[{"name":"spender","type":"address","internalType":"address"}]},{"type":"error","name":"ERC4626ExceededMaxDeposit","inputs":[{"name":"receiver","type":"address","internalType":"address"},{"name":"assets","type":"uint256","internalType":"uint256"},{"name":"max","type":"uint256","internalType":"uint256"}]},{"type":"error","name":"ERC4626ExceededMaxMint","inputs":[{"name":"receiver","type":"address","internalType":"address"},{"name":"shares","type":"uint256","internalType":"uint256"},{"name":"max","type":"uint256","internalType":"uint256"}]},{"type":"error","name":"ERC4626ExceededMaxRedeem","inputs":[{"name":"owner","type":"address","internalType":"address"},{"name":"shares","type":"uint256","internalType":"uint256"},{"name":"max","type":"uint256","internalType":"uint256"}]},{"type":"error","name":"ERC4626ExceededMaxWithdraw","inputs":[{"name":"owner","type":"address","internalType":"address"},{"name":"assets","type":"uint256","internalType":"uint256"},{"name":"max","type":"uint256","internalType":"uint256"}]},{"type":"error","name":"FailedInnerCall","inputs":[]},{"type":"error","name":"MathOverflowedMulDiv","inputs":[]},{"type":"error","name":"OwnableInvalidOwner","inputs":[{"name":"owner","type":"address","internalType":"address"}]},{"type":"error","name":"OwnableUnauthorizedAccount","inputs":[{"name":"account","type":"address","internalType":"address"}]},{"type":"error","name":"SafeERC20FailedOperation","inputs":[{"name":"token","type":"address","internalType":"address"}]}],"bytecode":{"object":"0x60e060405261012c60085534801562000016575f80fd5b50604051620023c3380380620023c3833981016040819052620000399162000357565b33858585858560036200004d838262000488565b5060046200005c828262000488565b5050505f8062000072856200014960201b60201c565b91509150816200008457601262000086565b805b60ff1660a0526001600160a01b03858116608052600580546001600160a01b031990811686841617909155600680549091169186169190911790555f80620000ce8662000149565b9150915081620000e0576012620000e2565b805b60ff1660c0525050506001600160a01b03851693506200011f9250505057604051631e4fbdf760e01b81525f600482015260240160405180910390fd5b6200012a8162000228565b5050600980546001600160a01b03191633179055506200058592505050565b60408051600481526024810182526020810180516001600160e01b031663313ce56760e01b17905290515f918291829182916001600160a01b03871691620001919162000550565b5f60405180830381855afa9150503d805f8114620001cb576040519150601f19603f3d011682016040523d82523d5f602084013e620001d0565b606091505b5091509150818015620001e557506020815110155b156200021c575f818060200190518101906200020291906200056d565b905060ff81116200021a576001969095509350505050565b505b505f9485945092505050565b600780546001600160a01b038381166001600160a01b0319831681179093556040519116919082907f8be0079c531659141344cd1fd0a4f28419497f9722a3daafe3b4186f6b6457e0905f90a35050565b6001600160a01b03811681146200028e575f80fd5b50565b634e487b7160e01b5f52604160045260245ffd5b5f5b83811015620002c1578181015183820152602001620002a7565b50505f910152565b5f82601f830112620002d9575f80fd5b81516001600160401b0380821115620002f657620002f662000291565b604051601f8301601f19908116603f0116810190828211818310171562000321576200032162000291565b816040528381528660208588010111156200033a575f80fd5b6200034d846020830160208901620002a5565b9695505050505050565b5f805f805f60a086880312156200036c575f80fd5b8551620003798162000279565b60208701519095506200038c8162000279565b60408701519094506200039f8162000279565b60608701519093506001600160401b0380821115620003bc575f80fd5b620003ca89838a01620002c9565b93506080880151915080821115620003e0575f80fd5b50620003ef88828901620002c9565b9150509295509295909350565b600181811c908216806200041157607f821691505b6020821081036200043057634e487b7160e01b5f52602260045260245ffd5b50919050565b601f82111562000483575f81815260208120601f850160051c810160208610156200045e5750805b601f850160051c820191505b818110156200047f578281556001016200046a565b5050505b505050565b81516001600160401b03811115620004a457620004a462000291565b620004bc81620004b58454620003fc565b8462000436565b602080601f831160018114620004f2575f8415620004da5750858301515b5f19600386901b1c1916600185901b1785556200047f565b5f85815260208120601f198616915b82811015620005225788860151825594840194600190910190840162000501565b50858210156200054057878501515f19600388901b60f8161c191681555b5050505050600190811b01905550565b5f825162000563818460208701620002a5565b9190910192915050565b5f602082840312156200057e575f80fd5b5051919050565b60805160a05160c051611df3620005d05f395f61093b01525f50505f81816103670152818161122f0152818161127f01528181611306015281816114bb01526115570152611df35ff3fe608060405260043610610207575f3560e01c80638da5cb5b11610113578063c6e6f5921161009d578063dd62ed3e1161006d578063dd62ed3e146105eb578063ddca3f431461062f578063ef8b30f714610644578063f2fde38b14610663578063f77c479114610682575f80fd5b8063c6e6f5921461056f578063ce96cb771461058e578063d1503cb4146105ad578063d905777e146105cc575f80fd5b8063a9059cbb116100e3578063a9059cbb146104f3578063b3d7f6b914610512578063b460af9414610531578063ba08765214610550578063c63d75b6146103bd575f80fd5b80638da5cb5b1461048457806394bf804d146104a157806395d89b41146104c0578063a03e4bc3146104d4575f80fd5b8063313ce567116101945780634cdad506116101645780634cdad506146103dd5780634f9ebe52146103fc5780636e553f651461041b57806370a082311461043a578063715018a61461046e575f80fd5b8063313ce5671461033357806338d52e0f14610359578063392e53cd1461039f578063402d267d146103bd575f80fd5b80630a28a477116101da5780630a28a477146102a15780630ebc2d23146102c057806318160ddd146102df5780631cff79cd146102f357806323b872dd14610314575f80fd5b806301e1d1141461020b57806306fdde031461023257806307a2d13a14610253578063095ea7b314610272575b5f80fd5b348015610216575f80fd5b5061021f6106a1565b6040519081526020015b60405180910390f35b34801561023d575f80fd5b50610246610710565b6040516102299190611909565b34801561025e575f80fd5b5061021f61026d36600461191b565b6107a0565b34801561027d575f80fd5b5061029161028c366004611948565b6107c8565b6040519015158152602001610229565b3480156102ac575f80fd5b5061021f6102bb36600461191b565b6107e1565b3480156102cb575f80fd5b506102916102da36600461191b565b610800565b3480156102ea575f80fd5b5060025461021f565b610306610301366004611970565b610861565b6040516102299291906119ec565b34801561031f575f80fd5b5061029161032e366004611a06565b610910565b34801561033e575f80fd5b50610347610933565b60405160ff9091168152602001610229565b348015610364575f80fd5b507f00000000000000000000000000000000000000000000000000000000000000005b6040516001600160a01b039091168152602001610229565b3480156103aa575f80fd5b50600954600160a01b900460ff16610291565b3480156103c8575f80fd5b5061021f6103d7366004611a3f565b505f1990565b3480156103e8575f80fd5b5061021f6103f736600461191b565b61095f565b348015610407575f80fd5b50610291610416366004611a58565b61097f565b348015610426575f80fd5b5061021f610435366004611a97565b610ada565b348015610445575f80fd5b5061021f610454366004611a3f565b6001600160a01b03165f9081526020819052604090205490565b348015610479575f80fd5b50610482610b18565b005b34801561048f575f80fd5b506007546001600160a01b0316610387565b3480156104ac575f80fd5b5061021f6104bb366004611a97565b610b2b565b3480156104cb575f80fd5b50610246610b61565b3480156104df575f80fd5b50600554610387906001600160a01b031681565b3480156104fe575f80fd5b5061029161050d366004611948565b610b70565b34801561051d575f80fd5b5061021f61052c36600461191b565b610b7d565b34801561053c575f80fd5b5061021f61054b366004611ac1565b610b88565b34801561055b575f80fd5b5061021f61056a366004611ac1565b610bc8565b34801561057a575f80fd5b5061021f61058936600461191b565b610bff565b348015610599575f80fd5b5061021f6105a8366004611a3f565b610c1c565b3480156105b8575f80fd5b50600654610387906001600160a01b031681565b3480156105d7575f80fd5b5061021f6105e6366004611a3f565b610c3e565b3480156105f6575f80fd5b5061021f610605366004611afa565b6001600160a01b039182165f90815260016020908152604080832093909416825291909152205490565b34801561063a575f80fd5b5061021f60085481565b34801561064f575f80fd5b5061021f61065e36600461191b565b610c5b565b34801561066e575f80fd5b5061048261067d366004611a3f565b610c7a565b34801561068d575f80fd5b50600954610387906001600160a01b031681565b6006546040516370a0823160e01b81523060048201525f916001600160a01b0316906370a0823190602401602060405180830381865afa1580156106e7573d5f803e3d5ffd5b505050506040513d601f19601f8201168201806040525081019061070b9190611b22565b905090565b60606003805461071f90611b39565b80601f016020809104026020016040519081016040528092919081815260200182805461074b90611b39565b80156107965780601f1061076d57610100808354040283529160200191610796565b820191905f5260205f20905b81548152906001019060200180831161077957829003601f168201915b5050505050905090565b5f806107ac835f610cb7565b90506107b781610cf0565b6107c19082611b85565b9392505050565b5f336107d5818585610d09565b60019150505b92915050565b5f806107ec83610cf0565b90506107c16107fb8285611b85565b610d1b565b6009545f90600160a01b900460ff166108345760405162461bcd60e51b815260040161082b90611b98565b60405180910390fd5b335f9081526020819052604090205482111561084e575f80fd5b6108583383610d27565b5060015b919050565b6009545f906060906001600160a01b0316331461087c575f80fd5b600954600160a01b900460ff166108a55760405162461bcd60e51b815260040161082b90611b98565b5f80866001600160a01b03163487876040516108c2929190611bc2565b5f6040518083038185875af1925050503d805f81146108fc576040519150601f19603f3d011682016040523d82523d5f602084013e610901565b606091505b50909890975095505050505050565b5f3361091d858285610d5f565b610928858585610dc7565b506001949350505050565b5f61070b600c7f0000000000000000000000000000000000000000000000000000000000000000611bd1565b5f8061096a83610e24565b905061097581610cf0565b6107c19082611bea565b6009545f906001600160a01b03163314610997575f80fd5b6006546040516370a0823160e01b81526001600160a01b038681166004830152859216906370a0823190602401602060405180830381865afa1580156109df573d5f803e3d5ffd5b505050506040513d601f19601f82011682018060405250810190610a039190611b22565b1015610a0d575f80fd5b6006546040516323b872dd60e01b81526001600160a01b03868116600483015230602483015260448201869052909116906323b872dd906064016020604051808303815f875af1158015610a63573d5f803e3d5ffd5b505050506040513d601f19601f82011682018060405250810190610a879190611bfd565b506009805460ff60a01b1916600160a01b179055610ac485610aa7610933565b610ab59060ff16600a611cfc565b610abf9085611d07565b610e2f565b5050600954600160a01b900460ff169392505050565b6009545f90600160a01b900460ff16610b055760405162461bcd60e51b815260040161082b90611b98565b5f610b108484610e63565b949350505050565b610b20610e7e565b610b295f610eab565b565b6009545f90600160a01b900460ff16610b565760405162461bcd60e51b815260040161082b90611b98565b5f610b108484610efc565b60606004805461071f90611b39565b5f336107d5818585610dc7565b5f806107ac83610f17565b6009545f90600160a01b900460ff16610bb35760405162461bcd60e51b815260040161082b90611b98565b5f610bbf858585610f23565b95945050505050565b6009545f90600160a01b900460ff16610bf35760405162461bcd60e51b815260040161082b90611b98565b5f610bbf858585610f70565b5f6107db610c0c83610cf0565b610c169084611bea565b5f610fbd565b6001600160a01b0381165f908152602081905260408120546107db905f610cb7565b6001600160a01b0381165f908152602081905260408120546107db565b5f80610c6683610cf0565b90506107c1610c758285611bea565b610fed565b610c82610e7e565b6001600160a01b038116610cab57604051631e4fbdf760e01b81525f600482015260240161082b565b610cb481610eab565b50565b5f6107c1610cc36106a1565b610cce906001611b85565b610cda600c600a611d1e565b600254610ce79190611b85565b85919085610ff8565b5f6107db610cfd60085490565b83906127106001610ff8565b610d168383836001611045565b505050565b5f6107db826001610fbd565b6001600160a01b038216610d5057604051634b637e8f60e11b81525f600482015260240161082b565b610d5b825f83611117565b5050565b6001600160a01b038381165f908152600160209081526040808320938616835292905220545f198114610dc15781811015610db357828183604051637dc7a0d960e11b815260040161082b93929190611d2c565b610dc184848484035f611045565b50505050565b6001600160a01b038316610df057604051634b637e8f60e11b81525f600482015260240161082b565b6001600160a01b038216610e195760405163ec442f0560e01b81525f600482015260240161082b565b610d16838383611117565b5f6107db825f610cb7565b6001600160a01b038216610e585760405163ec442f0560e01b81525f600482015260240161082b565b610d5b5f8383611117565b5f5f195f610e7085610c5b565b9050610b103385878461122a565b6007546001600160a01b03163314610b295760405163118cdaa760e01b815233600482015260240161082b565b600780546001600160a01b038381166001600160a01b0319831681179093556040519116919082907f8be0079c531659141344cd1fd0a4f28419497f9722a3daafe3b4186f6b6457e0905f90a35050565b5f5f195f610f0985610b7d565b9050610b103385838861122a565b5f6107db826001610cb7565b5f80610f2e83610c1c565b905080851115610f5757828582604051633fa733bb60e21b815260040161082b93929190611d2c565b5f610f61866107e1565b9050610bbf33868689856113d1565b5f80610f7b83610c3e565b905080851115610fa457828582604051632e52afbb60e21b815260040161082b93929190611d2c565b5f610fae8661095f565b9050610bbf338686848a6113d1565b5f6107c1610fcd600c600a611d1e565b600254610fda9190611b85565b610fe26106a1565b610ce7906001611b85565b5f6107db825f610fbd565b5f806110058686866115e5565b9050611010836116a4565b801561102b57505f848061102657611026611d4d565b868809115b15610bbf5761103b600182611b85565b9695505050505050565b6001600160a01b03841661106e5760405163e602df0560e01b81525f600482015260240161082b565b6001600160a01b03831661109757604051634a1406b160e11b81525f600482015260240161082b565b6001600160a01b038085165f9081526001602090815260408083209387168352929052208290558015610dc157826001600160a01b0316846001600160a01b03167f8c5be1e5ebec7d5bd14f71427d1e84f3dd0314c0f7b2291e5b200ac8c7c3b9258460405161110991815260200190565b60405180910390a350505050565b6001600160a01b038316611141578060025f8282546111369190611b85565b9091555061119e9050565b6001600160a01b0383165f90815260208190526040902054818110156111805783818360405163391434e360e21b815260040161082b93929190611d2c565b6001600160a01b0384165f9081526020819052604090209082900390555b6001600160a01b0382166111ba576002805482900390556111d8565b6001600160a01b0382165f9081526020819052604090208054820190555b816001600160a01b0316836001600160a01b03167fddf252ad1be2c89b69c2b068fc378daa952ba7f163c4a11628f55a4df523b3ef8360405161121d91815260200190565b60405180910390a3505050565b6112567f00000000000000000000000000000000000000000000000000000000000000008530856116d0565b60055460405163095ea7b360e01b81526001600160a01b039182166004820152602481018490527f00000000000000000000000000000000000000000000000000000000000000009091169063095ea7b3906044016020604051808303815f875af11580156112c7573d5f803e3d5ffd5b505050506040513d601f19601f820116820180604052508101906112eb9190611bfd565b5060055460405163617ba03760e01b81526001600160a01b037f000000000000000000000000000000000000000000000000000000000000000081166004830152602482018590523060448301525f60648301529091169063617ba037906084015f604051808303815f87803b158015611363575f80fd5b505af1158015611375573d5f803e3d5ffd5b505050506113838382610e2f565b826001600160a01b0316846001600160a01b03167fdcbc1c05240f31ff3ad067ef1ee35ce4997762752e3a095284754544f4c709d78484604051611109929190918252602082015260400190565b826001600160a01b0316856001600160a01b0316146113f5576113f5838683610d5f565b6006546040516370a0823160e01b815230600482015283916001600160a01b0316906370a0823190602401602060405180830381865afa15801561143b573d5f803e3d5ffd5b505050506040513d601f19601f8201168201806040525081019061145f9190611b22565b10156114a15760405162461bcd60e51b8152602060048201526011602482015270756e61626c6520746f2070726f6365737360781b604482015260640161082b565b600554604051631a4ca37b60e21b81526001600160a01b037f000000000000000000000000000000000000000000000000000000000000000081166004830152602482018590523060448301525f9216906369328dec906064016020604051808303815f875af1158015611517573d5f803e3d5ffd5b505050506040513d601f19601f8201168201806040525081019061153b9190611b22565b90505f8111611548575f80fd5b6115528483610d27565b61157d7f00000000000000000000000000000000000000000000000000000000000000008685611737565b836001600160a01b0316856001600160a01b0316876001600160a01b03167ffbde797d201c681b91056529119e0b02407c7bb96a4a2c75c01fc9667232c8db86866040516115d5929190918252602082015260400190565b60405180910390a4505050505050565b5f838302815f1985870982811083820303915050805f036116195783828161160f5761160f611d4d565b04925050506107c1565b8084116116395760405163227bc15360e01b815260040160405180910390fd5b5f848688095f868103871696879004966002600389028118808a02820302808a02820302808a02820302808a02820302808a02820302808a02909103029181900381900460010186841190950394909402919094039290920491909117919091029150509392505050565b5f60028260038111156116b9576116b9611d61565b6116c39190611d75565b60ff166001149050919050565b6040516001600160a01b038481166024830152838116604483015260648201839052610dc19186918216906323b872dd906084015b604051602081830303815290604052915060e01b6020820180516001600160e01b038381831617835250505050611768565b6040516001600160a01b03838116602483015260448201839052610d1691859182169063a9059cbb90606401611705565b5f61177c6001600160a01b038416836117c9565b905080515f141580156117a057508080602001905181019061179e9190611bfd565b155b15610d1657604051635274afe760e01b81526001600160a01b038416600482015260240161082b565b60606107c183835f845f80856001600160a01b031684866040516117ed9190611da2565b5f6040518083038185875af1925050503d805f8114611827576040519150601f19603f3d011682016040523d82523d5f602084013e61182c565b606091505b509150915061103b86838360608261184c5761184782611893565b6107c1565b815115801561186357506001600160a01b0384163b155b1561188c57604051639996b31560e01b81526001600160a01b038516600482015260240161082b565b50806107c1565b8051156118a35780518082602001fd5b604051630a12f52160e11b815260040160405180910390fd5b5f5b838110156118d65781810151838201526020016118be565b50505f910152565b5f81518084526118f58160208601602086016118bc565b601f01601f19169290920160200192915050565b602081525f6107c160208301846118de565b5f6020828403121561192b575f80fd5b5035919050565b80356001600160a01b038116811461085c575f80fd5b5f8060408385031215611959575f80fd5b61196283611932565b946020939093013593505050565b5f805f60408486031215611982575f80fd5b61198b84611932565b9250602084013567ffffffffffffffff808211156119a7575f80fd5b818601915086601f8301126119ba575f80fd5b8135818111156119c8575f80fd5b8760208285010111156119d9575f80fd5b6020830194508093505050509250925092565b8215158152604060208201525f610b1060408301846118de565b5f805f60608486031215611a18575f80fd5b611a2184611932565b9250611a2f60208501611932565b9150604084013590509250925092565b5f60208284031215611a4f575f80fd5b6107c182611932565b5f805f8060808587031215611a6b575f80fd5b611a7485611932565b9350611a8260208601611932565b93969395505050506040820135916060013590565b5f8060408385031215611aa8575f80fd5b82359150611ab860208401611932565b90509250929050565b5f805f60608486031215611ad3575f80fd5b83359250611ae360208501611932565b9150611af160408501611932565b90509250925092565b5f8060408385031215611b0b575f80fd5b611b1483611932565b9150611ab860208401611932565b5f60208284031215611b32575f80fd5b5051919050565b600181811c90821680611b4d57607f821691505b602082108103611b6b57634e487b7160e01b5f52602260045260245ffd5b50919050565b634e487b7160e01b5f52601160045260245ffd5b808201808211156107db576107db611b71565b60208082526010908201526f7661756c74206e6f742061637469766560801b604082015260600190565b818382375f9101908152919050565b60ff81811683821601908111156107db576107db611b71565b818103818111156107db576107db611b71565b5f60208284031215611c0d575f80fd5b815180151581146107c1575f80fd5b600181815b80851115611c5657815f1904821115611c3c57611c3c611b71565b80851615611c4957918102915b93841c9390800290611c21565b509250929050565b5f82611c6c575060016107db565b81611c7857505f6107db565b8160018114611c8e5760028114611c9857611cb4565b60019150506107db565b60ff841115611ca957611ca9611b71565b50506001821b6107db565b5060208310610133831016604e8410600b8410161715611cd7575081810a6107db565b611ce18383611c1c565b805f1904821115611cf457611cf4611b71565b029392505050565b5f6107c18383611c5e565b80820281158282048414176107db576107db611b71565b5f6107c160ff841683611c5e565b6001600160a01b039390931683526020830191909152604082015260600190565b634e487b7160e01b5f52601260045260245ffd5b634e487b7160e01b5f52602160045260245ffd5b5f60ff831680611d9357634e487b7160e01b5f52601260045260245ffd5b8060ff84160691505092915050565b5f8251611db38184602087016118bc565b919091019291505056fea2646970667358221220d5b5b824c221ab534fdf9c99a4266a65ffc22dc99255cebfc05bab448076bd0864736f6c63430008140033","linkReferences":{}},"methodIdentifiers":{"_initializeVault(address,address,uint256,uint256)":"4f9ebe52","aaveAsset()":"d1503cb4","aavePool()":"a03e4bc3","allowance(address,address)":"dd62ed3e","approve(address,uint256)":"095ea7b3","asset()":"38d52e0f","balanceOf(address)":"70a08231","burnShare(uint256)":"0ebc2d23","controller()":"f77c4791","convertToAssets(uint256)":"07a2d13a","convertToShares(uint256)":"c6e6f592","decimals()":"313ce567","deposit(uint256,address)":"6e553f65","execute(address,bytes)":"1cff79cd","fee()":"ddca3f43","isInitialized()":"392e53cd","maxDeposit(address)":"402d267d","maxMint(address)":"c63d75b6","maxRedeem(address)":"d905777e","maxWithdraw(address)":"ce96cb77","mint(uint256,address)":"94bf804d","name()":"06fdde03","owner()":"8da5cb5b","previewDeposit(uint256)":"ef8b30f7","previewMint(uint256)":"b3d7f6b9","previewRedeem(uint256)":"4cdad506","previewWithdraw(uint256)":"0a28a477","redeem(uint256,address,address)":"ba087652","renounceOwnership()":"715018a6","symbol()":"95d89b41","totalAssets()":"01e1d114","totalSupply()":"18160ddd","transfer(address,uint256)":"a9059cbb","transferFrom(address,address,uint256)":"23b872dd","transferOwnership(address)":"f2fde38b","withdraw(uint256,address,address)":"b460af94"},"id":47}